{
  "_format": "hh-sol-artifact-1",
  "contractName": "ERC1155Proxy",
  "sourceName": "src/e2e-tests/contracts/helpers/ERC1155Proxy.sol",
  "abi": [
    {
      "inputs": [
        {
          "internalType": "address",
          "name": "_immutableOwner",
          "type": "address"
        }
      ],
      "stateMutability": "nonpayable",
      "type": "constructor"
    },
    {
      "inputs": [],
      "name": "ERC1155ProxyBadSelector",
      "type": "error"
    },
    {
      "inputs": [],
      "name": "IOAccessDenied",
      "type": "error"
    },
    {
      "inputs": [
        {
          "internalType": "address",
          "name": "from",
          "type": "address"
        },
        {
          "internalType": "address",
          "name": "to",
          "type": "address"
        },
        {
          "internalType": "uint256",
          "name": "amount",
          "type": "uint256"
        },
        {
          "internalType": "contract IERC1155",
          "name": "token",
          "type": "address"
        },
        {
          "internalType": "uint256",
          "name": "tokenId",
          "type": "uint256"
        },
        {
          "internalType": "bytes",
          "name": "data",
          "type": "bytes"
        }
      ],
      "name": "func_301JL5R",
      "outputs": [],
      "stateMutability": "nonpayable",
      "type": "function"
    },
    {
      "inputs": [],
      "name": "immutableOwner",
      "outputs": [
        {
          "internalType": "address",
          "name": "",
          "type": "address"
        }
      ],
      "stateMutability": "view",
      "type": "function"
    }
  ],
  "bytecode": "0x60a03461007057601f6102b338819003918201601f19168301916001600160401b038311848410176100755780849260209460405283398101031261007057516001600160a01b038116810361007057608052604051610227908161008c8239608051818181604e01526101000152f35b600080fd5b634e487b7160e01b600052604160045260246000fdfe60808060405260048036101561001457600080fd5b600091823560e01c91826323b872dd14610080575050638ec735681461003957600080fd5b3461007d578060031936011261007d576040517f00000000000000000000000000000000000000000000000000000000000000006001600160a01b03168152602090f35b80fd5b909150346101ed5760c03660031901126101ed576001600160a01b03918135838116908190036101cb57602435908482168092036101e957606435908582168092036101e55760a4359567ffffffffffffffff948588116101e157366023890112156101e15787870135918683116101dd57366024848b0101116101dd577f00000000000000000000000000000000000000000000000000000000000000001633036101cf57509082918894933b156101cb5760c48782879360246040519c8d998a988996637921219560e11b8852870152828601526084356044860152604435606486015260a060848601528260a486015201848401378181018301849052601f01601f191681010301925af180156101c05761019c578380f35b82116101ad57506040523880808380f35b634e487b7160e01b835260419052602482fd5b6040513d86823e3d90fd5b8480fd5b63497131ed60e01b81528690fd5b8980fd5b8880fd5b8680fd5b8580fd5b8280fdfea264697066735822122009f517e775bb30af3d34ce13d7d23524da60bf9386d1baacf34b23d7d692276164736f6c63430008130033",
  "linkReferences": {},
  "deployedLinkReferences": {}
}