{
  "_format": "hh-sol-artifact-1",
  "contractName": "LimitOrderProtocol",
  "sourceName": "src/e2e-tests/contracts/LimitOrderProtocol.sol",
  "abi": [
    {
      "inputs": [
        {
          "internalType": "contract IWETH",
          "name": "_weth",
          "type": "address"
        }
      ],
      "stateMutability": "nonpayable",
      "type": "constructor"
    },
    {
      "inputs": [],
      "name": "AdvanceEpochFailed",
      "type": "error"
    },
    {
      "inputs": [],
      "name": "ArbitraryStaticCallFailed",
      "type": "error"
    },
    {
      "inputs": [],
      "name": "BadSignature",
      "type": "error"
    },
    {
      "inputs": [],
      "name": "BitInvalidatedOrder",
      "type": "error"
    },
    {
      "inputs": [],
      "name": "ETHTransferFailed",
      "type": "error"
    },
    {
      "inputs": [],
      "name": "EpochManagerAndBitInvalidatorsAreIncompatible",
      "type": "error"
    },
    {
      "inputs": [],
      "name": "EthDepositRejected",
      "type": "error"
    },
    {
      "inputs": [],
      "name": "ExtensionInvalid",
      "type": "error"
    },
    {
      "inputs": [],
      "name": "GetAmountCallFailed",
      "type": "error"
    },
    {
      "inputs": [],
      "name": "InvalidMsgValue",
      "type": "error"
    },
    {
      "inputs": [],
      "name": "InvalidPermit2Transfer",
      "type": "error"
    },
    {
      "inputs": [],
      "name": "InvalidShortString",
      "type": "error"
    },
    {
      "inputs": [],
      "name": "InvalidatedOrder",
      "type": "error"
    },
    {
      "inputs": [],
      "name": "MakingAmountTooLow",
      "type": "error"
    },
    {
      "inputs": [],
      "name": "MismatchArraysLengths",
      "type": "error"
    },
    {
      "inputs": [],
      "name": "MissingOrderExtension",
      "type": "error"
    },
    {
      "inputs": [],
      "name": "OrderExpired",
      "type": "error"
    },
    {
      "inputs": [],
      "name": "OrderIsNotSuitableForMassInvalidation",
      "type": "error"
    },
    {
      "inputs": [],
      "name": "PartialFillNotAllowed",
      "type": "error"
    },
    {
      "inputs": [],
      "name": "Permit2TransferAmountTooHigh",
      "type": "error"
    },
    {
      "inputs": [],
      "name": "PredicateIsNotTrue",
      "type": "error"
    },
    {
      "inputs": [],
      "name": "PrivateOrder",
      "type": "error"
    },
    {
      "inputs": [],
      "name": "ReentrancyDetected",
      "type": "error"
    },
    {
      "inputs": [],
      "name": "RemainingInvalidatedOrder",
      "type": "error"
    },
    {
      "inputs": [],
      "name": "SafeTransferFailed",
      "type": "error"
    },
    {
      "inputs": [],
      "name": "SafeTransferFromFailed",
      "type": "error"
    },
    {
      "inputs": [
        {
          "internalType": "bool",
          "name": "success",
          "type": "bool"
        },
        {
          "internalType": "bytes",
          "name": "res",
          "type": "bytes"
        }
      ],
      "name": "SimulationResults",
      "type": "error"
    },
    {
      "inputs": [
        {
          "internalType": "string",
          "name": "str",
          "type": "string"
        }
      ],
      "name": "StringTooLong",
      "type": "error"
    },
    {
      "inputs": [],
      "name": "SwapWithZeroAmount",
      "type": "error"
    },
    {
      "inputs": [],
      "name": "TakingAmountExceeded",
      "type": "error"
    },
    {
      "inputs": [],
      "name": "TakingAmountTooHigh",
      "type": "error"
    },
    {
      "inputs": [],
      "name": "TransferFromMakerToTakerFailed",
      "type": "error"
    },
    {
      "inputs": [],
      "name": "TransferFromTakerToMakerFailed",
      "type": "error"
    },
    {
      "inputs": [],
      "name": "UnexpectedOrderExtension",
      "type": "error"
    },
    {
      "inputs": [],
      "name": "WrongGetter",
      "type": "error"
    },
    {
      "inputs": [],
      "name": "WrongSeriesNonce",
      "type": "error"
    },
    {
      "anonymous": false,
      "inputs": [],
      "name": "EIP712DomainChanged",
      "type": "event"
    },
    {
      "anonymous": false,
      "inputs": [
        {
          "indexed": true,
          "internalType": "address",
          "name": "maker",
          "type": "address"
        },
        {
          "indexed": false,
          "internalType": "uint256",
          "name": "series",
          "type": "uint256"
        },
        {
          "indexed": false,
          "internalType": "uint256",
          "name": "newNonce",
          "type": "uint256"
        }
      ],
      "name": "EpochIncreased",
      "type": "event"
    },
    {
      "anonymous": false,
      "inputs": [
        {
          "indexed": false,
          "internalType": "bytes32",
          "name": "orderHash",
          "type": "bytes32"
        },
        {
          "indexed": false,
          "internalType": "uint256",
          "name": "makingAmount",
          "type": "uint256"
        }
      ],
      "name": "OrderFilled",
      "type": "event"
    },
    {
      "inputs": [],
      "name": "DOMAIN_SEPARATOR",
      "outputs": [
        {
          "internalType": "bytes32",
          "name": "",
          "type": "bytes32"
        }
      ],
      "stateMutability": "view",
      "type": "function"
    },
    {
      "inputs": [
        {
          "internalType": "uint96",
          "name": "series",
          "type": "uint96"
        },
        {
          "internalType": "uint256",
          "name": "amount",
          "type": "uint256"
        }
      ],
      "name": "advanceEpoch",
      "outputs": [],
      "stateMutability": "nonpayable",
      "type": "function"
    },
    {
      "inputs": [
        {
          "internalType": "uint256",
          "name": "offsets",
          "type": "uint256"
        },
        {
          "internalType": "bytes",
          "name": "data",
          "type": "bytes"
        }
      ],
      "name": "and",
      "outputs": [
        {
          "internalType": "bool",
          "name": "",
          "type": "bool"
        }
      ],
      "stateMutability": "view",
      "type": "function"
    },
    {
      "inputs": [
        {
          "internalType": "address",
          "name": "target",
          "type": "address"
        },
        {
          "internalType": "bytes",
          "name": "data",
          "type": "bytes"
        }
      ],
      "name": "arbitraryStaticCall",
      "outputs": [
        {
          "internalType": "uint256",
          "name": "",
          "type": "uint256"
        }
      ],
      "stateMutability": "view",
      "type": "function"
    },
    {
      "inputs": [
        {
          "internalType": "address",
          "name": "maker",
          "type": "address"
        },
        {
          "internalType": "uint256",
          "name": "slot",
          "type": "uint256"
        }
      ],
      "name": "bitInvalidatorForOrder",
      "outputs": [
        {
          "internalType": "uint256",
          "name": "",
          "type": "uint256"
        }
      ],
      "stateMutability": "view",
      "type": "function"
    },
    {
      "inputs": [
        {
          "internalType": "MakerTraits",
          "name": "makerTraits",
          "type": "uint256"
        },
        {
          "internalType": "uint256",
          "name": "additionalMask",
          "type": "uint256"
        }
      ],
      "name": "bitsInvalidateForOrder",
      "outputs": [],
      "stateMutability": "nonpayable",
      "type": "function"
    },
    {
      "inputs": [
        {
          "internalType": "MakerTraits",
          "name": "makerTraits",
          "type": "uint256"
        },
        {
          "internalType": "bytes32",
          "name": "orderHash",
          "type": "bytes32"
        }
      ],
      "name": "cancelOrder",
      "outputs": [],
      "stateMutability": "nonpayable",
      "type": "function"
    },
    {
      "inputs": [
        {
          "internalType": "MakerTraits[]",
          "name": "makerTraits",
          "type": "uint256[]"
        },
        {
          "internalType": "bytes32[]",
          "name": "orderHashes",
          "type": "bytes32[]"
        }
      ],
      "name": "cancelOrders",
      "outputs": [],
      "stateMutability": "nonpayable",
      "type": "function"
    },
    {
      "inputs": [
        {
          "internalType": "bytes",
          "name": "predicate",
          "type": "bytes"
        }
      ],
      "name": "checkPredicate",
      "outputs": [
        {
          "internalType": "bool",
          "name": "",
          "type": "bool"
        }
      ],
      "stateMutability": "view",
      "type": "function"
    },
    {
      "inputs": [],
      "name": "eip712Domain",
      "outputs": [
        {
          "internalType": "bytes1",
          "name": "fields",
          "type": "bytes1"
        },
        {
          "internalType": "string",
          "name": "name",
          "type": "string"
        },
        {
          "internalType": "string",
          "name": "version",
          "type": "string"
        },
        {
          "internalType": "uint256",
          "name": "chainId",
          "type": "uint256"
        },
        {
          "internalType": "address",
          "name": "verifyingContract",
          "type": "address"
        },
        {
          "internalType": "bytes32",
          "name": "salt",
          "type": "bytes32"
        },
        {
          "internalType": "uint256[]",
          "name": "extensions",
          "type": "uint256[]"
        }
      ],
      "stateMutability": "view",
      "type": "function"
    },
    {
      "inputs": [
        {
          "internalType": "address",
          "name": "maker",
          "type": "address"
        },
        {
          "internalType": "uint96",
          "name": "series",
          "type": "uint96"
        }
      ],
      "name": "epoch",
      "outputs": [
        {
          "internalType": "uint256",
          "name": "",
          "type": "uint256"
        }
      ],
      "stateMutability": "view",
      "type": "function"
    },
    {
      "inputs": [
        {
          "internalType": "address",
          "name": "maker",
          "type": "address"
        },
        {
          "internalType": "uint256",
          "name": "series",
          "type": "uint256"
        },
        {
          "internalType": "uint256",
          "name": "makerNonce",
          "type": "uint256"
        }
      ],
      "name": "epochEquals",
      "outputs": [
        {
          "internalType": "bool",
          "name": "",
          "type": "bool"
        }
      ],
      "stateMutability": "view",
      "type": "function"
    },
    {
      "inputs": [
        {
          "internalType": "uint256",
          "name": "value",
          "type": "uint256"
        },
        {
          "internalType": "bytes",
          "name": "data",
          "type": "bytes"
        }
      ],
      "name": "eq",
      "outputs": [
        {
          "internalType": "bool",
          "name": "",
          "type": "bool"
        }
      ],
      "stateMutability": "view",
      "type": "function"
    },
    {
      "inputs": [
        {
          "components": [
            {
              "internalType": "uint256",
              "name": "salt",
              "type": "uint256"
            },
            {
              "internalType": "Address",
              "name": "maker",
              "type": "uint256"
            },
            {
              "internalType": "Address",
              "name": "receiver",
              "type": "uint256"
            },
            {
              "internalType": "Address",
              "name": "makerAsset",
              "type": "uint256"
            },
            {
              "internalType": "Address",
              "name": "takerAsset",
              "type": "uint256"
            },
            {
              "internalType": "uint256",
              "name": "makingAmount",
              "type": "uint256"
            },
            {
              "internalType": "uint256",
              "name": "takingAmount",
              "type": "uint256"
            },
            {
              "internalType": "MakerTraits",
              "name": "makerTraits",
              "type": "uint256"
            }
          ],
          "internalType": "struct IOrderMixin.Order",
          "name": "order",
          "type": "tuple"
        },
        {
          "internalType": "bytes",
          "name": "signature",
          "type": "bytes"
        },
        {
          "internalType": "uint256",
          "name": "amount",
          "type": "uint256"
        },
        {
          "internalType": "TakerTraits",
          "name": "takerTraits",
          "type": "uint256"
        },
        {
          "internalType": "address",
          "name": "target",
          "type": "address"
        },
        {
          "internalType": "bytes",
          "name": "interaction",
          "type": "bytes"
        }
      ],
      "name": "fillContractOrder",
      "outputs": [
        {
          "internalType": "uint256",
          "name": "",
          "type": "uint256"
        },
        {
          "internalType": "uint256",
          "name": "",
          "type": "uint256"
        },
        {
          "internalType": "bytes32",
          "name": "",
          "type": "bytes32"
        }
      ],
      "stateMutability": "nonpayable",
      "type": "function"
    },
    {
      "inputs": [
        {
          "components": [
            {
              "internalType": "uint256",
              "name": "salt",
              "type": "uint256"
            },
            {
              "internalType": "Address",
              "name": "maker",
              "type": "uint256"
            },
            {
              "internalType": "Address",
              "name": "receiver",
              "type": "uint256"
            },
            {
              "internalType": "Address",
              "name": "makerAsset",
              "type": "uint256"
            },
            {
              "internalType": "Address",
              "name": "takerAsset",
              "type": "uint256"
            },
            {
              "internalType": "uint256",
              "name": "makingAmount",
              "type": "uint256"
            },
            {
              "internalType": "uint256",
              "name": "takingAmount",
              "type": "uint256"
            },
            {
              "internalType": "MakerTraits",
              "name": "makerTraits",
              "type": "uint256"
            }
          ],
          "internalType": "struct IOrderMixin.Order",
          "name": "order",
          "type": "tuple"
        },
        {
          "internalType": "bytes",
          "name": "signature",
          "type": "bytes"
        },
        {
          "internalType": "uint256",
          "name": "amount",
          "type": "uint256"
        },
        {
          "internalType": "TakerTraits",
          "name": "takerTraits",
          "type": "uint256"
        },
        {
          "internalType": "address",
          "name": "target",
          "type": "address"
        },
        {
          "internalType": "bytes",
          "name": "permit",
          "type": "bytes"
        },
        {
          "internalType": "bytes",
          "name": "extension",
          "type": "bytes"
        },
        {
          "internalType": "bytes",
          "name": "interaction",
          "type": "bytes"
        }
      ],
      "name": "fillContractOrderExt",
      "outputs": [
        {
          "internalType": "uint256",
          "name": "makingAmount",
          "type": "uint256"
        },
        {
          "internalType": "uint256",
          "name": "takingAmount",
          "type": "uint256"
        },
        {
          "internalType": "bytes32",
          "name": "orderHash",
          "type": "bytes32"
        }
      ],
      "stateMutability": "nonpayable",
      "type": "function"
    },
    {
      "inputs": [
        {
          "components": [
            {
              "internalType": "uint256",
              "name": "salt",
              "type": "uint256"
            },
            {
              "internalType": "Address",
              "name": "maker",
              "type": "uint256"
            },
            {
              "internalType": "Address",
              "name": "receiver",
              "type": "uint256"
            },
            {
              "internalType": "Address",
              "name": "makerAsset",
              "type": "uint256"
            },
            {
              "internalType": "Address",
              "name": "takerAsset",
              "type": "uint256"
            },
            {
              "internalType": "uint256",
              "name": "makingAmount",
              "type": "uint256"
            },
            {
              "internalType": "uint256",
              "name": "takingAmount",
              "type": "uint256"
            },
            {
              "internalType": "MakerTraits",
              "name": "makerTraits",
              "type": "uint256"
            }
          ],
          "internalType": "struct IOrderMixin.Order",
          "name": "order",
          "type": "tuple"
        },
        {
          "internalType": "bytes",
          "name": "signature",
          "type": "bytes"
        },
        {
          "internalType": "uint256",
          "name": "amount",
          "type": "uint256"
        },
        {
          "internalType": "TakerTraits",
          "name": "takerTraits",
          "type": "uint256"
        },
        {
          "internalType": "address",
          "name": "target",
          "type": "address"
        },
        {
          "internalType": "bytes",
          "name": "permit",
          "type": "bytes"
        },
        {
          "internalType": "bytes",
          "name": "interaction",
          "type": "bytes"
        }
      ],
      "name": "fillContractOrderWithPermit",
      "outputs": [
        {
          "internalType": "uint256",
          "name": "",
          "type": "uint256"
        },
        {
          "internalType": "uint256",
          "name": "",
          "type": "uint256"
        },
        {
          "internalType": "bytes32",
          "name": "",
          "type": "bytes32"
        }
      ],
      "stateMutability": "nonpayable",
      "type": "function"
    },
    {
      "inputs": [
        {
          "components": [
            {
              "internalType": "uint256",
              "name": "salt",
              "type": "uint256"
            },
            {
              "internalType": "Address",
              "name": "maker",
              "type": "uint256"
            },
            {
              "internalType": "Address",
              "name": "receiver",
              "type": "uint256"
            },
            {
              "internalType": "Address",
              "name": "makerAsset",
              "type": "uint256"
            },
            {
              "internalType": "Address",
              "name": "takerAsset",
              "type": "uint256"
            },
            {
              "internalType": "uint256",
              "name": "makingAmount",
              "type": "uint256"
            },
            {
              "internalType": "uint256",
              "name": "takingAmount",
              "type": "uint256"
            },
            {
              "internalType": "MakerTraits",
              "name": "makerTraits",
              "type": "uint256"
            }
          ],
          "internalType": "struct IOrderMixin.Order",
          "name": "order",
          "type": "tuple"
        },
        {
          "internalType": "bytes32",
          "name": "r",
          "type": "bytes32"
        },
        {
          "internalType": "bytes32",
          "name": "vs",
          "type": "bytes32"
        },
        {
          "internalType": "uint256",
          "name": "amount",
          "type": "uint256"
        },
        {
          "internalType": "TakerTraits",
          "name": "takerTraits",
          "type": "uint256"
        }
      ],
      "name": "fillOrder",
      "outputs": [
        {
          "internalType": "uint256",
          "name": "",
          "type": "uint256"
        },
        {
          "internalType": "uint256",
          "name": "",
          "type": "uint256"
        },
        {
          "internalType": "bytes32",
          "name": "",
          "type": "bytes32"
        }
      ],
      "stateMutability": "payable",
      "type": "function"
    },
    {
      "inputs": [
        {
          "components": [
            {
              "internalType": "uint256",
              "name": "salt",
              "type": "uint256"
            },
            {
              "internalType": "Address",
              "name": "maker",
              "type": "uint256"
            },
            {
              "internalType": "Address",
              "name": "receiver",
              "type": "uint256"
            },
            {
              "internalType": "Address",
              "name": "makerAsset",
              "type": "uint256"
            },
            {
              "internalType": "Address",
              "name": "takerAsset",
              "type": "uint256"
            },
            {
              "internalType": "uint256",
              "name": "makingAmount",
              "type": "uint256"
            },
            {
              "internalType": "uint256",
              "name": "takingAmount",
              "type": "uint256"
            },
            {
              "internalType": "MakerTraits",
              "name": "makerTraits",
              "type": "uint256"
            }
          ],
          "internalType": "struct IOrderMixin.Order",
          "name": "order",
          "type": "tuple"
        },
        {
          "internalType": "bytes32",
          "name": "r",
          "type": "bytes32"
        },
        {
          "internalType": "bytes32",
          "name": "vs",
          "type": "bytes32"
        },
        {
          "internalType": "uint256",
          "name": "amount",
          "type": "uint256"
        },
        {
          "internalType": "TakerTraits",
          "name": "takerTraits",
          "type": "uint256"
        },
        {
          "internalType": "bytes",
          "name": "extension",
          "type": "bytes"
        }
      ],
      "name": "fillOrderExt",
      "outputs": [
        {
          "internalType": "uint256",
          "name": "",
          "type": "uint256"
        },
        {
          "internalType": "uint256",
          "name": "",
          "type": "uint256"
        },
        {
          "internalType": "bytes32",
          "name": "",
          "type": "bytes32"
        }
      ],
      "stateMutability": "payable",
      "type": "function"
    },
    {
      "inputs": [
        {
          "components": [
            {
              "internalType": "uint256",
              "name": "salt",
              "type": "uint256"
            },
            {
              "internalType": "Address",
              "name": "maker",
              "type": "uint256"
            },
            {
              "internalType": "Address",
              "name": "receiver",
              "type": "uint256"
            },
            {
              "internalType": "Address",
              "name": "makerAsset",
              "type": "uint256"
            },
            {
              "internalType": "Address",
              "name": "takerAsset",
              "type": "uint256"
            },
            {
              "internalType": "uint256",
              "name": "makingAmount",
              "type": "uint256"
            },
            {
              "internalType": "uint256",
              "name": "takingAmount",
              "type": "uint256"
            },
            {
              "internalType": "MakerTraits",
              "name": "makerTraits",
              "type": "uint256"
            }
          ],
          "internalType": "struct IOrderMixin.Order",
          "name": "order",
          "type": "tuple"
        },
        {
          "internalType": "bytes32",
          "name": "r",
          "type": "bytes32"
        },
        {
          "internalType": "bytes32",
          "name": "vs",
          "type": "bytes32"
        },
        {
          "internalType": "uint256",
          "name": "amount",
          "type": "uint256"
        },
        {
          "internalType": "TakerTraits",
          "name": "takerTraits",
          "type": "uint256"
        },
        {
          "internalType": "address",
          "name": "target",
          "type": "address"
        },
        {
          "internalType": "bytes",
          "name": "interaction",
          "type": "bytes"
        }
      ],
      "name": "fillOrderTo",
      "outputs": [
        {
          "internalType": "uint256",
          "name": "",
          "type": "uint256"
        },
        {
          "internalType": "uint256",
          "name": "",
          "type": "uint256"
        },
        {
          "internalType": "bytes32",
          "name": "",
          "type": "bytes32"
        }
      ],
      "stateMutability": "payable",
      "type": "function"
    },
    {
      "inputs": [
        {
          "components": [
            {
              "internalType": "uint256",
              "name": "salt",
              "type": "uint256"
            },
            {
              "internalType": "Address",
              "name": "maker",
              "type": "uint256"
            },
            {
              "internalType": "Address",
              "name": "receiver",
              "type": "uint256"
            },
            {
              "internalType": "Address",
              "name": "makerAsset",
              "type": "uint256"
            },
            {
              "internalType": "Address",
              "name": "takerAsset",
              "type": "uint256"
            },
            {
              "internalType": "uint256",
              "name": "makingAmount",
              "type": "uint256"
            },
            {
              "internalType": "uint256",
              "name": "takingAmount",
              "type": "uint256"
            },
            {
              "internalType": "MakerTraits",
              "name": "makerTraits",
              "type": "uint256"
            }
          ],
          "internalType": "struct IOrderMixin.Order",
          "name": "order",
          "type": "tuple"
        },
        {
          "internalType": "bytes32",
          "name": "r",
          "type": "bytes32"
        },
        {
          "internalType": "bytes32",
          "name": "vs",
          "type": "bytes32"
        },
        {
          "internalType": "uint256",
          "name": "amount",
          "type": "uint256"
        },
        {
          "internalType": "TakerTraits",
          "name": "takerTraits",
          "type": "uint256"
        },
        {
          "internalType": "address",
          "name": "target",
          "type": "address"
        },
        {
          "internalType": "bytes",
          "name": "extension",
          "type": "bytes"
        },
        {
          "internalType": "bytes",
          "name": "interaction",
          "type": "bytes"
        }
      ],
      "name": "fillOrderToExt",
      "outputs": [
        {
          "internalType": "uint256",
          "name": "makingAmount",
          "type": "uint256"
        },
        {
          "internalType": "uint256",
          "name": "takingAmount",
          "type": "uint256"
        },
        {
          "internalType": "bytes32",
          "name": "orderHash",
          "type": "bytes32"
        }
      ],
      "stateMutability": "payable",
      "type": "function"
    },
    {
      "inputs": [
        {
          "components": [
            {
              "internalType": "uint256",
              "name": "salt",
              "type": "uint256"
            },
            {
              "internalType": "Address",
              "name": "maker",
              "type": "uint256"
            },
            {
              "internalType": "Address",
              "name": "receiver",
              "type": "uint256"
            },
            {
              "internalType": "Address",
              "name": "makerAsset",
              "type": "uint256"
            },
            {
              "internalType": "Address",
              "name": "takerAsset",
              "type": "uint256"
            },
            {
              "internalType": "uint256",
              "name": "makingAmount",
              "type": "uint256"
            },
            {
              "internalType": "uint256",
              "name": "takingAmount",
              "type": "uint256"
            },
            {
              "internalType": "MakerTraits",
              "name": "makerTraits",
              "type": "uint256"
            }
          ],
          "internalType": "struct IOrderMixin.Order",
          "name": "order",
          "type": "tuple"
        },
        {
          "internalType": "bytes32",
          "name": "r",
          "type": "bytes32"
        },
        {
          "internalType": "bytes32",
          "name": "vs",
          "type": "bytes32"
        },
        {
          "internalType": "uint256",
          "name": "amount",
          "type": "uint256"
        },
        {
          "internalType": "TakerTraits",
          "name": "takerTraits",
          "type": "uint256"
        },
        {
          "internalType": "address",
          "name": "target",
          "type": "address"
        },
        {
          "internalType": "bytes",
          "name": "permit",
          "type": "bytes"
        },
        {
          "internalType": "bytes",
          "name": "interaction",
          "type": "bytes"
        }
      ],
      "name": "fillOrderToWithPermit",
      "outputs": [
        {
          "internalType": "uint256",
          "name": "",
          "type": "uint256"
        },
        {
          "internalType": "uint256",
          "name": "",
          "type": "uint256"
        },
        {
          "internalType": "bytes32",
          "name": "",
          "type": "bytes32"
        }
      ],
      "stateMutability": "nonpayable",
      "type": "function"
    },
    {
      "inputs": [
        {
          "internalType": "uint256",
          "name": "value",
          "type": "uint256"
        },
        {
          "internalType": "bytes",
          "name": "data",
          "type": "bytes"
        }
      ],
      "name": "gt",
      "outputs": [
        {
          "internalType": "bool",
          "name": "",
          "type": "bool"
        }
      ],
      "stateMutability": "view",
      "type": "function"
    },
    {
      "inputs": [
        {
          "components": [
            {
              "internalType": "uint256",
              "name": "salt",
              "type": "uint256"
            },
            {
              "internalType": "Address",
              "name": "maker",
              "type": "uint256"
            },
            {
              "internalType": "Address",
              "name": "receiver",
              "type": "uint256"
            },
            {
              "internalType": "Address",
              "name": "makerAsset",
              "type": "uint256"
            },
            {
              "internalType": "Address",
              "name": "takerAsset",
              "type": "uint256"
            },
            {
              "internalType": "uint256",
              "name": "makingAmount",
              "type": "uint256"
            },
            {
              "internalType": "uint256",
              "name": "takingAmount",
              "type": "uint256"
            },
            {
              "internalType": "MakerTraits",
              "name": "makerTraits",
              "type": "uint256"
            }
          ],
          "internalType": "struct IOrderMixin.Order",
          "name": "order",
          "type": "tuple"
        }
      ],
      "name": "hashOrder",
      "outputs": [
        {
          "internalType": "bytes32",
          "name": "",
          "type": "bytes32"
        }
      ],
      "stateMutability": "view",
      "type": "function"
    },
    {
      "inputs": [
        {
          "internalType": "uint96",
          "name": "series",
          "type": "uint96"
        }
      ],
      "name": "increaseEpoch",
      "outputs": [],
      "stateMutability": "nonpayable",
      "type": "function"
    },
    {
      "inputs": [
        {
          "internalType": "uint256",
          "name": "value",
          "type": "uint256"
        },
        {
          "internalType": "bytes",
          "name": "data",
          "type": "bytes"
        }
      ],
      "name": "lt",
      "outputs": [
        {
          "internalType": "bool",
          "name": "",
          "type": "bool"
        }
      ],
      "stateMutability": "view",
      "type": "function"
    },
    {
      "inputs": [
        {
          "internalType": "bytes",
          "name": "data",
          "type": "bytes"
        }
      ],
      "name": "not",
      "outputs": [
        {
          "internalType": "bool",
          "name": "",
          "type": "bool"
        }
      ],
      "stateMutability": "view",
      "type": "function"
    },
    {
      "inputs": [
        {
          "internalType": "uint256",
          "name": "offsets",
          "type": "uint256"
        },
        {
          "internalType": "bytes",
          "name": "data",
          "type": "bytes"
        }
      ],
      "name": "or",
      "outputs": [
        {
          "internalType": "bool",
          "name": "",
          "type": "bool"
        }
      ],
      "stateMutability": "view",
      "type": "function"
    },
    {
      "inputs": [
        {
          "internalType": "address",
          "name": "maker",
          "type": "address"
        },
        {
          "internalType": "bytes32",
          "name": "orderHash",
          "type": "bytes32"
        }
      ],
      "name": "rawRemainingInvalidatorForOrder",
      "outputs": [
        {
          "internalType": "uint256",
          "name": "",
          "type": "uint256"
        }
      ],
      "stateMutability": "view",
      "type": "function"
    },
    {
      "inputs": [
        {
          "internalType": "address",
          "name": "maker",
          "type": "address"
        },
        {
          "internalType": "bytes32",
          "name": "orderHash",
          "type": "bytes32"
        }
      ],
      "name": "remainingInvalidatorForOrder",
      "outputs": [
        {
          "internalType": "uint256",
          "name": "",
          "type": "uint256"
        }
      ],
      "stateMutability": "view",
      "type": "function"
    },
    {
      "inputs": [
        {
          "internalType": "address",
          "name": "target",
          "type": "address"
        },
        {
          "internalType": "bytes",
          "name": "data",
          "type": "bytes"
        }
      ],
      "name": "simulate",
      "outputs": [],
      "stateMutability": "nonpayable",
      "type": "function"
    },
    {
      "stateMutability": "payable",
      "type": "receive"
    }
  ],
  "bytecode": "0x6101a0346200029a57601f6200639d38819003918201601f19168301926001600160401b0392909183851183861017620002845781602092849260409788528339810103126200029a57516001600160a01b0381168082036200029a57835162000069816200029f565b601a8152602081017f31696e6368204c696d6974204f726465722050726f746f636f6c00000000000081528551620000a1816200029f565b6001815260208101600d60fa1b8152620000bb84620002bb565b92610120938452620000cd836200048e565b94610140958652519020918260e052519020610100978189524660a05280519160208301937f8b73c3c69bb8fe3d512ecc4cf759cc79239f7b179b0ffacaa9a75d522b39400f85528284015260608301524660808301523060a083015260a0825260c08201978289109089111762000284578790525190206080523060c052610160928352610180938452615d6195866200063c873960805186614738015260a05186614803015260c05186614702015260e05186614787015251856147ad015251846128080152518361283101525182601d01525181818161068501528181610707015281816108d301528181610931015281816109c101528181610b710152818161119a01528181611210015281816112a0015281816113560152818161187b01528181611fac0152818161202701528181612184015281816121e201528181612224015281816122be0152818161244601528181612bce01528181612c6601528181612e1801528181612e7601528181612eb801528181612f700152818161311f01528181613954015281816139e501528181613b0d01528181613b6b01528181613be201528181613d730152614f410152f35b634e487b7160e01b600052604160045260246000fd5b600080fd5b604081019081106001600160401b038211176200028457604052565b805160209190828110156200035a575090601f825111620002f95780825192015190808310620002ea57501790565b82600019910360031b1b161790565b90604051809263305a27a960e01b82528060048301528251908160248401526000935b82851062000340575050604492506000838284010152601f80199101168101030190fd5b84810182015186860160440152938101938593506200031c565b6001600160401b03811162000284576000928354926001938481811c9116801562000483575b838210146200046f57601f811162000439575b5081601f8411600114620003d257509282939183928694620003c6575b50501b916000199060031b1c191617905560ff90565b015192503880620003b0565b919083601f1981168780528488209488905b888383106200041e575050501062000404575b505050811b01905560ff90565b015160001960f88460031b161c19169055388080620003f7565b858701518855909601959485019487935090810190620003e4565b85805284601f848820920160051c820191601f860160051c015b8281106200046357505062000393565b87815501859062000453565b634e487b7160e01b86526022600452602486fd5b90607f169062000380565b8051602090818110156200051c5750601f825111620004bb5780825192015190808310620002ea57501790565b90604051809263305a27a960e01b82528060048301528251908160248401526000935b82851062000502575050604492506000838284010152601f80199101168101030190fd5b8481018201518686016044015293810193859350620004de565b9192916001600160401b038111620002845760019182548381811c9116801562000630575b828210146200061a57601f8111620005e1575b5080601f83116001146200059457508192939460009262000588575b5050600019600383901b1c191690821b17905560ff90565b01519050388062000570565b90601f198316958460005282600020926000905b888210620005c957505083859697106200040457505050811b01905560ff90565b808785968294968601518155019501930190620005a8565b8360005283601f83600020920160051c820191601f850160051c015b8281106200060d57505062000554565b60008155018490620005fd565b634e487b7160e01b600052602260045260246000fd5b90607f16906200054156fe608080604052600436101561005f575b50361561001b57600080fd5b7f00000000000000000000000000000000000000000000000000000000000000006001600160a01b0316330361004d57005b604051631b10b0f960e01b8152600490fd5b60003560e01c90816305b1ea031461429b575080630bb1fccc146141f05780630d2c7c161461414c578063143e86a71461410157806315169dec146140b15780633644e5151461408e578063381422521461377b578063435b9789146137165780634f38e2b8146136e557806366007445146135ba57806368f4d7f6146129ba5780636fe7b0ba146129895780637426114514612970578063802b2ef11461291157806384b0196e146127f257806389e7c6501461275757806389ebf3fc14611de95780639fda64bd1461170d578063b68fb020146116ec578063b709a63a14610fec578063b7c07d7c1461044c578063bd61951d146103f1578063bf15fcd8146103b7578063bf79795914610361578063bfa7514314610348578063c2a4075314610300578063c3cf804314610287578063ca4ece221461024b578063ce3d710a146102165763fcea9e4e146101b6573861000f565b34610211576040366003190112610211576101cf61434e565b6024356001600160601b03811681036102115760018060a01b03199060a01b169060018060a01b03161760005260026020526020604060002054604051908152f35b600080fd5b3461021157606036600319011261021157602061024161023461434e565b6044359060243590615ae9565b6040519015158152f35b3461021157602061026861025e366143fa565b9092919230615ac3565b8192919261027d575b50506040519015158152f35b1090508280610271565b34610211576020366003190112610211576102a0614364565b60018060a01b03198160a01b1633176000526002602052604060002060018154018091556001600160601b036040519216825260208201527f099133aefc2c2d1e56f8ef3622ec8e80979a0713fc9c4e1497740efcf809939660403392a2005b34610211576040366003190112610211576001600160a01b0361032161434e565b16600052600460205260406000206024356000526020526020604060002054604051908152f35b3461021157602061024161035b366143fa565b91615a63565b34610211576020366003190112610211576004356001600160401b0381116102115761039d610396602092369060040161430a565b9030615ac3565b816103ae575b506040519015158152f35b905015826103a3565b34610211576103ce6103c836614499565b91615ac3565b90156103df57602090604051908152f35b604051631f1b8f6160e01b8152600490fd5b346102115760008061040236614499565b90816040519283928337810184815203915af461041d614829565b6040805163032695f960e31b8152921515600484015260248301528190610448906044830190614429565b0390fd5b346102115736600319016101e081126102115761010013610211576001600160401b03610104358181116102115761048890369060040161430a565b610493929192614337565b61018435838111610211576104ac90369060040161430a565b9490936101a435818111610211576104c890369060040161430a565b916101c43511610211576104e2366101c43560040161430a565b96909780610fd0575b50506104f7828261499c565b6105076105026146ff565b6148e4565b94610511866157af565b9360a4358514610f3a575b509395600094506001600160a01b03871615610f32575b6001600160501b038060e435168015918215610f26575b505015610f145764ffffffffff60e43560501c168015159081610f0a575b50610ef85760e435600160fa1b16610e96575b82610e45575b61014435600160ff1b1615610d8f57836101243510600014610d885761012435975b88976105b288878c8888615686565b99610144356001600160fc1b03169081610d2e575b50505b60e435600160ff1b16151580610d22575b610d105789890215610cfe576105f260e435615cb7565b15610cce576024356001600160a01b0316600090815260036020908152604080832060e435608081901c63ffffffff168552928190529220549190600160789190911c60ff161b80831614610cbc5763ffffffff60e43560801c16600052602052600160ff60e43560781c161b176040600020555b60e435600160fc1b16610bf1575b6064356001600160a01b039081167f00000000000000000000000000000000000000000000000000000000000000009091161480610bdf575b8015610bd957305b8a60e435600160f81b1615610b9b57506106d08787615b8c565b90506109ea576106f3908b906001600160a01b03602435811690606435166154f7565b610b6a575b506014821015610a54575b50507f00000000000000000000000000000000000000000000000000000000000000006001600160a01b03908116608435909116908114908180610a4c575b15610973575050866109615760e435600160f71b16156108a757838080808a6107696155d6565b611388f1610775614829565b5015610895575b60e435600160fb1b166107ce575b86866107ca87600080516020615cec83398151915260408051838152856020820152a1604051938493846040919493926060820195825260208201520152565b0390f35b906107d891615bed565b6024356001600160a01b0316818360138211610869575b50506001600160a01b031691823b15610865576040516303ad43df60e21b81529385938593909284928692849261082d928e8e338f60048901614d9f565b03925af1801561085a57610843575b808061078a565b61084d82916144d8565b610857578061083c565b80fd5b6040513d84823e3d90fd5b8480fd5b8194508093506108799250614c75565b60601c90826014116108655760140191601319019088806107ef565b60405163b12d13eb60e01b8152600490fd5b60208460446108b46155d6565b60405163a9059cbb60e01b81526004810191909152602481018b9052827f00000000000000000000000000000000000000000000000000000000000000006001600160a01b03165af180610919575b61077c5760405163fb7f507960e01b8152600490fd5b503d1561092f576001845114601f3d1116610903565b7f00000000000000000000000000000000000000000000000000000000000000006001600160a01b03163b1515610903565b604051631841b4e160e01b8152600490fd5b81610a3a575b8115610a2c5730905b61014435600160fc1b16156109fc5761099b8585615bbd565b90506109ea576109ae918a9133906154f7565b1561077c576109e56109be6155d6565b887f0000000000000000000000000000000000000000000000000000000000000000615582565b61077c565b6040516301577e8360e51b8152600490fd5b90610a16918a610a0c8787615bbd565b9390923390615927565b6109ae5760405163478a520560e01b8152600490fd5b610a346155d6565b90610982565b60e435600160f71b1615159150610979565b506000610742565b610a5e8282614c75565b60601c9180601411610b6657610ab99285888a610aeb8d8f9760148b988e60209b6040519d8e9c8d9b8c9a63691343df60e11b8c52610a9f60048d01614ca6565b6101048c01526101e06101248c01526101e48b0191614d30565b95336101448a01526101648901526101848801526101a4870152600319868503016101c4870152601319019101614d30565b03925af1908115610b5b578591610b2a575b5087811180610b1a575b610b12575b80610703565b965087610b0c565b5060e435600160fd1b1615610b07565b90506020813d8211610b53575b81610b4460209383614506565b81010312610211575188610afd565b3d9150610b37565b6040513d87823e3d90fd5b8680fd5b610b9590897f0000000000000000000000000000000000000000000000000000000000000000615582565b896106f8565b610bc391610ba98989615b8c565b9290916001600160a01b0360243581169060643516615927565b6106f357604051630e1407e960e31b8152600490fd5b816106b6565b5061014435600160fe1b1615156106ae565b610bfb8585615b59565b6024356001600160a01b031691808260138111610c91575b50506001600160a01b0383163b156102115788928c60008f93610c538f91968397604051998a9889978896630b148b5560e31b8852339060048901614d9f565b03926001600160a01b03165af18015610c8557610c71575b50610675565b610c7c9197506144d8565b6000958a610c6b565b6040513d6000823e3d90fd5b9250925050610ca08183614c75565b60601c9181601411610211576014019060131901908d80610c13565b60405163527b154b60e11b8152600490fd5b60018060a01b03602435166000526004602052604060002088600052602052600189870301604060002055610667565b604051637dd2d13b60e11b8152600490fd5b6040516323bc005f60e21b8152600490fd5b5060a4358914156105db565b610124358103610d5957508a11610d47575b8a806105c7565b60405163fb8ae12960e01b8152600490fd5b610d7090610d6a610124358e614c4c565b92614c4c565b1015610d405760405163fb8ae12960e01b8152600490fd5b83976105a3565b61012435978897610da388878c888861561c565b98868a11610e16575b610144356001600160fc1b03169081610dc7575b50506105ca565b8b818103610df15750508910610ddf575b8a80610dc0565b60405163240f51c960e11b8152600490fd5b610d6a610dfe928d614c4c565b1115610dd85760405163240f51c960e11b8152600490fd5b995097508497610e298887808888615686565b99808b1115610dac575b604051637f902a9360e01b8152600490fd5b610e4f8383615b0c565b80610e5c575b5050610581565b610e669130615ac3565b81610e8b575b5015610e79578880610e55565b604051635b314e0160e11b8152600490fd5b600191501489610e6c565b610ea160e435615cb7565b610ee657610ecf60e435607881901c64ffffffffff9081169160a01c166024356001600160a01b0316615ae9565b61057b575b6040516371f4582960e11b8152600490fd5b604051639e744e2560e01b8152600490fd5b6040516362b439dd60e11b8152600490fd5b9050421189610568565b604051636a6fed7f60e11b8152600490fd5b3316149050898061054a565b339650610533565b6020600080936040519080630b135d3f60e11b958684528c6004850152604060248501528160448501526064840137606401906024356001600160a01b03165afa610fbf575b5015610fad5761014435600160fd1b1615610f9d575b878061051c565b610fa882828761586d565b610f96565b604051635cd5d23360e01b8152600490fd5b600051143d60201416905088610f80565b610fe5916084356001600160a01b0316614a09565b87806104eb565b36600319016101a0811261021157610100136102115761012435610184356001600160401b0381116102115761102690369060040161430a565b6110328183949361499c565b61103d6105026146ff565b90611047826157af565b9260a435841461162e575b5033926000918415611629575b6001600160501b038060e43516801591821561161d575b505015610f145764ffffffffff8060e43560501c168015159081611613575b50610ef85760e435600160fa1b166115d2575b5080611593575b61016435600160ff1b16156114f0578161014435106000146114e95761014435955b86956110e086858a8686615686565b97610164356001600160fc1b031690816114a7575b50505b60e435600160ff1b1615158061149b575b610d105787870215610cfe5761112060e435615cb7565b1561146b5760018060a01b03602435166000526003602052604060002063ffffffff60e43560801c16600160ff60e43560781c161b918160005280602052604060002054918380841614610cbc57600052602052176040600020555b60e435600160fc1b166113bc575b6064356001600160a01b039081167f000000000000000000000000000000000000000000000000000000000000000090911614806113aa575b80156113a457305b8860e435600160f81b161561138057506111e58585615b8c565b90506109ea576112089089906001600160a01b03602435811690606435166154f7565b61134f575b507f00000000000000000000000000000000000000000000000000000000000000006001600160a01b03908116608435909116908114908180611346575b156112f9575050863410610961578634116112ce575b60e435600160f71b161561127c57838080808a6107696155d6565b8661128e5760208460446108b46155d6565b630d0e30db60e41b845283806004818a7f00000000000000000000000000000000000000000000000000000000000000005af16108a757833d81803e3d90fd5b838080808a340333611388f16112e2614829565b506112615760405163b12d13eb60e01b8152600490fd5b346109615781611334575b81156113265730905b61016435600160fc1b16156109fc5761099b8585615bbd565b61132e6155d6565b9061130d565b60e435600160f71b1615159150611304565b5034151561124b565b61137a90877f0000000000000000000000000000000000000000000000000000000000000000615582565b8761120d565b61138e91610ba98787615b8c565b61120857604051630e1407e960e31b8152600490fd5b816111cb565b5061016435600160fe1b1615156111c3565b6113c68383615b59565b906001600160a01b036024358116828460138111611440575b50508181163b15610211578a60008d938c6114168c9884986040519a8b998a988996630b148b5560e31b8852339060048901614d9f565b0393165af18015610c855761142c575b5061118a565b6114379195506144d8565b60009388611426565b935093505061144f8284614c75565b60601c9282601411610211576014019160131901928c806113df565b60018060a01b0360243516600052600460205260406000208660005260205260018785030160406000205561117c565b5060a435871415611109565b6101443581036114c057508811610d47575b88806110f5565b6114d190610d6a610144358c614c4c565b10156114b95760405163fb8ae12960e01b8152600490fd5b81956110d1565b6101443595869561150486858a868661561c565b96848811611565575b610164356001600160fc1b03169081611528575b50506110f8565b898181036115405750508710610ddf575b8880611521565b610d6a61154d928b614c4c565b11156115395760405163240f51c960e11b8152600490fd5b9750955082956115788685808686615686565b978089111561150d57604051637f902a9360e01b8152600490fd5b61159d8187615b0c565b806115aa575b50506110af565b6115b49130615ac3565b816115c7575b5015610e795786806115a3565b6001915014876115ba565b6115dd60e435615cb7565b610ee6576116089060e435607881901c82169160a09190911c166024356001600160a01b0316615ae9565b15610ed457866110a8565b9050421188611095565b33161490508780611076565b61105f565b6001600160a01b0360243581168015929091908315611675575b505050610fad5761016435600160fd1b1615611665575b84611052565b61167081858461586d565b61165f565b919250906000906001600160ff1b0381166fa2a8918ca85bafe22016d0b997e4df5f600160ff1b0381106116b1575b5050161415858080611648565b602092506000916080916040519189835260ff1c601b0185830152610104356040830152606082015282805260015afa5060005187806116a4565b346102115760403660031901126102115761170b602435600435614859565b005b3660031901610180811261021157610100136102115761014435610124356101643561173761497a565b6117426105026146ff565b9061174c826157af565b60a43593848214611d4b575b50600091338015611d46575b60e435906001600160501b038083168015918215611d3a575b505015610f145764ffffffffff808360501c168015159081611d30575b50610ef857600160fa1b8316611cf5575b50600160ff1b9683881615611c685784891015611c615788975b886117d38160c435856159c3565b9a6001600160fc1b0387169182611c23575b5050505b831615159081611c18575b50610d105787870215610cfe5761180a82615cb7565b15611be85760018060a01b03602435166000526003602052604060002063ffffffff8360801c16600160ff8560781c161b918160005280602052604060002054918380841614610cbc57600052602052176040600020555b600160fc1b90828216611b82575b6001600160a01b03937f000000000000000000000000000000000000000000000000000000000000000080861693909260643587168581149081611b72575b8115611b6b578c305b600160f81b8a1615611b46576118d3928b60243516906154f7565b611b35575b5085608435169084821492838094611b2c575b15611a9c5750505050883410610961578590893411611a7b575b600160f71b8416156119df575080808093508a6119206155d6565b611388f161192c614829565b5015610895575b600160fb1b1661197f575b5050506107ca90600080516020615cec83398151915260408051838152856020820152a1604051938493846040919493926060820195825260208201520152565b6024351690813b156119db576119b2839283926040519485809481936303ad43df60e21b83528c8c338d60048701614d51565b03925af1801561085a576119c7575b8061193e565b6119d182916144d8565b61085757806119c1565b8280fd5b8980611a52575b505060209060446119f56155d6565b6040519063a9059cbb60e01b825260048201528b602482015282855af19081611a30575b506119335760405163fb7f507960e01b8152600490fd5b90503d15611a4a57506001845114601f3d11165b88611a19565b3b1515611a44565b630d0e30db60e41b8352829160049183915af115611a72578489896119e6565b843d81803e3d90fd5b908080808c340333611388f1611a8f614829565b5015610895578590611905565b90919293945034610961578b9184611b1c575b8415611b0e5730915b1615611aed57611ac99233906154f7565b611ad4575b50611933565b611ae79088611ae16155d6565b91615582565b87611ace565b611af89233906158eb565b611ac95760405163478a520560e01b8152600490fd5b611b166155d6565b91611ab8565b600160f71b871615159450611aaf565b503415156118eb565b611b40908b85615582565b8b6118d8565b611b55928b60243516906158eb565b6118d357604051630e1407e960e31b8152600490fd5b8c836118b8565b600160fe1b8516151591506118af565b6024356001600160a01b0316803b156102115760008a87928b838c611bbf60405197889687958694630b148b5560e31b8652339060048701614d51565b03925af18015610c8557611bd4575b50611870565b611bdf9196506144d8565b60009489611bce565b60018060a01b03602435166000526004602052604060002086600052602052600187850301604060002055611862565b9050871415896117f4565b8c828203611c3c5791505011610d47575b8a80806117e5565b611c4992610d6a91614c4c565b1015611c345760405163fb8ae12960e01b8152600490fd5b84976117c5565b60c4359789611c78818b8561599c565b99878b11611cd7575b506001600160fc1b0386169081611c9a575b50506117e9565b8b818103611cb25750508910610ddf575b8a80611c93565b610d6a611cbf928d614c4c565b1115611cab5760405163240f51c960e11b8152600490fd5b99509950611ce786809a846159c3565b99808b11610e33578b611c81565b611cfe83615cb7565b610ee657611d2590607884901c81169060a085901c166024356001600160a01b0316615ae9565b15610ed457886117ab565b905042118a61179a565b3316149050898061177d565b611764565b6001600160a01b0360243581168015929091908315611d72575b505050610fad5785611758565b919250906000906001600160ff1b0381166fa2a8918ca85bafe22016d0b997e4df5f600160ff1b038110611dae575b5050161415868080611d65565b60209250600091608091604051918a835260ff1c601b0185830152610104356040830152606082015282805260015afa506000518880611da1565b36600319016101c08112610211576101001361021157610184356001600160a01b03811690818103610211576101a4356001600160401b03811161021157611e3590369060040161430a565b919092611e4061497a565b611e4b6105026146ff565b91611e55836157af565b9060a43582146126ab575b93600092156126a3575b6001600160501b038060e435168015918215612697575b505015610f145764ffffffffff8060e43560501c16801515908161268d575b50610ef85760e435600160fa1b1661264c575b5061016435600160ff1b16156125a55781610144351060001461259e5761014435955b8695611ee78860c43560a4356159c3565b97610164356001600160fc1b0316908161255c575b50505b60e435600160ff1b16151580612550575b610d105787870215610cfe57611f2760e435615cb7565b15612520576024356001600160a01b0316600090815260036020908152604080832060e435608081901c63ffffffff168552928190529220549190600160789190911c60ff161b80831614610cbc5763ffffffff60e43560801c16600052602052600160ff60e43560781c161b176040600020555b60e435600160fc1b166124b6575b7f00000000000000000000000000000000000000000000000000000000000000006001600160a01b0390811660643590911690811490816124a3575b811561249c5788305b60e435600160f81b161561247057612013926024356001600160a01b0316906154f7565b61243f575b506014821015612331575b50507f00000000000000000000000000000000000000000000000000000000000000006001600160a01b03908116608435909116908114908180612328575b1561227d57505084341061096157843411612252575b60e435600160f71b16156121525781808080886120936155d6565b611388f161209f614829565b5015610895575b60e435600160fb1b166120f4575b50506107ca90600080516020615cec83398151915260408051838152856020820152a1604051938493846040919493926060820195825260208201520152565b6024356001600160a01b031690813b156119db5761212f839283926040519485809481936303ad43df60e21b83528c8c338d60048701614d51565b03925af1801561085a57156120b45761214882916144d8565b61085757806120b4565b84612212575b60208260446121656155d6565b60405163a9059cbb60e01b8152600481019190915260248101899052827f00000000000000000000000000000000000000000000000000000000000000006001600160a01b03165af1806121ca575b6120a65760405163fb7f507960e01b8152600490fd5b503d156121e0576001825114601f3d11166121b4565b7f00000000000000000000000000000000000000000000000000000000000000006001600160a01b03163b15156121b4565b630d0e30db60e41b82528180600481887f00000000000000000000000000000000000000000000000000000000000000005af161215857503d81803e3d90fd5b8180808088340333611388f1612266614829565b506120785760405163b12d13eb60e01b8152600490fd5b346109615781612316575b81156123085786305b61016435600160fc1b16156122e7576122ab9233906154f7565b156120a6576122e26122bb6155d6565b867f0000000000000000000000000000000000000000000000000000000000000000615582565b6120a6565b6122f29233906158eb565b6122ab5760405163478a520560e01b8152600490fd5b866123116155d6565b612291565b60e435600160f71b1615159150612288565b50341515612062565b61233b8282614c75565b60601c908260141161086557916020918886886123c48b601498604051998a988997889663691343df60e11b885261237560048901614ca6565b6101048801526101e061012488015260006101e488015261020487019460008652336101448901526101648801526101848701528c6101a48701526102006101c4870152601319019101614d30565b03925af1908115612434578391612403575b50858111806123f3575b6123eb575b80612023565b9450856123e5565b5060e435600160fd1b16156123e0565b90506020813d821161242c575b8161241d60209383614506565b810103126102115751866123d6565b3d9150612410565b6040513d85823e3d90fd5b61246a90877f0000000000000000000000000000000000000000000000000000000000000000615582565b87612018565b612486926024356001600160a01b0316906158eb565b61201357604051630e1407e960e31b8152600490fd5b8883611fef565b61016435600160fe1b1615159150611fe6565b6024356001600160a01b03163b1561021157604051630b148b5560e31b8152600081806124ea888d8d338e60048701614d51565b0381836024356001600160a01b03165af18015610c855761250c575b50611faa565b6125179195506144d8565b60009388612506565b60018060a01b03602435166000526004602052604060002086600052602052600187850301604060002055611f9c565b5060a435871415611f10565b61014435810361257557508811610d47575b8880611efc565b61258690610d6a610144358c614c4c565b101561256e5760405163fb8ae12960e01b8152600490fd5b8195611ed6565b610144359586956125bb8860c43560a43561599c565b9684881161261c575b610164356001600160fc1b031690816125df575b5050611eff565b898181036125f75750508710610ddf575b88806125d8565b610d6a612604928b614c4c565b11156125f05760405163240f51c960e11b8152600490fd5b9750955082956126318460c43560a4356159c3565b97808911156125c457604051637f902a9360e01b8152600490fd5b61265760e435615cb7565b610ee6576126829060e435607881901c82169160a09190911c166024356001600160a01b0316615ae9565b15610ed45786611eb3565b9050421188611ea0565b33161490508780611e81565b339450611e6a565b6024356001600160a01b031680159081156126d9575b5015611e6057604051635cd5d23360e01b8152600490fd5b90506000610124356001600160ff1b0381166fa2a8918ca85bafe22016d0b997e4df5f600160ff1b03811061271c575b50506001600160a01b03161415876126c1565b60209250600091608091604051918a835260ff1c601b0185830152610104356040830152606082015282805260015afa506000518880612709565b34610211576040366003190112610211576001600160401b0360043581811161021157612788903690600401614469565b9091602435908111610211576127a2903690600401614469565b908183036127e05760005b8381106127b657005b806127da6127c760019387896148be565b356127d38387876148be565b3590614859565b016127ad565b604051631b2f9b3b60e31b8152600490fd5b346102115760003660031901126102115761282c7f0000000000000000000000000000000000000000000000000000000000000000614527565b6128557f000000000000000000000000000000000000000000000000000000000000000061462f565b6040516020808201928284106001600160401b038511176128fb5791816128ae85946128a0979660405260008452604051978897600f60f81b895260e0858a015260e0890190614429565b908782036040890152614429565b91466060870152306080870152600060a087015285830360c0870152519182815201929160005b8281106128e457505050500390f35b8351855286955093810193928101926001016128d5565b634e487b7160e01b600052604160045260246000fd5b3461021157610100806003193601126102115760426020916101206129346146ff565b9160405190600080516020615d0c8339815191528252600486830137206040519161190160f01b83526002830152602282015220604051908152f35b34610211576020610241612983366143fa565b91615a0a565b3461021157602061299c61025e366143fa565b819291926129b05750506040519015158152f35b1490508280610271565b6129c33661437a565b959890979693959394909391929160e0850135600160f91b16156135a157831561358f576129f0846146e4565b6129fd6040519182614506565b8481526020810190368686011161021157858583376000818701602001525190206001600160a01b0390811686359091160361357d575b612a45612a3f6146ff565b86614923565b97612a508987615816565b9660a08701358814613437575b509698600097506001600160a01b038a161561342f575b6001600160501b038060e0880135168015918215613423575b505015610f145764ffffffffff60e087013560501c168015159081613419575b50610ef85760e0860135600160fa1b166133c4575b84613385575b600160ff1b8316156132e757868b10156132e0578a995b8a612aee8b8a838a8a8d6156ba565b9c6001600160fc1b038616918e836132a2575b505050505b60e0870135600160ff1b16151580613294575b610d10578b8b0215610cfe57612b3260e0880135615cb7565b15613262576020878101356001600160a01b0316600090815260038252604080822060e08b0135608081901c63ffffffff1684529381905291205491600160789190911c60ff161b80831614610cbc5763ffffffff60e08a013560801c16600052602052600160ff60e08a013560781c161b176040600020555b60e0870135600160fc1b166131a0575b60608701356001600160a01b039081167f00000000000000000000000000000000000000000000000000000000000000009091161480613191575b801561318b57305b8c60e08a0135600160f81b16156131495750612c1b8888615b8c565b90506109ea57612c42908d906001600160a01b0360208c013581169060608d0135166154f7565b613118575b506014821015613001575b505060808401356001600160a01b039081167f000000000000000000000000000000000000000000000000000000000000000090911614908180612ff8575b15612f1157505087341061096157873411612ee6575b60e0830135600160f71b1615612de557848080808b612cc5886155f7565b611388f1612cd1614829565b5015610895575b60e0830135600160fb1b16612d28575b87876107ca88600080516020615cec83398151915260408051838152856020820152a1604051938493846040919493926060820195825260208201520152565b90612d3291615bed565b9060208301356001600160a01b0316818360138111612dba575b50506001600160a01b031693843b15612db657928587612d8b8a958c989584986040519a8b998a9889976303ad43df60e21b8952339160048a01614dfd565b03925af1801561085a57612da2575b808080612ce8565b612dac82916144d8565b6108575780612d9a565b8580fd5b9250925050612dc98183614c75565b60601c9181601411612db6576014019060131901918980612d4c565b87612ea6575b6020856044612df9866155f7565b60405163a9059cbb60e01b81526004810191909152602481018c9052827f00000000000000000000000000000000000000000000000000000000000000006001600160a01b03165af180612e5e575b612cd85760405163fb7f507960e01b8152600490fd5b503d15612e74576001855114601f3d1116612e48565b7f00000000000000000000000000000000000000000000000000000000000000006001600160a01b03163b1515612e48565b630d0e30db60e41b855284806004818b7f00000000000000000000000000000000000000000000000000000000000000005af1612deb57843d81803e3d90fd5b848080808b340333611388f1612efa614829565b50612ca75760405163b12d13eb60e01b8152600490fd5b346109615781612fe4575b8115612fd4578930915b600160fc1b1615612f995750612f3c8484615bbd565b90506109ea57612f5c908a903360808801356001600160a01b03166154f7565b15612cd857612f94612f6d846155f7565b897f0000000000000000000000000000000000000000000000000000000000000000615582565b612cd8565b612fbe91612fa78686615bbd565b9290913360808a01356001600160a01b0316615927565b612f5c5760405163478a520560e01b8152600490fd5b89612fde866155f7565b91612f26565b60e0850135600160f71b1615159150612f1c565b50341515612c91565b61300b8282614c75565b60601c90826014116131145760405163691343df60e11b815292839182918d908f8e61303a600487018e614ce5565b6101048601526101e06101248601526130586101e486018c8c614d30565b92336101448701526101648601526101848501528b6101a4850152600319848303016101c485015260131901916014019161309292614d30565b03818a5a94602095f19081156131095787916130d8575b50898111806130c6575b6130be575b80612c52565b9850896130b8565b5060e0850135600160fd1b16156130b3565b90506020813d8211613101575b816130f260209383614506565b8101031261021157518a6130a9565b3d91506130e5565b6040513d89823e3d90fd5b8880fd5b613143908b7f0000000000000000000000000000000000000000000000000000000000000000615582565b8b612c47565b613175916131578a8a615b8c565b9290916001600160a01b0360208e013581169060608f013516615927565b612c4257604051630e1407e960e31b8152600490fd5b81612bff565b50600160fe1b84161515612bf7565b6131aa8686615b59565b60208901356001600160a01b03169190818160138111613238575b50506001600160a01b0383163b15610211578e928a8f928f6132068f9260009788946040519a8b998a988997630b148b5560e31b8952339160048a01614dfd565b03926001600160a01b03165af18015610c8557613224575b50612bbc565b61322f9199506144d8565b6000978c61321e565b92509250506132478183614c75565b60601c91816014116102115760140190601319018f806131c5565b60018060a01b03602088013516600052600460205260406000208a60005260205260018b890301604060002055612bac565b5060a08701358b1415612b19565b8282036132bb5791505011610d47575b8c80808e612b01565b6132c892610d6a91614c4c565b10156132b25760405163fb8ae12960e01b8152600490fd5b8699612adf565b8a996132f78a898d89898c615650565b9a888c11613356575b6001600160fc1b0385169081613318575b5050612b06565b8d8d8282036133315791505010610ddf575b8c80613311565b61333e92610d6a91614c4c565b111561332a5760405163240f51c960e11b8152600490fd5b9b509950869961336a8a898089898c6156ba565b9b808d111561330057604051637f902a9360e01b8152600490fd5b61338f8585615b0c565b8061339c575b5050612ac8565b6133a69130615ac3565b816133b9575b5015610e79578b80613395565b60019150148c6133ac565b6133d160e0870135615cb7565b610ee65761340360e0870135607881901c64ffffffffff9081169160a01c1660208901356001600160a01b0316615ae9565b612ac2576040516371f4582960e11b8152600490fd5b905042118c612aad565b33161490508c80612a8d565b339950612a74565b6001600160a01b0360208801358116928315928c908415613501575b50505050610fad57600160fd1b83161561346e575b80612a5d565b6134788585615c84565b90601482101561348a575b5050613468565b6134948282614c75565b60601c82601411610211576134b192601319019160140190614a09565b6134be60e0870135615cb7565b156134cb575b8080613483565b60005260046020526040600020886000526020526040600020546134ef578a6134c4565b60405163c5f2be5160e01b8152600490fd5b92935060009290916001600160ff1b038216916fa2a8918ca85bafe22016d0b997e4df5f600160ff1b038310613543575b50505050168114158c808b81613453565b60209450916000939160809360405193845260ff1c601b01868401526040830152606082015282805260015afa506000518a8e8080613532565b604051634f06975160e01b8152600490fd5b60405163b2d25e4960e01b8152600490fd5b8315612a34575b6040516374896a7b60e01b8152600490fd5b346102115736600319016101a081126102115761010013610211576001600160401b0361010435818111610211576135f690369060040161430a565b906135ff614337565b92610184359081116102115761361990369060040161430a565b9161362261497a565b61362d6105026146ff565b93613637856157af565b9160a435831461367b575b6107ca8661365b87878b61014435610124358a87614e11565b929091604051938493846040919493926060820195825260208201520152565b602060008096959496936040519080630b135d3f60e11b958684528b6004850152604060248501528160448501526064840137606401906024356001600160a01b03165afa6136d4575b5015610fad5790918580613642565b600051143d602014169050866136c5565b346102115760206136f861025e366143fa565b8192919261370c5750506040519015158152f35b1190508280610271565b34610211576040366003190112610211576001600160a01b0361373761434e565b166000526004602052604060002060243560005260205260406000205480156137695760209060405190600019018152f35b60405163aa3eef9560e01b8152600490fd5b34610211576137a961378c3661437a565b9260018060a09c94939b9796999a989c1b03608087013516614a09565b60e0830135600160f91b16156137cb5760405163b2d25e4960e01b8152600490fd5b6137dc6137d66146ff565b84614923565b956137e78785615816565b9460a08501358614613fe6575b509496600095506001600160a01b03881615613fde575b6001600160501b038060e0860135168015918215613fd2575b505015610f145764ffffffffff8060e086013560501c168015159081613fc8575b50610ef85760e0850135600160fa1b16613f81575b50600160ff1b831615613eda5784891015613ed35788975b886138868160c088013560a08901356159c3565b9a6001600160fc1b0386169182613e95575b5050505b60e0850135600160ff1b16151580613e87575b610d105789890215610cfe576138c860e0860135615cb7565b15613e55576020858101356001600160a01b0316600090815260038252604080822060e0890135608081901c63ffffffff1684529381905291205491600160789190911c60ff161b80831614610cbc5763ffffffff60e088013560801c16600052602052600160ff60e088013560781c161b176040600020555b60e0850135600160fc1b16613de2575b7f00000000000000000000000000000000000000000000000000000000000000006001600160a01b0390811660608701359091169081149081613dd2575b8115613dcb578a305b60e0890135600160f81b1615613d9d576139c19260208a01356001600160a01b0316906154f7565b613d6c575b506014821015613c65575b505060808201356001600160a01b039081167f000000000000000000000000000000000000000000000000000000000000000090911614908180613c5d575b15613b9b575050856109615760e0810135600160f71b1615613ae0578280808089613a3a866155f7565b611388f1613a46614829565b5015610895575b60e0810135600160fb1b16613a9d575050506107ca90600080516020615cec83398151915260408051838152856020820152a1604051938493846040919493926060820195825260208201520152565b60208101356001600160a01b031690813b15613adc578391868389936119b2604051978896879586946303ad43df60e21b86528d339160048801614dea565b8380fd5b6020836044613aee846155f7565b60405163a9059cbb60e01b81526004810191909152602481018a9052827f00000000000000000000000000000000000000000000000000000000000000006001600160a01b03165af180613b53575b613a4d5760405163fb7f507960e01b8152600490fd5b503d15613b69576001835114601f3d1116613b3d565b7f00000000000000000000000000000000000000000000000000000000000000006001600160a01b03163b1515613b3d565b81613c49575b8115613c39578730915b600160fc1b1615613c0b57613bce913360808601356001600160a01b03166154f7565b15613a4d57613c06613bdf826155f7565b877f0000000000000000000000000000000000000000000000000000000000000000615582565b613a4d565b613c23913360808601356001600160a01b03166158eb565b613bce5760405163478a520560e01b8152600490fd5b87613c43846155f7565b91613bab565b60e0830135600160f71b1615159150613ba1565b506000613a10565b613c6f8282614c75565b60601c9180601411610b66578992613cac8887613cfa8d60209760148f988e6040519c8d9b8c9a8b9963691343df60e11b8b5260048b0190614ce5565b6101048901526101e061012489015260006101e489015261020488019560008752336101448a01526101648901526101848801526101a48701526102006101c4870152601319019101614d30565b03925af1908115610b5b578591613d3b575b5087811180613d29575b613d21575b806139d1565b965087613d1b565b5060e0830135600160fd1b1615613d16565b90506020813d8211613d64575b81613d5560209383614506565b81010312610211575188613d0c565b3d9150613d48565b613d9790897f0000000000000000000000000000000000000000000000000000000000000000615582565b896139c6565b613db59260208a01356001600160a01b0316906158eb565b6139c157604051630e1407e960e31b8152600490fd5b8a83613999565b600160fe1b861615159150613990565b60208501356001600160a01b03163b1561021157886000868a613e1d8a8f6040519687958695630b148b5560e31b8752339160048801614dea565b03818360208b01356001600160a01b03165af18015610c8557613e41575b50613952565b613e4c9197506144d8565b6000958a613e3b565b60018060a01b036020860135166000526004602052604060002088600052602052600189870301604060002055613942565b5060a08501358914156138af565b8c828203613eae5791505011610d47575b8a8080613898565b613ebb92610d6a91614c4c565b1015613ea65760405163fb8ae12960e01b8152600490fd5b8497613872565b8897613eef8960c087013560a088013561599c565b98868a11613f4d575b6001600160fc1b0385169081613f10575b505061389c565b8b818103613f285750508910610ddf575b8a80613f09565b610d6a613f35928d614c4c565b1115613f215760405163240f51c960e11b8152600490fd5b995097508497613f668660c087013560a08801356159c3565b99808b1115613ef857604051637f902a9360e01b8152600490fd5b613f8e60e0860135615cb7565b610ee657613fbd9060e0860135607881901c82169160a09190911c1660208701356001600160a01b0316615ae9565b15610ed4578961385a565b905042118b613845565b33161490508a80613824565b33975061380b565b60208501356001600160a01b0316801592909190831561400f575b505050610fad5788806137f4565b919250600091906001600160ff1b038216906fa2a8918ca85bafe22016d0b997e4df5f600160ff1b038210614055575b5050506001600160a01b03161415898080614001565b6020935091608091600093604051928d845260ff1c601b01868401526040830152606082015282805260015afa506000518a808061403f565b346102115760003660031901126102115760206140a96146ff565b604051908152f35b34610211576020366003190112610211576004356001600160401b038111610211576140e6610396602092369060040161430a565b816140f657506040519015158152f35b6001915014826103a3565b34610211576040366003190112610211576001600160a01b0361412261434e565b166000526003602052604060002060243560081c6000526020526020604060002054604051908152f35b3461021157604036600319011261021157614165614364565b602435801580156141e6575b6141d45760018060a01b03198260a01b16331760005260026020526040600020908154018091556001600160601b036040519216825260208201527f099133aefc2c2d1e56f8ef3622ec8e80979a0713fc9c4e1497740efcf809939660403392a2005b60405163555fbbbf60e01b8152600490fd5b5060ff8111614171565b346102115736600319016101c081126102115761010013610211576001600160401b03610104358181116102115761422c90369060040161430a565b9091614236614337565b92610184358281116102115761425090369060040161430a565b9190926101a4359081116102115761426c90369060040161430a565b9390928061427f575b505061362261497a565b614294916084356001600160a01b0316614a09565b8580614275565b3461021157604036600319011261021157600435906142b982615cb7565b156142fb5750336000526003602052604060002063ffffffff8260801c16600052602052604060002090600160ff6024359260781c161b178154179055600080f35b63435ffd6560e11b8152600490fd5b9181601f84011215610211578235916001600160401b038311610211576020838186019501011161021157565b61016435906001600160a01b038216820361021157565b600435906001600160a01b038216820361021157565b600435906001600160601b038216820361021157565b60031981016101e081126102115761010013610211576004916101043591610124359161014435916101643591610184356001600160a01b038116810361021157916001600160401b03916101a43583811161021157826143dc918b0161430a565b939093926101c435918211610211576143f6918b0161430a565b9091565b9060406003198301126102115760043591602435906001600160401b038211610211576143f69160040161430a565b919082519283825260005b848110614455575050826000602080949584010152601f8019910116010190565b602081830181015184830182015201614434565b9181601f84011215610211578235916001600160401b038311610211576020808501948460051b01011161021157565b906040600319830112610211576004356001600160a01b03811681036102115791602435906001600160401b038211610211576143f69160040161430a565b6001600160401b0381116128fb57604052565b604081019081106001600160401b038211176128fb57604052565b90601f801991011681019081106001600160401b038211176128fb57604052565b60ff81146145655760ff811690601f82116145535760405191614549836144eb565b8252602082015290565b604051632cd44ac360e21b8152600490fd5b506040516000805490600182811c90808416938415614625575b602094858410811461461157838752869493929181156145f157506001146145b3575b50506145b092500382614506565b90565b600080805285812095935091905b8183106145d95750506145b0935082010138806145a2565b855487840185015294850194869450918301916145c1565b9150506145b094925060ff191682840152151560051b82010138806145a2565b634e487b7160e01b85526022600452602485fd5b91607f169161457f565b60ff81146146515760ff811690601f82116145535760405191614549836144eb565b50604051600060019081549182811c908084169384156146da575b602094858410811461461157838752869493929181156145f1575060011461469c5750506145b092500382614506565b600081815285812095935091905b8183106146c25750506145b0935082010138806145a2565b855487840185015294850194869450918301916146aa565b91607f169161466c565b6001600160401b0381116128fb57601f01601f191660200190565b307f00000000000000000000000000000000000000000000000000000000000000006001600160a01b03161480614800575b1561475a577f000000000000000000000000000000000000000000000000000000000000000090565b60405160208101907f8b73c3c69bb8fe3d512ecc4cf759cc79239f7b179b0ffacaa9a75d522b39400f82527f000000000000000000000000000000000000000000000000000000000000000060408201527f000000000000000000000000000000000000000000000000000000000000000060608201524660808201523060a082015260a0815260c081018181106001600160401b038211176128fb5760405251902090565b507f00000000000000000000000000000000000000000000000000000000000000004614614731565b3d15614854573d9061483a826146e4565b916148486040519384614506565b82523d6000602084013e565b606090565b9061486382615cb7565b1561489d5750336000526003602052604060002063ffffffff8260801c16600052602052600160ff60406000209260781c161b8154179055565b90503360005260046020526040600020906000526020526001604060002055565b91908110156148ce5760051b0190565b634e487b7160e01b600052603260045260246000fd5b604290610120604051600080516020615d0c833981519152815261010060046020830137206040519161190160f01b8352600283015260228201522090565b9061012060429261010060405191600080516020615d0c83398151915283526020830137206040519161190160f01b8352600283015260228201522090565b90939293848311610211578411610211578101920390565b60e435600160f91b161561499a5760405163b2d25e4960e01b8152600490fd5b565b9060e435600160f91b1615614a0157801561358f576149ba816146e4565b906149c86040519283614506565b8082526020820192368282011161021157816000926020928637830101525190206001600160a01b039081166004359091160361357d57565b90506135a857565b6040519290600060648314614be5575081604814614b71578160e014614b4f578161010014614b2a5781606014614a87575061016014614a5257636827585760e01b8252600482fd5b61016460009261016084936302b67b5760e41b83526004830137826e22d473030f116ddee9f6b43ac78ba35af15b15610c8557565b6302b67b5760e41b8452336004850152602484015250600091829161016491906020906040906014816050860137851965ffffffffffff9080601484013560e01c0182166064870152601883013560e01c60848701523060a4870152601c83013560e01c011660c485015261010060e4850152816101048501528280820161012486013701610144830137826e22d473030f116ddee9f6b43ac78ba35af1614a80565b6101049150926000809461010082956323f2ebc360e21b855260048501375af1614a80565b60e49150926000809460e0829563d505accf821b855260048501375af1614a80565b6101049150926000809481946323f2ebc360e21b845233600485015230602485015260206008602883013592803560e01c60448801528519600482013560e01c016064880152600160848801528360ff1c601b0160a48801520160c48601376001600160ff1b031660e48401525af1614a80565b60e49250809491819463d505accf60e01b845233600485015230602485015260206024604483013592828160448901376000198382013560e01c0160648801528360ff1c601b0160848801520160a48601376001600160ff1b031660c48401525af1614a80565b81810292918115918404141715614c5f57565b634e487b7160e01b600052601160045260246000fd5b6bffffffffffffffffffffffff199035818116939260148110614c9757505050565b60140360031b82901b16169150565b6004358152602435602082015260443560408201526064356060820152608435608082015260a43560a082015260c43560c082015260e060e435910152565b60e08091803584526020810135602085015260408101356040850152606081013560608501526080810135608085015260a081013560a085015260c081013560c08501520135910152565b908060209392818452848401376000828201840152601f01601f1916010190565b93916101e0959391614d6286614ca6565b61010086015260018060a01b031661012085015261014084015261016083015261018082015260006101c0806101a0840152820152016000815290565b93916145b097959391614db186614ca6565b6101008601526001600160a01b03166101208501526101408401526101608301526101808201526101c06101a082018190520191614d30565b94929091614d62866101e0989694614ce5565b94929091614db1866145b09a989694614ce5565b9396949091959660009360018060a01b038216156154ef575b6001600160501b038060e4351680159182156154e3575b505015610f145764ffffffffff8060e43560501c1680151590816154d9575b50610ef85760e435600160fa1b16615498575b50600160ff1b8116156153f857838810156153f15787985b89614e9b8160c43560a4356159c3565b996001600160fc1b03841691826153b4575b5050505b60e435600160ff1b161515806153a8575b610d1057888a0215610cfe57614ed960e435615cb7565b1561537c5760018060a01b0360243516865260036020526040862063ffffffff60e43560801c16600160ff60e43560781c161b91818952806020526040892054918380841614610cbc5789526020521760408720555b600160fc1b9060e4358216615309575b7f00000000000000000000000000000000000000000000000000000000000000006001600160a01b038181169691959060643516878114908e826152f9575b82156152f357305b60e435600160f81b16156152c757614faa926024356001600160a01b0316906154f7565b6152b6575b506014821015615201575b50506084356001600160a01b03168481149290919083806151f8575b1561516c575050505086341061096157839087341161514b575b60e435600160f71b16156150af575080808093508861500d6155d6565b611388f1615019614829565b5015610895575b60e435600160fb1b16615050575b50506040600080516020615cec833981519152918151908152856020820152a1565b6024356001600160a01b0316803b156119db576040516303ad43df60e21b8152918391839182908490829061508c908c8e338d60048701614d51565b03925af1801561085a571561502e576150a582916144d8565b610857578061502e565b8780615122575b505060209060446150c56155d6565b6040519063a9059cbb60e01b8252600482015289602482015282855af19081615100575b506150205760405163fb7f507960e01b8152600490fd5b90503d1561511a57506001825114601f3d11165b386150e9565b3b1515615114565b630d0e30db60e41b8352829160049183915af115615142578238876150b6565b823d81803e3d90fd5b908080808a340333611388f161515f614829565b5015610895578390614ff0565b90919293945034610961578991846151e6575b84156151d85730915b16156151b7576151999233906154f7565b6151a4575b50615020565b6151b19086611ae16155d6565b3861519e565b6151c29233906158eb565b6151995760405163478a520560e01b8152600490fd5b6151e06155d6565b91615188565b60e435600160f71b161515945061517f565b50341515614fd6565b61520b8282614c75565b60601c9082601411613114576020918c8a8f6152468e918d9660146040519a8b998a98899763691343df60e11b8952613cac60048a01614ca6565b03925af1908115613109578791615285575b5089811180615275575b61526d575b80614fba565b985038615267565b5060e435600160fd1b1615615262565b90506020813d82116152ae575b8161529f60209383614506565b81010312610211575138615258565b3d9150615292565b6152c1908d87615582565b38614faf565b6152dd926024356001600160a01b0316906158eb565b614faa57604051630e1407e960e31b8152600490fd5b83614f86565b600160fe1b881615159250614f7e565b6024356001600160a01b0316803b1561537857878b88928e838d61534560405197889687958694630b148b5560e31b8652339060048701614d51565b03925af1801561536d5761535a575b50614f3f565b615366909791976144d8565b9538615354565b6040513d8a823e3d90fd5b8780fd5b60018060a01b0360243516865260046020526040862087875260205260018a8603016040872055614f2f565b5060a4358a1415614ec2565b8181036153cc5750508911610d47575b388080614ead565b610d6a6153d9928d614c4c565b10156153c45760405163fb8ae12960e01b8152600490fd5b8398614e8b565b87986154098a60c43560a43561599c565b99858b11615468575b6001600160fc1b038316908161542a575b5050614eb1565b8a8c8282036154435791505010610ddf575b3880615423565b61545092610d6a91614c4c565b111561543c5760405163240f51c960e11b8152600490fd5b98509850839861547d8560c43560a4356159c3565b98808a111561541257604051637f902a9360e01b8152600490fd5b6154a360e435615cb7565b610ee6576154ce9060e435607881901c82169160a09190911c166024356001600160a01b0316615ae9565b15610ed45738614e73565b9050421138614e60565b33161490503880614e41565b339150614e2a565b90926001600160a01b0381116155705760009260405194631b63c28b60e11b865260048601526024850152604484015260648301528060846e22d473030f116ddee9f6b43ac78ba39382855af19081615565575b501561555357565b60405163f405907160e01b8152600490fd5b90503b15153861554b565b604051638112e11960e01b8152600490fd5b916024926000809481808094632e1a7d4d60e01b8252876004525af11561085a57306001600160a01b038216036155b857505050565b828080938193611388f1156155ca5750565b604051903d90823e3d90fd5b6001600160a01b0360443581169081156155ee575090565b90506024351690565b6001600160a01b036040820135811691821561561257505090565b6020013516919050565b9061562a9194939294615c1e565b809491941561563c576145b0946156f0565b509150506145b0915060c43560a43561599c565b9493929161565d91615c1e565b90811561566e576145b095506156f0565b50509150508160a060c06145b094013591013561599c565b906156949194939294615c51565b80949194156156a6576145b0946156f0565b509150506145b0915060c43560a4356159c3565b949392916156c791615c51565b9081156156d8576145b095506156f0565b50509150508160a060c06145b09401359101356159c3565b90926014841061579d576157048483614c75565b60601c928460141161021157606c6000969561575292889760405195869360208501986014601319830191018a37840192600c840152602c830152604c82015203604c810184520182614506565b51915afa61575e614829565b90158015615791575b61577f57602081805181010312610211576020015190565b60405163110b8e7360e01b8152600490fd5b50602081511415615767565b60405163bec74c8560e01b8152600490fd5b6157ba60e435615cb7565b156157df575060a435905b81156157cd57565b604051637b8fded160e11b8152600490fd5b60018060a01b0360243516600052600460205260406000209060005260205261581060406000205460a43590615cd7565b906157c5565b61582360e0820135615cb7565b156158375760a0915001359081156157cd57565b6158109160018060a01b03602083013516600052600460205260406000209060005260205260a060406000205491013590615cd7565b9161587791615c84565b90601482101561588657505050565b6158908282614c75565b60601c82601411610211576158ad92601319019160140190614a09565b6158b860e435615cb7565b156158c05750565b60018060a01b036024351660005260046020526040600020906000526020526040600020546134ef57565b9060006064926020958295604051946323b872dd60e01b86526004860152602485015260448401525af1600160005114601f3d11163d15171690565b92948060009581602098889596604051976323b872dd60e01b8952600489015260248801526044870152615970575b5050606401925af1600160005114601f3d11163d15171690565b60648501378038615956565b8115615986570490565b634e487b7160e01b600052601260045260246000fd5b80831760801c156159b9576159b4906145b093614c4c565b61597c565b6145b0920261597c565b9181811760801c156159f957906159d991614c4c565b90808201809211614c5f576000198201918211614c5f576145b09161597c565b6145b092910281016000190161597c565b9290919260005b63ffffffff8216908115615a585761039682615a2e928888614962565b81615a4d575b50615a43579060201c90615a11565b5050915050600190565b600191501438615a34565b505050915050600090565b92909192600090815b63ffffffff8216908115615ab75761039682615a89928989614962565b9015908115615aab575b50615aa2579060201c90615a6c565b50509150915090565b60019150141538615a93565b50505050915050600190565b916000906020928294826040519283375afa60203d14169182615ae257565b6000519150565b6001600160a01b031660a09190911b176000908152600260205260409020541490565b91909160208310615b505780359063ffffffff808360601c169260801c1693601f19018411615b3f578101602001920390565b6309605a0160e41b60005260046000fd5b50600091508190565b91909160208310615b505780359063ffffffff808360a01c169260c01c1693601f19018411615b3f578101602001920390565b91909160208310615b505780359063ffffffff918060201b8316921693601f19018411615b3f578101602001920390565b91909160208310615b505780359063ffffffff8083169260201c1693601f19018411615b3f578101602001920390565b91909160208310615b505780359063ffffffff8260c01c169160e01c93601f19018411615b3f578101602001920390565b91909160208310615b505780359063ffffffff808360201c169260401c1693601f19018411615b3f578101602001920390565b91909160208310615b505780359063ffffffff808360401c169260601c1693601f19018411615b3f578101602001920390565b91909160208310615b505780359063ffffffff808360801c169260a01c1693601f19018411615b3f578101602001920390565b600160ff1b81161580159190615ccb575090565b600160fe1b1615919050565b908115615ce657506000190190565b90509056fefec331350fce78ba658e082a71da20ac9f8d798a99b3c79681c8440cbfe77e073af21ec5a20011b88d3b7b4ed7c806cef05a5980cf34974bcd53566a131f7e4ca2646970667358221220275d0d7fed0fbe05da7fd507f0cc6185423eadd4f576917b54826b71c7294a9464736f6c63430008130033",
  "linkReferences": {},
  "deployedLinkReferences": {}
}