{
  "_format": "hh-sol-artifact-1",
  "contractName": "AggregatorMock",
  "sourceName": "src/e2e-tests/contracts/mocks/AggregatorMock.sol",
  "abi": [
    {
      "inputs": [
        {
          "internalType": "int256",
          "name": "answer",
          "type": "int256"
        }
      ],
      "stateMutability": "nonpayable",
      "type": "constructor"
    },
    {
      "inputs": [],
      "name": "NoDataPresent",
      "type": "error"
    },
    {
      "anonymous": false,
      "inputs": [
        {
          "indexed": true,
          "internalType": "int256",
          "name": "current",
          "type": "int256"
        },
        {
          "indexed": true,
          "internalType": "uint256",
          "name": "roundId",
          "type": "uint256"
        },
        {
          "indexed": false,
          "internalType": "uint256",
          "name": "updatedAt",
          "type": "uint256"
        }
      ],
      "name": "AnswerUpdated",
      "type": "event"
    },
    {
      "anonymous": false,
      "inputs": [
        {
          "indexed": true,
          "internalType": "uint256",
          "name": "roundId",
          "type": "uint256"
        },
        {
          "indexed": true,
          "internalType": "address",
          "name": "startedBy",
          "type": "address"
        },
        {
          "indexed": false,
          "internalType": "uint256",
          "name": "startedAt",
          "type": "uint256"
        }
      ],
      "name": "NewRound",
      "type": "event"
    },
    {
      "inputs": [],
      "name": "decimals",
      "outputs": [
        {
          "internalType": "uint8",
          "name": "",
          "type": "uint8"
        }
      ],
      "stateMutability": "pure",
      "type": "function"
    },
    {
      "inputs": [],
      "name": "description",
      "outputs": [
        {
          "internalType": "string",
          "name": "",
          "type": "string"
        }
      ],
      "stateMutability": "pure",
      "type": "function"
    },
    {
      "inputs": [
        {
          "internalType": "uint256",
          "name": "roundId",
          "type": "uint256"
        }
      ],
      "name": "getAnswer",
      "outputs": [
        {
          "internalType": "int256",
          "name": "",
          "type": "int256"
        }
      ],
      "stateMutability": "view",
      "type": "function"
    },
    {
      "inputs": [
        {
          "internalType": "uint80",
          "name": "_roundId",
          "type": "uint80"
        }
      ],
      "name": "getRoundData",
      "outputs": [
        {
          "internalType": "uint80",
          "name": "roundId",
          "type": "uint80"
        },
        {
          "internalType": "int256",
          "name": "answer",
          "type": "int256"
        },
        {
          "internalType": "uint256",
          "name": "startedAt",
          "type": "uint256"
        },
        {
          "internalType": "uint256",
          "name": "updatedAt",
          "type": "uint256"
        },
        {
          "internalType": "uint80",
          "name": "answeredInRound",
          "type": "uint80"
        }
      ],
      "stateMutability": "view",
      "type": "function"
    },
    {
      "inputs": [
        {
          "internalType": "uint256",
          "name": "roundId",
          "type": "uint256"
        }
      ],
      "name": "getTimestamp",
      "outputs": [
        {
          "internalType": "uint256",
          "name": "",
          "type": "uint256"
        }
      ],
      "stateMutability": "view",
      "type": "function"
    },
    {
      "inputs": [],
      "name": "latestAnswer",
      "outputs": [
        {
          "internalType": "int256",
          "name": "",
          "type": "int256"
        }
      ],
      "stateMutability": "view",
      "type": "function"
    },
    {
      "inputs": [],
      "name": "latestRound",
      "outputs": [
        {
          "internalType": "uint256",
          "name": "",
          "type": "uint256"
        }
      ],
      "stateMutability": "pure",
      "type": "function"
    },
    {
      "inputs": [],
      "name": "latestRoundData",
      "outputs": [
        {
          "internalType": "uint80",
          "name": "roundId",
          "type": "uint80"
        },
        {
          "internalType": "int256",
          "name": "answer",
          "type": "int256"
        },
        {
          "internalType": "uint256",
          "name": "startedAt",
          "type": "uint256"
        },
        {
          "internalType": "uint256",
          "name": "updatedAt",
          "type": "uint256"
        },
        {
          "internalType": "uint80",
          "name": "answeredInRound",
          "type": "uint80"
        }
      ],
      "stateMutability": "view",
      "type": "function"
    },
    {
      "inputs": [],
      "name": "latestTimestamp",
      "outputs": [
        {
          "internalType": "uint256",
          "name": "",
          "type": "uint256"
        }
      ],
      "stateMutability": "view",
      "type": "function"
    },
    {
      "inputs": [],
      "name": "version",
      "outputs": [
        {
          "internalType": "uint256",
          "name": "",
          "type": "uint256"
        }
      ],
      "stateMutability": "pure",
      "type": "function"
    }
  ],
  "bytecode": "0x60a03461006857601f61041338819003918201601f19168301916001600160401b0383118484101761006d57808492602094604052833981010312610068575160805260405161038f9081610084823960805181818161014a015281816102bd015261030d0152f35b600080fd5b634e487b7160e01b600052604160045260246000fdfe608060408181526004918236101561001657600080fd5b600092833560e01c918263313ce567146102e05750816350d25bcd146102a557816354fd4d5014610289578163668a0f021461026e5781637284e416146101c55781638205bf6a146101a85781639a6fc8f51461016d578163b5ab58dc1461012a578163b633620c146100ef575063feaf968c1461009357600080fd5b346100eb57816003193601126100eb576100e7906100af6102fb565b945169ffffffffffffffffffff94851681526020810193909352604083019190915260608201529116608082015290819060a0820190565b0390f35b5080fd5b8284346101275760203660031901126101275750813561011b5760209061011461034a565b9051908152f35b5162bb258760e81b8152fd5b80fd5b8284346101275760203660031901126101275750813561011b57602090517f00000000000000000000000000000000000000000000000000000000000000008152f35b8284346101275760203660031901126101275782359069ffffffffffffffffffff8216809203610127575061011b576100e7906100af6102fb565b5050346100eb57816003193601126100eb5760209061011461034a565b90503461026a578260031936011261026a578151908282019082821067ffffffffffffffff83111761025757508252600e81526020906d41676772656761746f724d6f636b60901b8282015282519382859384528251928382860152825b84811061024157505050828201840152601f01601f19168101030190f35b8181018301518882018801528795508201610223565b634e487b7160e01b855260419052602484fd5b8280fd5b5050346100eb57816003193601126100eb5751908152602090f35b5050346100eb57816003193601126100eb576020905160018152f35b5050346100eb57816003193601126100eb57602090517f00000000000000000000000000000000000000000000000000000000000000008152f35b8490346100eb57816003193601126100eb5780601260209252f35b606319420190428211610334576000917f0000000000000000000000000000000000000000000000000000000000000000918190600090565b634e487b7160e01b600052601160045260246000fd5b6063194201428111610334579056fea2646970667358221220281690b10da3d1b378f7ea7e6bc4c6c0f2f0673941c50665f963d9a7bdcb060d64736f6c63430008130033",
  "linkReferences": {},
  "deployedLinkReferences": {}
}