{
  "_format": "hh-sol-artifact-1",
  "contractName": "WethUnwrapper",
  "sourceName": "src/e2e-tests/contracts/helpers/WethUnwrapper.sol",
  "abi": [
    {
      "inputs": [
        {
          "internalType": "contract IWETH",
          "name": "weth",
          "type": "address"
        }
      ],
      "stateMutability": "nonpayable",
      "type": "constructor"
    },
    {
      "inputs": [],
      "name": "EthDepositRejected",
      "type": "error"
    },
    {
      "inputs": [
        {
          "internalType": "bytes32",
          "name": "",
          "type": "bytes32"
        },
        {
          "internalType": "address",
          "name": "maker",
          "type": "address"
        },
        {
          "internalType": "address",
          "name": "",
          "type": "address"
        },
        {
          "internalType": "uint256",
          "name": "",
          "type": "uint256"
        },
        {
          "internalType": "uint256",
          "name": "takingAmount",
          "type": "uint256"
        },
        {
          "internalType": "uint256",
          "name": "",
          "type": "uint256"
        },
        {
          "internalType": "bytes",
          "name": "interactiveData",
          "type": "bytes"
        }
      ],
      "name": "fillOrderPostInteraction",
      "outputs": [],
      "stateMutability": "nonpayable",
      "type": "function"
    },
    {
      "stateMutability": "payable",
      "type": "receive"
    }
  ],
  "bytecode": "0x60c03461007657601f61027a38819003918201601f19168301916001600160401b0383118484101761007b5780849260209460405283398101031261007657516001600160a01b0381168082036100765760805260a0526040516101e89081610092823960805181601b015260a051816101040152f35b600080fd5b634e487b7160e01b600052604160045260246000fdfe6080604052600436101561005d575b361561001957600080fd5b7f00000000000000000000000000000000000000000000000000000000000000006001600160a01b0316330361004b57005b604051631b10b0f960e01b8152600490fd5b6000803560e01c633504ed6214610074575061000e565b346101af5760e03660031901126101af57806024356001600160a01b0380821682036101ab57604435818116036101ab576084359060c4359267ffffffffffffffff908185116101a757366023860112156101a75784600401359182116101a75736602483870101116101a7579360148214610160575b5050632e1a7d4d60e01b845260048290528380602481807f00000000000000000000000000000000000000000000000000000000000000005af115610155573090831603610137575050f35b828092918192611388f1156101495780f35b604051903d90823e3d90fd5b6040513d85823e3d90fd5b9193506bffffffffffffffffffffffff1991602401358281169160148110610192575b5050905060601c9138806100eb565b8391925060140360031b1b1616803880610183565b8580fd5b5050fd5b80fdfea2646970667358221220abec00fda92d9a09f972a38901e87eb1075dd68abe03f639fe5ce4fe0060c83a64736f6c63430008130033",
  "linkReferences": {},
  "deployedLinkReferences": {}
}