{
  "_format": "hh-sol-artifact-1",
  "contractName": "ERC721ProxySafe",
  "sourceName": "src/e2e-tests/contracts/helpers/ERC721ProxySafe.sol",
  "abi": [
    {
      "inputs": [
        {
          "internalType": "address",
          "name": "_immutableOwner",
          "type": "address"
        }
      ],
      "stateMutability": "nonpayable",
      "type": "constructor"
    },
    {
      "inputs": [],
      "name": "ERC721ProxySafeBadSelector",
      "type": "error"
    },
    {
      "inputs": [],
      "name": "IOAccessDenied",
      "type": "error"
    },
    {
      "inputs": [
        {
          "internalType": "address",
          "name": "from",
          "type": "address"
        },
        {
          "internalType": "address",
          "name": "to",
          "type": "address"
        },
        {
          "internalType": "uint256",
          "name": "",
          "type": "uint256"
        },
        {
          "internalType": "uint256",
          "name": "tokenId",
          "type": "uint256"
        },
        {
          "internalType": "contract IERC721",
          "name": "token",
          "type": "address"
        }
      ],
      "name": "func_60iHVgK",
      "outputs": [],
      "stateMutability": "nonpayable",
      "type": "function"
    },
    {
      "inputs": [],
      "name": "immutableOwner",
      "outputs": [
        {
          "internalType": "address",
          "name": "",
          "type": "address"
        }
      ],
      "stateMutability": "view",
      "type": "function"
    }
  ],
  "bytecode": "0x60a03461006f57601f61024638819003918201601f19168301916001600160401b038311848410176100745780849260209460405283398101031261006f57516001600160a01b038116810361006f576080526040516101bb908161008b8239608051818181604c015260c60152f35b600080fd5b634e487b7160e01b600052604160045260246000fdfe608080604052600436101561001357600080fd5b600090813560e01c90816323b872dd1461007e5750638ec735681461003757600080fd5b3461007b578060031936011261007b576040517f00000000000000000000000000000000000000000000000000000000000000006001600160a01b03168152602090f35b80fd5b9050346101815760a0366003190112610181576001600160a01b03906004358281169081900361017d57602435918383168093036101795760843593808516809503610175577f00000000000000000000000000000000000000000000000000000000000000001633036101665750908391833b1561016257606490836040519586948593632142170760e11b855260048501526024840152833560448401525af180156101575761012e575080f35b67ffffffffffffffff81116101435760405280f35b634e487b7160e01b82526041600452602482fd5b6040513d84823e3d90fd5b8280fd5b63497131ed60e01b8152600490fd5b8580fd5b8480fd5b8380fd5b5080fdfea26469706673582212205ac2bbf499a9c2b20f4d8b6bbc853670d1fbbaaa28661c0c1f53edf6b0c22f0f64736f6c63430008130033",
  "linkReferences": {},
  "deployedLinkReferences": {}
}