{
  "_format": "hh-sol-artifact-1",
  "contractName": "TokenCustomDecimalsMock",
  "sourceName": "@1inch/solidity-utils/contracts/mocks/TokenCustomDecimalsMock.sol",
  "abi": [
    {
      "inputs": [
        {
          "internalType": "string",
          "name": "name",
          "type": "string"
        },
        {
          "internalType": "string",
          "name": "symbol",
          "type": "string"
        },
        {
          "internalType": "uint256",
          "name": "amount",
          "type": "uint256"
        },
        {
          "internalType": "uint8",
          "name": "decimals_",
          "type": "uint8"
        }
      ],
      "stateMutability": "nonpayable",
      "type": "constructor"
    },
    {
      "inputs": [],
      "name": "InvalidShortString",
      "type": "error"
    },
    {
      "inputs": [
        {
          "internalType": "string",
          "name": "str",
          "type": "string"
        }
      ],
      "name": "StringTooLong",
      "type": "error"
    },
    {
      "anonymous": false,
      "inputs": [
        {
          "indexed": true,
          "internalType": "address",
          "name": "owner",
          "type": "address"
        },
        {
          "indexed": true,
          "internalType": "address",
          "name": "spender",
          "type": "address"
        },
        {
          "indexed": false,
          "internalType": "uint256",
          "name": "value",
          "type": "uint256"
        }
      ],
      "name": "Approval",
      "type": "event"
    },
    {
      "anonymous": false,
      "inputs": [],
      "name": "EIP712DomainChanged",
      "type": "event"
    },
    {
      "anonymous": false,
      "inputs": [
        {
          "indexed": true,
          "internalType": "address",
          "name": "previousOwner",
          "type": "address"
        },
        {
          "indexed": true,
          "internalType": "address",
          "name": "newOwner",
          "type": "address"
        }
      ],
      "name": "OwnershipTransferred",
      "type": "event"
    },
    {
      "anonymous": false,
      "inputs": [
        {
          "indexed": true,
          "internalType": "address",
          "name": "from",
          "type": "address"
        },
        {
          "indexed": true,
          "internalType": "address",
          "name": "to",
          "type": "address"
        },
        {
          "indexed": false,
          "internalType": "uint256",
          "name": "value",
          "type": "uint256"
        }
      ],
      "name": "Transfer",
      "type": "event"
    },
    {
      "inputs": [],
      "name": "DOMAIN_SEPARATOR",
      "outputs": [
        {
          "internalType": "bytes32",
          "name": "",
          "type": "bytes32"
        }
      ],
      "stateMutability": "view",
      "type": "function"
    },
    {
      "inputs": [
        {
          "internalType": "address",
          "name": "owner",
          "type": "address"
        },
        {
          "internalType": "address",
          "name": "spender",
          "type": "address"
        }
      ],
      "name": "allowance",
      "outputs": [
        {
          "internalType": "uint256",
          "name": "",
          "type": "uint256"
        }
      ],
      "stateMutability": "view",
      "type": "function"
    },
    {
      "inputs": [
        {
          "internalType": "address",
          "name": "spender",
          "type": "address"
        },
        {
          "internalType": "uint256",
          "name": "amount",
          "type": "uint256"
        }
      ],
      "name": "approve",
      "outputs": [
        {
          "internalType": "bool",
          "name": "",
          "type": "bool"
        }
      ],
      "stateMutability": "nonpayable",
      "type": "function"
    },
    {
      "inputs": [
        {
          "internalType": "address",
          "name": "account",
          "type": "address"
        }
      ],
      "name": "balanceOf",
      "outputs": [
        {
          "internalType": "uint256",
          "name": "",
          "type": "uint256"
        }
      ],
      "stateMutability": "view",
      "type": "function"
    },
    {
      "inputs": [
        {
          "internalType": "address",
          "name": "account",
          "type": "address"
        },
        {
          "internalType": "uint256",
          "name": "amount",
          "type": "uint256"
        }
      ],
      "name": "burn",
      "outputs": [],
      "stateMutability": "nonpayable",
      "type": "function"
    },
    {
      "inputs": [],
      "name": "decimals",
      "outputs": [
        {
          "internalType": "uint8",
          "name": "",
          "type": "uint8"
        }
      ],
      "stateMutability": "view",
      "type": "function"
    },
    {
      "inputs": [
        {
          "internalType": "address",
          "name": "spender",
          "type": "address"
        },
        {
          "internalType": "uint256",
          "name": "subtractedValue",
          "type": "uint256"
        }
      ],
      "name": "decreaseAllowance",
      "outputs": [
        {
          "internalType": "bool",
          "name": "",
          "type": "bool"
        }
      ],
      "stateMutability": "nonpayable",
      "type": "function"
    },
    {
      "inputs": [],
      "name": "eip712Domain",
      "outputs": [
        {
          "internalType": "bytes1",
          "name": "fields",
          "type": "bytes1"
        },
        {
          "internalType": "string",
          "name": "name",
          "type": "string"
        },
        {
          "internalType": "string",
          "name": "version",
          "type": "string"
        },
        {
          "internalType": "uint256",
          "name": "chainId",
          "type": "uint256"
        },
        {
          "internalType": "address",
          "name": "verifyingContract",
          "type": "address"
        },
        {
          "internalType": "bytes32",
          "name": "salt",
          "type": "bytes32"
        },
        {
          "internalType": "uint256[]",
          "name": "extensions",
          "type": "uint256[]"
        }
      ],
      "stateMutability": "view",
      "type": "function"
    },
    {
      "inputs": [],
      "name": "getChainId",
      "outputs": [
        {
          "internalType": "uint256",
          "name": "",
          "type": "uint256"
        }
      ],
      "stateMutability": "view",
      "type": "function"
    },
    {
      "inputs": [
        {
          "internalType": "address",
          "name": "spender",
          "type": "address"
        },
        {
          "internalType": "uint256",
          "name": "addedValue",
          "type": "uint256"
        }
      ],
      "name": "increaseAllowance",
      "outputs": [
        {
          "internalType": "bool",
          "name": "",
          "type": "bool"
        }
      ],
      "stateMutability": "nonpayable",
      "type": "function"
    },
    {
      "inputs": [
        {
          "internalType": "address",
          "name": "account",
          "type": "address"
        },
        {
          "internalType": "uint256",
          "name": "amount",
          "type": "uint256"
        }
      ],
      "name": "mint",
      "outputs": [],
      "stateMutability": "nonpayable",
      "type": "function"
    },
    {
      "inputs": [],
      "name": "name",
      "outputs": [
        {
          "internalType": "string",
          "name": "",
          "type": "string"
        }
      ],
      "stateMutability": "view",
      "type": "function"
    },
    {
      "inputs": [
        {
          "internalType": "address",
          "name": "owner",
          "type": "address"
        }
      ],
      "name": "nonces",
      "outputs": [
        {
          "internalType": "uint256",
          "name": "",
          "type": "uint256"
        }
      ],
      "stateMutability": "view",
      "type": "function"
    },
    {
      "inputs": [],
      "name": "owner",
      "outputs": [
        {
          "internalType": "address",
          "name": "",
          "type": "address"
        }
      ],
      "stateMutability": "view",
      "type": "function"
    },
    {
      "inputs": [
        {
          "internalType": "address",
          "name": "owner",
          "type": "address"
        },
        {
          "internalType": "address",
          "name": "spender",
          "type": "address"
        },
        {
          "internalType": "uint256",
          "name": "value",
          "type": "uint256"
        },
        {
          "internalType": "uint256",
          "name": "deadline",
          "type": "uint256"
        },
        {
          "internalType": "uint8",
          "name": "v",
          "type": "uint8"
        },
        {
          "internalType": "bytes32",
          "name": "r",
          "type": "bytes32"
        },
        {
          "internalType": "bytes32",
          "name": "s",
          "type": "bytes32"
        }
      ],
      "name": "permit",
      "outputs": [],
      "stateMutability": "nonpayable",
      "type": "function"
    },
    {
      "inputs": [],
      "name": "renounceOwnership",
      "outputs": [],
      "stateMutability": "nonpayable",
      "type": "function"
    },
    {
      "inputs": [],
      "name": "symbol",
      "outputs": [
        {
          "internalType": "string",
          "name": "",
          "type": "string"
        }
      ],
      "stateMutability": "view",
      "type": "function"
    },
    {
      "inputs": [],
      "name": "totalSupply",
      "outputs": [
        {
          "internalType": "uint256",
          "name": "",
          "type": "uint256"
        }
      ],
      "stateMutability": "view",
      "type": "function"
    },
    {
      "inputs": [
        {
          "internalType": "address",
          "name": "to",
          "type": "address"
        },
        {
          "internalType": "uint256",
          "name": "amount",
          "type": "uint256"
        }
      ],
      "name": "transfer",
      "outputs": [
        {
          "internalType": "bool",
          "name": "",
          "type": "bool"
        }
      ],
      "stateMutability": "nonpayable",
      "type": "function"
    },
    {
      "inputs": [
        {
          "internalType": "address",
          "name": "from",
          "type": "address"
        },
        {
          "internalType": "address",
          "name": "to",
          "type": "address"
        },
        {
          "internalType": "uint256",
          "name": "amount",
          "type": "uint256"
        }
      ],
      "name": "transferFrom",
      "outputs": [
        {
          "internalType": "bool",
          "name": "",
          "type": "bool"
        }
      ],
      "stateMutability": "nonpayable",
      "type": "function"
    },
    {
      "inputs": [
        {
          "internalType": "address",
          "name": "newOwner",
          "type": "address"
        }
      ],
      "name": "transferOwnership",
      "outputs": [],
      "stateMutability": "nonpayable",
      "type": "function"
    }
  ],
  "bytecode": "0x610180604081815234620005375762001d8980380380916200002282866200053c565b84398201608083820312620005375782516001600160401b0392908381116200053757826200005391860162000585565b90602092838601519085821162000537576200007191870162000585565b946060828201519101519360ff851685036200053757825196838801888110888211176200044257845260019687895282890197603160f81b8952865190828211620004425760038054928284811c941680156200052c575b878510146200051657601f93848111620004cb575b508087858211600114620004645760009162000458575b5060001982841b1c191690831b1781555b845190848211620004425760049586548481811c9116801562000437575b898210146200042257858111620003d7575b5087908584116001146200036c5793839491849260009562000360575b50501b92600019911b1c19161783555b6200016f87620005e0565b98610120998a52620001818b62000785565b976101409889528581519101209a8b60e052519020906101009a828c524660a052875192868401917f8b73c3c69bb8fe3d512ecc4cf759cc79239f7b179b0ffacaa9a75d522b39400f83528985015260608401524660808401523060a084015260a0835260c0830193838510908511176200034b57838852825190206080523060c05260098054336001600160a01b0319821681179092556001600160a01b03167f8be0079c531659141344cd1fd0a4f28419497f9722a3daafe3b4186f6b6457e0600080a333156200030a5750505060025490838201809211620002f557506000917fddf252ad1be2c89b69c2b068fc378daa952ba7f163c4a11628f55a4df523b3ef9160025533835282815284832084815401905584519384523393a361016092835251926114ac9485620008dd8639608051856111af015260a0518561127b015260c05185611179015260e051856111fe01525184611224015251836106d1015251826106fb01525181610a000152f35b601190634e487b7160e01b6000525260246000fd5b610104606493927f45524332303a206d696e7420746f20746865207a65726f206164647265737300928762461bcd60e51b865260c483015260e48201520152fd5b604185634e487b7160e01b6000525260246000fd5b01519350388062000154565b9190601f1984169288600052848a6000209460005b8c89838310620003bf5750505010620003a4575b50505050811b01835562000164565b01519060f884600019921b161c191690553880808062000395565b86860151895590970196948501948893500162000381565b87600052886000208680860160051c8201928b871062000418575b0160051c019085905b8281106200040b57505062000137565b60008155018590620003fb565b92508192620003f2565b602288634e487b7160e01b6000525260246000fd5b90607f169062000125565b634e487b7160e01b600052604160045260246000fd5b90508a015138620000f6565b60008481528981208694509190601f198416908b8f5b838310620004b35750505083116200049a575b5050811b01815562000107565b8c015160001983861b60f8161c1916905538806200048d565b840151855588969094019392830192018b8f6200047a565b82600052876000208580840160051c8201928a85106200050c575b0160051c019084905b828110620004ff575050620000df565b60008155018490620004ef565b92508192620004e6565b634e487b7160e01b600052602260045260246000fd5b93607f1693620000ca565b600080fd5b601f909101601f19168101906001600160401b038211908210176200044257604052565b60005b838110620005745750506000910152565b818101518382015260200162000563565b81601f82011215620005375780516001600160401b038111620004425760405192620005bc601f8301601f1916602001856200053c565b818452602082840101116200053757620005dd916020808501910162000560565b90565b8051602091908281101562000660575090601f8251116200061e57808251920151908083106200060f57501790565b82600019910360031b1b161790565b604490620006529260405193849263305a27a960e01b84528060048501528251928391826024870152868601910162000560565b601f01601f19168101030190fd5b6001600160401b03811162000442576005928354926001938481811c911680156200077a575b838210146200051657601f811162000743575b5081601f8411600114620006d95750928293918392600094620006cd575b50501b916000199060031b1c191617905560ff90565b015192503880620006b7565b919083601f1981168760005284600020946000905b888383106200072857505050106200070e575b505050811b01905560ff90565b015160001960f88460031b161c1916905538808062000701565b858701518855909601959485019487935090810190620006ee565b8560005284601f846000209201871c820191601f8601881c015b8281106200076d57505062000699565b600081550185906200075d565b90607f169062000686565b805160209081811015620007b25750601f8251116200061e57808251920151908083106200060f57501790565b906001600160401b0382116200044257600654926001938481811c91168015620008d1575b838210146200051657601f811162000897575b5081601f84116001146200082b57509282939183926000946200081f575b50501b916000199060031b1c19161760065560ff90565b01519250388062000808565b919083601f198116600660005284600020946000905b888383106200087c575050501062000862575b505050811b0160065560ff90565b015160001960f88460031b161c1916905538808062000854565b85870151885590960195948501948793509081019062000841565b600660005284601f84600020920160051c820191601f860160051c015b828110620008c4575050620007ea565b60008155018590620008b4565b90607f1690620007d756fe6080604081815260048036101561001557600080fd5b600092833560e01c90816306fdde0314610b3757508063095ea7b314610b0d57806318160ddd14610aee57806323b872dd14610a24578063313ce567146109e65780633408e470146109cb5780633644e515146109a7578063395093511461095757806340c10f19146108a357806370a082311461086c578063715018a61461080f5780637ecebe00146107d757806384b0196e146106ba5780638da5cb5b1461069157806395d89b41146105c75780639dc29fac146104b0578063a457c2d714610409578063a9059cbb146103d8578063d505accf1461021f578063dd62ed3e146101d25763f2fde38b1461010a57600080fd5b346101ce5760203660031901126101ce57610123610c44565b9061012c610c75565b6001600160a01b0391821692831561017c575050600980546001600160a01b031981168417909155167f8be0079c531659141344cd1fd0a4f28419497f9722a3daafe3b4186f6b6457e08380a380f35b906020608492519162461bcd60e51b8352820152602660248201527f4f776e61626c653a206e6577206f776e657220697320746865207a65726f206160448201526564647265737360d01b6064820152fd5b8280fd5b50503461021b578060031936011261021b57806020926101f0610c44565b6101f8610c5f565b6001600160a01b0391821683526001865283832091168252845220549051908152f35b5080fd5b5082903461021b5760e036600319011261021b5761023b610c44565b610243610c5f565b906044359260643560843560ff811681036103d4578142116103915760018060a01b0390818516928389526007602052898920908154916001830190558a519060208201927f6e71edae12b1b97f4d1f60370fef10105fa2faae0126114a169c64845d6126c98452868d840152858a1660608401528a608084015260a083015260c082015260c0815260e0810181811067ffffffffffffffff82111761037e578b525190206103269161031e916102f8611176565b908c519161190160f01b83526002830152602282015260c43591604260a43592206110f1565b919091610fdc565b160361033b5750610338939450610eda565b80f35b606490602087519162461bcd60e51b8352820152601e60248201527f45524332305065726d69743a20696e76616c6964207369676e617475726500006044820152fd5b634e487b7160e01b8b526041875260248bfd5b875162461bcd60e51b8152602081850152601d60248201527f45524332305065726d69743a206578706972656420646561646c696e650000006044820152606490fd5b8680fd5b50503461021b578060031936011261021b576020906104026103f8610c44565b6024359033610d7e565b5160018152f35b5082346104ad57826003193601126104ad57610423610c44565b918360243592338152600160205281812060018060a01b038616825260205220549082821061045c576020856104028585038733610eda565b608490602086519162461bcd60e51b8352820152602560248201527f45524332303a2064656372656173656420616c6c6f77616e63652062656c6f77604482015264207a65726f60d81b6064820152fd5b80fd5b5082903461021b578260031936011261021b576104cb610c44565b602435906104d7610c75565b6001600160a01b031691821561057a5782845283602052848420549082821061052c5750818495600080516020611457833981519152936020938688528785520381872055816002540360025551908152a380f35b608490602087519162461bcd60e51b8352820152602260248201527f45524332303a206275726e20616d6f756e7420657863656564732062616c616e604482015261636560f01b6064820152fd5b608490602086519162461bcd60e51b8352820152602160248201527f45524332303a206275726e2066726f6d20746865207a65726f206164647265736044820152607360f81b6064820152fd5b5091903461021b578160031936011261021b57805191809380546105ea81610ccd565b80865291600191808316908115610666575060011461062b575b6106278686610615828b0383610d39565b51918291602083526020830190610c04565b0390f35b835260208084209096505b828410610653575050508261062794610615928201019438610604565b8054868501880152928601928101610636565b905061062797506106159450602092508693915060ff191682840152151560051b8201019438610604565b50503461021b578160031936011261021b5760095490516001600160a01b039091168152602090f35b5090346101ce57826003193601126101ce576106f57f00000000000000000000000000000000000000000000000000000000000000006112a1565b9261071f7f000000000000000000000000000000000000000000000000000000000000000061139c565b908251926020928385019585871067ffffffffffffffff8811176107c45750928061077a83889661076d998b9996528686528151998a99600f60f81b8b5260e0868c015260e08b0190610c04565b91898303908a0152610c04565b924660608801523060808801528460a088015286840360c088015251928381520193925b8281106107ad57505050500390f35b83518552869550938101939281019260010161079e565b634e487b7160e01b845260419052602483fd5b50503461021b57602036600319011261021b5760209181906001600160a01b036107ff610c44565b1681526007845220549051908152f35b83346104ad57806003193601126104ad57610828610c75565b600980546001600160a01b0319811690915581906001600160a01b03167f8be0079c531659141344cd1fd0a4f28419497f9722a3daafe3b4186f6b6457e08280a380f35b50503461021b57602036600319011261021b5760209181906001600160a01b03610894610c44565b16815280845220549051908152f35b5090346101ce57806003193601126101ce576108bd610c44565b90602435916108ca610c75565b6001600160a01b03169283156109155750602082600080516020611457833981519152926108fb8795600254610d5b565b60025585855284835280852082815401905551908152a380f35b6020606492519162461bcd60e51b8352820152601f60248201527f45524332303a206d696e7420746f20746865207a65726f2061646472657373006044820152fd5b50503461021b578060031936011261021b576104026020926109a061097a610c44565b338352600186528483206001600160a01b03821684528652918490205460243590610d5b565b9033610eda565b50503461021b578160031936011261021b576020906109c4611176565b9051908152f35b50503461021b578160031936011261021b5760209051468152f35b50503461021b578160031936011261021b576020905160ff7f0000000000000000000000000000000000000000000000000000000000000000168152f35b5082903461021b57606036600319011261021b57610a40610c44565b610a48610c5f565b91846044359460018060a01b038416815260016020528181203382526020522054906000198203610a82575b602086610402878787610d7e565b848210610aab5750918391610aa06020969561040295033383610eda565b919394819350610a74565b606490602087519162461bcd60e51b8352820152601d60248201527f45524332303a20696e73756666696369656e7420616c6c6f77616e63650000006044820152fd5b50503461021b578160031936011261021b576020906002549051908152f35b50503461021b578060031936011261021b57602090610402610b2d610c44565b6024359033610eda565b849084346101ce57826003193601126101ce5782600354610b5781610ccd565b80855290600190818116908115610bdc5750600114610b83575b50505061061582610627940383610d39565b60038352602095507fc2575a0e9e593c00f959f8c92f12db2869c3395a3b0502d05e2516446f71f85b5b828410610bc95750505082610627946106159282010194610b71565b8054868501880152928601928101610bad565b61062797506106159450602092508693915060ff191682840152151560051b82010194610b71565b919082519283825260005b848110610c30575050826000602080949584010152601f8019910116010190565b602081830181015184830182015201610c0f565b600435906001600160a01b0382168203610c5a57565b600080fd5b602435906001600160a01b0382168203610c5a57565b6009546001600160a01b03163303610c8957565b606460405162461bcd60e51b815260206004820152602060248201527f4f776e61626c653a2063616c6c6572206973206e6f7420746865206f776e65726044820152fd5b90600182811c92168015610cfd575b6020831014610ce757565b634e487b7160e01b600052602260045260246000fd5b91607f1691610cdc565b6040810190811067ffffffffffffffff821117610d2357604052565b634e487b7160e01b600052604160045260246000fd5b90601f8019910116810190811067ffffffffffffffff821117610d2357604052565b91908201809211610d6857565b634e487b7160e01b600052601160045260246000fd5b6001600160a01b03908116918215610e875716918215610e3657600082815280602052604081205491808310610de25760408282600080516020611457833981519152958760209652828652038282205586815220818154019055604051908152a3565b60405162461bcd60e51b815260206004820152602660248201527f45524332303a207472616e7366657220616d6f756e7420657863656564732062604482015265616c616e636560d01b6064820152608490fd5b60405162461bcd60e51b815260206004820152602360248201527f45524332303a207472616e7366657220746f20746865207a65726f206164647260448201526265737360e81b6064820152608490fd5b60405162461bcd60e51b815260206004820152602560248201527f45524332303a207472616e736665722066726f6d20746865207a65726f206164604482015264647265737360d81b6064820152608490fd5b6001600160a01b03908116918215610f8b5716918215610f3b5760207f8c5be1e5ebec7d5bd14f71427d1e84f3dd0314c0f7b2291e5b200ac8c7c3b925918360005260018252604060002085600052825280604060002055604051908152a3565b60405162461bcd60e51b815260206004820152602260248201527f45524332303a20617070726f766520746f20746865207a65726f206164647265604482015261737360f01b6064820152608490fd5b60405162461bcd60e51b8152602060048201526024808201527f45524332303a20617070726f76652066726f6d20746865207a65726f206164646044820152637265737360e01b6064820152608490fd5b60058110156110db5780610fed5750565b600181036110355760405162461bcd60e51b815260206004820152601860248201527745434453413a20696e76616c6964207369676e617475726560401b6044820152606490fd5b600281036110825760405162461bcd60e51b815260206004820152601f60248201527f45434453413a20696e76616c6964207369676e6174757265206c656e677468006044820152606490fd5b60031461108b57565b60405162461bcd60e51b815260206004820152602260248201527f45434453413a20696e76616c6964207369676e6174757265202773272076616c604482015261756560f01b6064820152608490fd5b634e487b7160e01b600052602160045260246000fd5b9291906fa2a8918ca85bafe22016d0b997e4df60600160ff1b03831161116a5791608094939160ff602094604051948552168484015260408301526060820152600093849182805260015afa1561115d5781516001600160a01b03811615611157579190565b50600190565b50604051903d90823e3d90fd5b50505050600090600390565b307f00000000000000000000000000000000000000000000000000000000000000006001600160a01b03161480611278575b156111d1577f000000000000000000000000000000000000000000000000000000000000000090565b60405160208101907f8b73c3c69bb8fe3d512ecc4cf759cc79239f7b179b0ffacaa9a75d522b39400f82527f000000000000000000000000000000000000000000000000000000000000000060408201527f000000000000000000000000000000000000000000000000000000000000000060608201524660808201523060a082015260a0815260c0810181811067ffffffffffffffff821117610d235760405251902090565b507f000000000000000000000000000000000000000000000000000000000000000046146111a8565b60ff81146112df5760ff811690601f82116112cd57604051916112c383610d07565b8252602082015290565b604051632cd44ac360e21b8152600490fd5b506040516005548160006112f283610ccd565b80835260019380851690811561137b575060011461131b575b5061131892500382610d39565b90565b600560009081527f036b6384b5eca791c62761152d0c79bb0604c104a5fb6f4eb0703f3154bb3db094602093509091905b81831061136357505061131893508201013861130b565b8554878401850152948501948694509183019161134c565b905061131894506020925060ff191682840152151560051b8201013861130b565b60ff81146113be5760ff811690601f82116112cd57604051916112c383610d07565b506040516006548160006113d183610ccd565b80835260019380851690811561137b57506001146113f6575061131892500382610d39565b600660009081527ff652222313e28459528d920b65115c16c04f3efc82aaedc97be59f3f377c0d3f94602093509091905b81831061143e57505061131893508201013861130b565b8554878401850152948501948694509183019161142756feddf252ad1be2c89b69c2b068fc378daa952ba7f163c4a11628f55a4df523b3efa2646970667358221220ce0c579b86868df5d1a4d20c1a85c274dbd43d7a29a77e4a5db1244901b9430264736f6c63430008130033",
  "linkReferences": {},
  "deployedLinkReferences": {}
}