{
  "_format": "hh-sol-artifact-1",
  "contractName": "CallsSimulator",
  "sourceName": "src/e2e-tests/contracts/mocks/CallsSimulator.sol",
  "abi": [
    {
      "inputs": [],
      "name": "ArraySizeMismatch",
      "type": "error"
    },
    {
      "inputs": [
        {
          "internalType": "address[]",
          "name": "targets",
          "type": "address[]"
        },
        {
          "internalType": "bytes[]",
          "name": "data",
          "type": "bytes[]"
        }
      ],
      "name": "simulateCalls",
      "outputs": [],
      "stateMutability": "nonpayable",
      "type": "function"
    }
  ],
  "bytecode": "0x608080604052346100165761038d908161001c8239f35b600080fdfe608060409080825260048036101561001657600080fd5b6000803560e01c637f29a59d1461002c57600080fd5b3461028057836003193601126102805767ffffffffffffffff90823582811161027c5761005c9036908501610283565b95906024968735858111610278576100779036908801610283565b94909785830361026a575061008b826102f1565b94610098855196876102b9565b8286526100a4836102f1565b966020998a880195601f19809a01368837845b86811061013b5750505050505050859661010183610111602d60449a61013296601f9998519586928301996c43414c4c5f524553554c54535f60981b8b5251809285850190610334565b810103600d8101855201836102b9565b5198899762461bcd60e51b8952880152519283809288015287870190610334565b01168101030190fd5b600581901b82810135906001600160a01b0382168203610253578683101561025757840135601e198536030181121561025357840180359086821161024f578f01813603811361024f57918189809481948f519384928337810182815203925af13d15610248578d3d6101ad816102f1565b906101ba8d5192836102b9565b81528881923d92013e5b8161023d575b81610219575b50156102075760316101e2828c61030d565b535b60001981146101f5576001016100b7565b634e487b7160e01b865260118c528d86fd5b6030610213828c61030d565b536101e4565b90508d81805181010312610239578d0151801515810361023957386101d0565b8680fd5b80518f1491506101ca565b60606101c4565b8880fd5b8780fd5b50634e487b7160e01b875260328d528e87fd5b63cc6e40b360e01b81528790fd5b8480fd5b5080fd5b80fd5b9181601f840112156102b45782359167ffffffffffffffff83116102b4576020808501948460051b0101116102b457565b600080fd5b90601f8019910116810190811067ffffffffffffffff8211176102db57604052565b634e487b7160e01b600052604160045260246000fd5b67ffffffffffffffff81116102db57601f01601f191660200190565b90815181101561031e570160200190565b634e487b7160e01b600052603260045260246000fd5b60005b8381106103475750506000910152565b818101518382015260200161033756fea26469706673582212205e2ce6b4e5aaf845c3bf5a410564def7f736a5d389819179ddd112bda65b324164736f6c63430008130033",
  "linkReferences": {},
  "deployedLinkReferences": {}
}