{
  "_format": "hh-sol-artifact-1",
  "contractName": "ExtensionMock",
  "sourceName": "src/e2e-tests/contracts/mocks/ExtensionMock.sol",
  "abi": [
    {
      "inputs": [
        {
          "internalType": "bytes",
          "name": "extension",
          "type": "bytes"
        }
      ],
      "name": "getCustomData",
      "outputs": [
        {
          "internalType": "bytes",
          "name": "",
          "type": "bytes"
        }
      ],
      "stateMutability": "pure",
      "type": "function"
    }
  ],
  "bytecode": "0x6080806040523461001657610108908161001c8239f35b600080fdfe6080806040526004361015601257600080fd5b6000803560e01c63d0cfe3ab14602757600080fd5b3460cf576020908160031936011260cf576004359067ffffffffffffffff9283831160cb573660238401121560cb57826004013593841160cb57366024858501011160cb57602483013581851060bc575b60e01c93808583011160b85791859391856040969403926044601f19958686019284895283858a0152010187870137848301015260001901168101030190f35b8280fd5b60001985830360031b1b166078565b5080fd5b80fdfea26469706673582212201117dae8bb5e9e612e70284b2f0db92cc571d49ccf4e7d7cf354667f6dce2fe864736f6c63430008130033",
  "linkReferences": {},
  "deployedLinkReferences": {}
}