{
  "_format": "hh-sol-artifact-1",
  "contractName": "HashChecker",
  "sourceName": "src/e2e-tests/contracts/mocks/HashChecker.sol",
  "abi": [
    {
      "inputs": [
        {
          "internalType": "address",
          "name": "limitOrderProtocol",
          "type": "address"
        }
      ],
      "stateMutability": "nonpayable",
      "type": "constructor"
    },
    {
      "inputs": [],
      "name": "IncorrectOrderHash",
      "type": "error"
    },
    {
      "anonymous": false,
      "inputs": [
        {
          "indexed": true,
          "internalType": "address",
          "name": "previousOwner",
          "type": "address"
        },
        {
          "indexed": true,
          "internalType": "address",
          "name": "newOwner",
          "type": "address"
        }
      ],
      "name": "OwnershipTransferred",
      "type": "event"
    },
    {
      "inputs": [
        {
          "internalType": "bytes32",
          "name": "",
          "type": "bytes32"
        }
      ],
      "name": "hashes",
      "outputs": [
        {
          "internalType": "bool",
          "name": "",
          "type": "bool"
        }
      ],
      "stateMutability": "view",
      "type": "function"
    },
    {
      "inputs": [],
      "name": "limitOrderProtocolDomainSeparator",
      "outputs": [
        {
          "internalType": "bytes32",
          "name": "",
          "type": "bytes32"
        }
      ],
      "stateMutability": "view",
      "type": "function"
    },
    {
      "inputs": [],
      "name": "owner",
      "outputs": [
        {
          "internalType": "address",
          "name": "",
          "type": "address"
        }
      ],
      "stateMutability": "view",
      "type": "function"
    },
    {
      "inputs": [
        {
          "components": [
            {
              "internalType": "uint256",
              "name": "salt",
              "type": "uint256"
            },
            {
              "internalType": "Address",
              "name": "maker",
              "type": "uint256"
            },
            {
              "internalType": "Address",
              "name": "receiver",
              "type": "uint256"
            },
            {
              "internalType": "Address",
              "name": "makerAsset",
              "type": "uint256"
            },
            {
              "internalType": "Address",
              "name": "takerAsset",
              "type": "uint256"
            },
            {
              "internalType": "uint256",
              "name": "makingAmount",
              "type": "uint256"
            },
            {
              "internalType": "uint256",
              "name": "takingAmount",
              "type": "uint256"
            },
            {
              "internalType": "MakerTraits",
              "name": "makerTraits",
              "type": "uint256"
            }
          ],
          "internalType": "struct IOrderMixin.Order",
          "name": "order",
          "type": "tuple"
        },
        {
          "internalType": "bytes32",
          "name": "orderHash",
          "type": "bytes32"
        },
        {
          "internalType": "address",
          "name": "taker",
          "type": "address"
        },
        {
          "internalType": "uint256",
          "name": "makingAmount",
          "type": "uint256"
        },
        {
          "internalType": "uint256",
          "name": "takingAmount",
          "type": "uint256"
        },
        {
          "internalType": "uint256",
          "name": "remainingMakingAmount",
          "type": "uint256"
        },
        {
          "internalType": "bytes",
          "name": "extraData",
          "type": "bytes"
        }
      ],
      "name": "preInteraction",
      "outputs": [],
      "stateMutability": "nonpayable",
      "type": "function"
    },
    {
      "inputs": [],
      "name": "renounceOwnership",
      "outputs": [],
      "stateMutability": "nonpayable",
      "type": "function"
    },
    {
      "inputs": [
        {
          "components": [
            {
              "internalType": "uint256",
              "name": "salt",
              "type": "uint256"
            },
            {
              "internalType": "Address",
              "name": "maker",
              "type": "uint256"
            },
            {
              "internalType": "Address",
              "name": "receiver",
              "type": "uint256"
            },
            {
              "internalType": "Address",
              "name": "makerAsset",
              "type": "uint256"
            },
            {
              "internalType": "Address",
              "name": "takerAsset",
              "type": "uint256"
            },
            {
              "internalType": "uint256",
              "name": "makingAmount",
              "type": "uint256"
            },
            {
              "internalType": "uint256",
              "name": "takingAmount",
              "type": "uint256"
            },
            {
              "internalType": "MakerTraits",
              "name": "makerTraits",
              "type": "uint256"
            }
          ],
          "internalType": "struct IOrderMixin.Order",
          "name": "order",
          "type": "tuple"
        },
        {
          "internalType": "bool",
          "name": "status",
          "type": "bool"
        }
      ],
      "name": "setHashOrderStatus",
      "outputs": [],
      "stateMutability": "nonpayable",
      "type": "function"
    },
    {
      "inputs": [
        {
          "internalType": "address",
          "name": "newOwner",
          "type": "address"
        }
      ],
      "name": "transferOwnership",
      "outputs": [],
      "stateMutability": "nonpayable",
      "type": "function"
    }
  ],
  "bytecode": "0x60a06040908082523461014757806106f6803803809161001f828561014c565b833960209283918101031261014757516001600160a01b039081811681036101475760008054336001600160a01b03198216811783558651949293929091167f8be0079c531659141344cd1fd0a4f28419497f9722a3daafe3b4186f6b6457e08480a3633644e51560e01b838501908152600484526001600160401b03938681018581118282101761013357875251839283929083905af1503d1561012a573d918211610116578351916100dc601f8201601f191685018461014c565b82523d818484013e5b8282805181010312610113575001516080525161057090816101868239608051818181608801526102220152f35b80fd5b634e487b7160e01b81526041600452602490fd5b606091506100e5565b634e487b7160e01b85526041600452602485fd5b600080fd5b601f909101601f19168101906001600160401b0382119082101761016f57604052565b634e487b7160e01b600052604160045260246000fdfe608060408181526004918236101561001657600080fd5b600092833560e01c91826358a45aa8146102f257508163715018a6146102955781638da5cb5b1461026d578163bf325fbc146101ae578163d658d2e914610181578163f2fde38b146100af575063fadb31831461007257600080fd5b346100ab57816003193601126100ab57602090517f00000000000000000000000000000000000000000000000000000000000000008152f35b5080fd5b9190503461017d57602036600319011261017d576001600160a01b03823581811693919290849003610178576100e36104e2565b83156101265750506000548260018060a01b0319821617600055167f8be0079c531659141344cd1fd0a4f28419497f9722a3daafe3b4186f6b6457e0600080a380f35b906020608492519162461bcd60e51b8352820152602660248201527f4f776e61626c653a206e6577206f776e657220697320746865207a65726f206160448201526564647265737360d01b6064820152fd5b600080fd5b8280fd5b90503461017d57602036600319011261017d578160209360ff923581526001855220541690519015158152f35b9190503461017d57366003190161012080821261026957610100809212610269576101043593841515809503610265576042926101e96104e2565b8451917f3af21ec5a20011b88d3b7b4ed7c806cef05a5980cf34974bcd53566a131f7e4c835260208301372082519061190160f01b82527f000000000000000000000000000000000000000000000000000000000000000060028301526022820152208352600160205282209060ff8019835416911617905580f35b8580fd5b8480fd5b5050346100ab57816003193601126100ab57905490516001600160a01b039091168152602090f35b83346102ef57806003193601126102ef576102ae6104e2565b600080546001600160a01b0319811682556001600160a01b03167f8be0079c531659141344cd1fd0a4f28419497f9722a3daafe3b4186f6b6457e08280a380f35b80fd5b929150346104de576101c09236600319018481126102655761010013610269576101249384356001600160a01b0381169287929184900361017d576101a4803567ffffffffffffffff95868211610265573660238301121561026557818801358781116104da5736602482850101116104da576101049460ff8b8735998a81526001602052205416156104cc575090818c979695949392610391578780f35b60248301356bffffffffffffffffffffffff1980821691601484106104b7575b5050816014116104b35760601c95863b156104b35788948b938d519e8f9a8b998a97630b148b5560e31b8952803590890152602435602489015260443560448901526064356064890152608435608489015260a43560a489015260c43560c489015260e43560e48901528701528501526101448035908501526101648035908501526101848035908501528301526013198101806101c484015260386101e49401848401378181016101d001849052600b01601f191681010301925af180156104a957610485575b84818080808080808780f35b831161049657505238808080610479565b634e487b7160e01b845260419052602483fd5b83513d87823e3d90fd5b8880fd5b908092508360140360031b1b161638806103b1565b6315b369b360e01b81528990fd5b8680fd5b8380fd5b6000546001600160a01b031633036104f657565b606460405162461bcd60e51b815260206004820152602060248201527f4f776e61626c653a2063616c6c6572206973206e6f7420746865206f776e65726044820152fdfea26469706673582212206e81a25ce1e75ae0328a637a5a6d40437b623dc28d3a7f6b90ce7e33f9d7e01c64736f6c63430008130033",
  "linkReferences": {},
  "deployedLinkReferences": {}
}