{
  "_format": "hh-sol-artifact-1",
  "contractName": "ImmutableOwner",
  "sourceName": "src/e2e-tests/contracts/helpers/ImmutableOwner.sol",
  "abi": [
    {
      "inputs": [
        {
          "internalType": "address",
          "name": "_immutableOwner",
          "type": "address"
        }
      ],
      "stateMutability": "nonpayable",
      "type": "constructor"
    },
    {
      "inputs": [],
      "name": "IOAccessDenied",
      "type": "error"
    },
    {
      "inputs": [],
      "name": "immutableOwner",
      "outputs": [
        {
          "internalType": "address",
          "name": "",
          "type": "address"
        }
      ],
      "stateMutability": "view",
      "type": "function"
    }
  ],
  "bytecode": "0x60a03461006857601f61012538819003918201601f19168301916001600160401b0383118484101761006d5780849260209460405283398101031261006857516001600160a01b03811681036100685760805260405160a1908161008482396080518160380152f35b600080fd5b634e487b7160e01b600052604160045260246000fdfe6080806040526004361015601257600080fd5b600090813560e01c638ec7356814602857600080fd5b34606757816003193601126067577f00000000000000000000000000000000000000000000000000000000000000006001600160a01b03168152602090f35b5080fdfea2646970667358221220f15371ce3deecee6c73af1df235d39cb3eff9c2664c737d2013fe49f609b01be64736f6c63430008130033",
  "linkReferences": {},
  "deployedLinkReferences": {}
}