{
  "_format": "hh-sol-artifact-1",
  "contractName": "ChainlinkCalculator",
  "sourceName": "src/e2e-tests/contracts/helpers/ChainlinkCalculator.sol",
  "abi": [
    {
      "inputs": [],
      "name": "DifferentOracleDecimals",
      "type": "error"
    },
    {
      "inputs": [
        {
          "internalType": "contract AggregatorV3Interface",
          "name": "oracle1",
          "type": "address"
        },
        {
          "internalType": "contract AggregatorV3Interface",
          "name": "oracle2",
          "type": "address"
        },
        {
          "internalType": "uint256",
          "name": "spread",
          "type": "uint256"
        },
        {
          "internalType": "int256",
          "name": "decimalsScale",
          "type": "int256"
        },
        {
          "internalType": "uint256",
          "name": "amount",
          "type": "uint256"
        }
      ],
      "name": "doublePrice",
      "outputs": [
        {
          "internalType": "uint256",
          "name": "result",
          "type": "uint256"
        }
      ],
      "stateMutability": "view",
      "type": "function"
    },
    {
      "inputs": [
        {
          "internalType": "contract AggregatorV3Interface",
          "name": "oracle",
          "type": "address"
        },
        {
          "internalType": "uint256",
          "name": "inverseAndSpread",
          "type": "uint256"
        },
        {
          "internalType": "uint256",
          "name": "amount",
          "type": "uint256"
        }
      ],
      "name": "singlePrice",
      "outputs": [
        {
          "internalType": "uint256",
          "name": "",
          "type": "uint256"
        }
      ],
      "stateMutability": "view",
      "type": "function"
    }
  ],
  "bytecode": "0x60808060405234610016576105c9908161001c8239f35b600080fdfe608060408181526004918236101561001657600080fd5b600092833560e01c918263331f9d1b1461007257505063c05435f11461003b57600080fd5b3461006e57606036600319011261006e5760209061006761005a6102e2565b60443590602435906103f4565b9051908152f35b5080fd5b8385346102df5760a08060031936011261006e5761008e6102e2565b906024356001600160a01b03818116918290036102db5760643593169263313ce56760e01b9687815260209788828b81895afa9182156102b25787926102bc575b50875190815288818b81875afa9081156102b25760ff9182918991610285575b501691160361027557855183818a81633fabe5a360e21b988982525afa90811561026b579061013d918791610249575b50610137610131604435608435610381565b91610536565b90610381565b90858113156101f557839161013761015761015c93610536565b610585565b935b8887518094819382525afa9182156101eb5790610184929185926101b9575b5050610536565b91633b9aca00928381029381850414901517156101a6575090610067916103d4565b634e487b7160e01b815260118652602490fd5b6101d89250803d106101e4575b6101d081836102fd565b81019061034c565b5050509050878061017d565b503d6101c6565b85513d86823e3d90fd5b858195929512610208575b50829061015e565b909390600160ff1b811461023657839161022961015761022f938903610536565b906103d4565b9390610200565b634e487b7160e01b865260118952602486fd5b6102609150853d87116101e4576101d081836102fd565b50505090508a61011f565b87513d88823e3d90fd5b855163274cd55d60e01b81528890fd5b6102a591508b3d8d116102ab575b61029d81836102fd565b8101906103aa565b8c6100ef565b503d610293565b88513d89823e3d90fd5b6102d4919250893d8b116102ab5761029d81836102fd565b908a6100cf565b8480fd5b80fd5b600435906001600160a01b03821682036102f857565b600080fd5b90601f8019910116810190811067ffffffffffffffff82111761031f57604052565b634e487b7160e01b600052604160045260246000fd5b519069ffffffffffffffffffff821682036102f857565b908160a09103126102f85761036081610335565b9160208201519160408101519161037e608060608401519301610335565b90565b8181029291811591840414171561039457565b634e487b7160e01b600052601160045260246000fd5b908160209103126102f8575160ff811681036102f85790565b60ff16604d811161039457600a0a90565b81156103de570490565b634e487b7160e01b600052601260045260246000fd5b60408051633fabe5a360e21b8152936001600160a01b039290921692909160a085600481875afa94851561052b57600095610506575b506001600160ff1b03821691600160ff1b16156104b95761044f600492602092610381565b9383519283809263313ce56760e01b82525afa9182156104af575061013161048d93610137633b9aca00969461022994600091610491575b506103c3565b0490565b6104a9915060203d81116102ab5761029d81836102fd565b38610487565b513d6000823e3d90fd5b60049293946101376101316020946104d094610381565b9383519283809263313ce56760e01b82525afa9182156104af57509161022961048d92633b9aca009460009161049157506103c3565b61051f91955060a03d81116101e4576101d081836102fd565b5050509050933861042a565b83513d6000823e3d90fd5b600081126105415790565b606460405162461bcd60e51b815260206004820152602060248201527f53616665436173743a2076616c7565206d75737420626520706f7369746976656044820152fd5b604d811161039457600a0a9056fea2646970667358221220aa82a0020e0bb7d029d0d5cd68c5a1e7a7e4fd7c75abfcf063e328748ecc389e64736f6c63430008130033",
  "linkReferences": {},
  "deployedLinkReferences": {}
}