{
  "_format": "hh-sol-artifact-1",
  "contractName": "DutchAuctionCalculator",
  "sourceName": "src/e2e-tests/contracts/helpers/DutchAuctionCalculator.sol",
  "abi": [
    {
      "inputs": [
        {
          "internalType": "uint256",
          "name": "startTimeEndTime",
          "type": "uint256"
        },
        {
          "internalType": "uint256",
          "name": "takingAmountStart",
          "type": "uint256"
        },
        {
          "internalType": "uint256",
          "name": "takingAmountEnd",
          "type": "uint256"
        },
        {
          "internalType": "uint256",
          "name": "makingAmount",
          "type": "uint256"
        },
        {
          "internalType": "uint256",
          "name": "requestedTakingAmount",
          "type": "uint256"
        }
      ],
      "name": "getMakingAmount",
      "outputs": [
        {
          "internalType": "uint256",
          "name": "",
          "type": "uint256"
        }
      ],
      "stateMutability": "view",
      "type": "function"
    },
    {
      "inputs": [
        {
          "internalType": "uint256",
          "name": "startTimeEndTime",
          "type": "uint256"
        },
        {
          "internalType": "uint256",
          "name": "takingAmountStart",
          "type": "uint256"
        },
        {
          "internalType": "uint256",
          "name": "takingAmountEnd",
          "type": "uint256"
        },
        {
          "internalType": "uint256",
          "name": "makingAmount",
          "type": "uint256"
        },
        {
          "internalType": "uint256",
          "name": "requestedMakingAmount",
          "type": "uint256"
        }
      ],
      "name": "getTakingAmount",
      "outputs": [
        {
          "internalType": "uint256",
          "name": "",
          "type": "uint256"
        }
      ],
      "stateMutability": "view",
      "type": "function"
    }
  ],
  "bytecode": "0x60808060405234610016576101ff908161001c8239f35b600080fdfe6080604052600436101561001257600080fd5b6000803560e01c8063172f68831461006b57635a592edb1461003357600080fd5b3461006857602061006061005561005b61004c366100c9565b95929093610153565b926100f0565b610119565b604051908152f35b80fd5b5034610068576100979061009c610091610084366100c9565b9281989495929195610153565b906100f0565b610139565b6000198101919082116100b55760206100608484610119565b634e487b7160e01b81526011600452602490fd5b60a09060031901126100eb576004359060243590604435906064359060843590565b600080fd5b8181029291811591840414171561010357565b634e487b7160e01b600052601160045260246000fd5b8115610123570490565b634e487b7160e01b600052601260045260246000fd5b9190820180921161010357565b9190820391821161010357565b6101b3926001600160801b038216926101ad9260801c916101a791906101a190428710156101c357865b85818111156101b657610091915061019b81955b610091878c610146565b94610146565b90610139565b92610146565b90610119565b90565b61019b6100919295610191565b4261017d56fea2646970667358221220d5b76a08e5872c13275b3e0a1a32990d473f353d25cca3de4fd37bbbff1e7f0064736f6c63430008130033",
  "linkReferences": {},
  "deployedLinkReferences": {}
}