{
  "_format": "hh-sol-artifact-1",
  "contractName": "ETHOrders",
  "sourceName": "src/e2e-tests/contracts/helpers/ETHOrders.sol",
  "abi": [
    {
      "inputs": [
        {
          "internalType": "contract IWETH",
          "name": "weth",
          "type": "address"
        },
        {
          "internalType": "address",
          "name": "limitOrderProtocol",
          "type": "address"
        }
      ],
      "stateMutability": "nonpayable",
      "type": "constructor"
    },
    {
      "inputs": [],
      "name": "AccessDenied",
      "type": "error"
    },
    {
      "inputs": [],
      "name": "EthDepositRejected",
      "type": "error"
    },
    {
      "inputs": [],
      "name": "ExistingOrder",
      "type": "error"
    },
    {
      "inputs": [],
      "name": "ExtensionInvalid",
      "type": "error"
    },
    {
      "inputs": [],
      "name": "InvalidOrder",
      "type": "error"
    },
    {
      "inputs": [],
      "name": "MissingOrderExtension",
      "type": "error"
    },
    {
      "inputs": [],
      "name": "NotEnoughBalance",
      "type": "error"
    },
    {
      "inputs": [],
      "name": "UnexpectedOrderExtension",
      "type": "error"
    },
    {
      "anonymous": false,
      "inputs": [
        {
          "indexed": false,
          "internalType": "bytes32",
          "name": "orderHash",
          "type": "bytes32"
        },
        {
          "indexed": false,
          "internalType": "uint256",
          "name": "amount",
          "type": "uint256"
        }
      ],
      "name": "ETHDeposited",
      "type": "event"
    },
    {
      "anonymous": false,
      "inputs": [
        {
          "indexed": false,
          "internalType": "bytes32",
          "name": "orderHash",
          "type": "bytes32"
        },
        {
          "indexed": false,
          "internalType": "uint256",
          "name": "amount",
          "type": "uint256"
        }
      ],
      "name": "ETHOrderCancelled",
      "type": "event"
    },
    {
      "inputs": [
        {
          "internalType": "MakerTraits",
          "name": "makerTraits",
          "type": "uint256"
        },
        {
          "internalType": "bytes32",
          "name": "orderHash",
          "type": "bytes32"
        }
      ],
      "name": "cancelOrder",
      "outputs": [],
      "stateMutability": "nonpayable",
      "type": "function"
    },
    {
      "inputs": [
        {
          "components": [
            {
              "internalType": "uint256",
              "name": "salt",
              "type": "uint256"
            },
            {
              "internalType": "Address",
              "name": "maker",
              "type": "uint256"
            },
            {
              "internalType": "Address",
              "name": "receiver",
              "type": "uint256"
            },
            {
              "internalType": "Address",
              "name": "makerAsset",
              "type": "uint256"
            },
            {
              "internalType": "Address",
              "name": "takerAsset",
              "type": "uint256"
            },
            {
              "internalType": "uint256",
              "name": "makingAmount",
              "type": "uint256"
            },
            {
              "internalType": "uint256",
              "name": "takingAmount",
              "type": "uint256"
            },
            {
              "internalType": "MakerTraits",
              "name": "makerTraits",
              "type": "uint256"
            }
          ],
          "internalType": "struct IOrderMixin.Order",
          "name": "order",
          "type": "tuple"
        },
        {
          "internalType": "bytes",
          "name": "extension",
          "type": "bytes"
        }
      ],
      "name": "ethOrderDeposit",
      "outputs": [
        {
          "internalType": "bytes32",
          "name": "orderHash",
          "type": "bytes32"
        }
      ],
      "stateMutability": "payable",
      "type": "function"
    },
    {
      "inputs": [
        {
          "internalType": "bytes32[]",
          "name": "orderHashes",
          "type": "bytes32[]"
        }
      ],
      "name": "ethOrdersBatch",
      "outputs": [
        {
          "components": [
            {
              "internalType": "address",
              "name": "maker",
              "type": "address"
            },
            {
              "internalType": "uint96",
              "name": "balance",
              "type": "uint96"
            }
          ],
          "internalType": "struct ETHOrders.ETHOrder[]",
          "name": "ethOrders",
          "type": "tuple[]"
        }
      ],
      "stateMutability": "view",
      "type": "function"
    },
    {
      "inputs": [
        {
          "internalType": "bytes32",
          "name": "orderHash",
          "type": "bytes32"
        },
        {
          "internalType": "bytes",
          "name": "signature",
          "type": "bytes"
        }
      ],
      "name": "isValidSignature",
      "outputs": [
        {
          "internalType": "bytes4",
          "name": "",
          "type": "bytes4"
        }
      ],
      "stateMutability": "view",
      "type": "function"
    },
    {
      "inputs": [
        {
          "internalType": "bytes32",
          "name": "",
          "type": "bytes32"
        }
      ],
      "name": "ordersMakersBalances",
      "outputs": [
        {
          "internalType": "address",
          "name": "maker",
          "type": "address"
        },
        {
          "internalType": "uint96",
          "name": "balance",
          "type": "uint96"
        }
      ],
      "stateMutability": "view",
      "type": "function"
    },
    {
      "inputs": [
        {
          "components": [
            {
              "internalType": "uint256",
              "name": "salt",
              "type": "uint256"
            },
            {
              "internalType": "Address",
              "name": "maker",
              "type": "uint256"
            },
            {
              "internalType": "Address",
              "name": "receiver",
              "type": "uint256"
            },
            {
              "internalType": "Address",
              "name": "makerAsset",
              "type": "uint256"
            },
            {
              "internalType": "Address",
              "name": "takerAsset",
              "type": "uint256"
            },
            {
              "internalType": "uint256",
              "name": "makingAmount",
              "type": "uint256"
            },
            {
              "internalType": "uint256",
              "name": "takingAmount",
              "type": "uint256"
            },
            {
              "internalType": "MakerTraits",
              "name": "makerTraits",
              "type": "uint256"
            }
          ],
          "internalType": "struct IOrderMixin.Order",
          "name": "",
          "type": "tuple"
        },
        {
          "internalType": "bytes32",
          "name": "orderHash",
          "type": "bytes32"
        },
        {
          "internalType": "address",
          "name": "",
          "type": "address"
        },
        {
          "internalType": "uint256",
          "name": "makingAmount",
          "type": "uint256"
        },
        {
          "internalType": "uint256",
          "name": "",
          "type": "uint256"
        },
        {
          "internalType": "uint256",
          "name": "",
          "type": "uint256"
        },
        {
          "internalType": "bytes",
          "name": "",
          "type": "bytes"
        }
      ],
      "name": "postInteraction",
      "outputs": [],
      "stateMutability": "nonpayable",
      "type": "function"
    },
    {
      "stateMutability": "payable",
      "type": "receive"
    }
  ],
  "bytecode": "0x60e0806040523461010f57604081610cdd803803809161001f8285610114565b83398101031261010f5780516001600160a01b038082169283830361010f57602001519081169182820361010f578360805260c05260a0526040519063095ea7b360e01b825260048201526000196024820152602081604481600080965af18015610104576100c6575b604051610b8f908161014e8239608051816020015260a05181818160df015281816104a60152610698015260c05181818161015f01526107750152f35b6020813d82116100fc575b816100de60209383610114565b810103126100f85751801515036100f55780610089565b80fd5b5080fd5b3d91506100d1565b6040513d84823e3d90fd5b600080fd5b601f909101601f19168101906001600160401b0382119082101761013757604052565b634e487b7160e01b600052604160045260246000fdfe608060408181526004918236101561005d575b50361561001e57600080fd5b7f00000000000000000000000000000000000000000000000000000000000000006001600160a01b0316330361005057005b51631b10b0f960e01b8152fd5b600090813560e01c9081630b85398c1461053d575080630eb50f7c146104485780631626ba7e146103f55780631ae773731461025a578063880d9bda146102235763b68fb020036100125791903461021f578060031936011261021f576024358084526020849052818420546001600160a01b039390841633036102115784847f000000000000000000000000000000000000000000000000000000000000000016803b1561020d57819060448651809481936305b47d8160e51b83528735888401528860248401525af18015610203576101d6575b5081855284602052828520908154918260a01c958693169055632e1a7d4d60e01b8652528380602481807f00000000000000000000000000000000000000000000000000000000000000005af1156101cc573033036101bd575b7f397f19dc09129d410bbc6c72733c013795df7df235e104118bd69cbfd7bfad509282519182526020820152a180f35b838080808633611388f161018d575b81513d85823e3d90fd5b6001600160401b0381969296116101f05783529338610133565b634e487b7160e01b825260418652602482fd5b84513d88823e3d90fd5b5080fd5b825163af61069360e01b8152fd5b8280fd5b50913461021f57602036600319011261021f5791819235815280602052205481519060018060a01b038116825260a01c6020820152f35b5091903461021f576020806003193601126103f1578235926001600160401b038085116103ed57366023860112156103ed57848201359081116103ed57602491600595368484891b830101116103e9576102b8839895979698610948565b956102c589519788610927565b838752601f196102d485610948565b01865b8181106103bf575050855b84811061034c57505050505050835193838594850191818652845180935281818701950193905b8382106103165786860387f35b845180516001600160a01b031687528301516001600160601b031686840152879650948501949382019360019190910190610309565b8581839b999a989b1b840101358a52898752878a2088519061036d826108f6565b546001600160a01b038116825260a01c8882015261038b828b61095f565b52610396818a61095f565b5060001981146103ad5760010198959796986102e2565b634e487b7160e01b8a5260118452858afd5b988a989981989b516103d0816108f6565b8c81528c8382015282828d0101520199969897996102d7565b8780fd5b8580fd5b8380fd5b5034610445578160031936011261044557602435906001600160401b038211610445575060209261042c61043392369083016108c4565b9135610989565b90516001600160e01b03199091168152f35b80fd5b50903461020d5736600319016101c0811261021f576101001361020d576001600160a01b03906101043561012435838116036103f15761014435926101a4356001600160401b0381116103ed576104a290369088016108c4565b50507f000000000000000000000000000000000000000000000000000000000000000016330361052d5780845283602052828285205460a01c1061051d5783526020839052822080546001600160a01b0381166001600160601b0390931660a091821c03901b6001600160a01b031916919091179055905080f35b815163569d45cf60e11b81528590fd5b8151634ca8886760e01b81528590fd5b929190503660031901610120811261020d576101001361044557610104936001600160401b0385358181116103f15761057990369084016108c4565b96909160e43596600160fb1b8816156108b65750600160f91b87161561089f57871561088f57871161087c5784516105bb601f8901601f191660200182610927565b878152602081019036898501116103ed57888483378089016020018690525190206001600160a01b0390811684359091160361086c575b6001600160a01b03602435818116989097919390308a036108555760443599858b1690811561086557505b85339116036108555760a43591348303610845579061063b91610b0e565b6014811491821592610801575b50506107f157865198899863802b2ef160e01b8a528635878b015260248a015260448901526064356064890152608435608489015260a488015260c43560c488015260e4870152602096879181847f0000000000000000000000000000000000000000000000000000000000000000165afa9485156107e75783956107b8575b508483528286528084842054166107a9578351610728916106e8826108f6565b3382526001600160601b033416888301908152878652858952868620925190516001600160a01b031960a09190911b1691166001600160a01b0316179055565b34610763575b50507f60ce4f4b6bd3ed41b0d13b82f0db1e0fa45c1316d7e982ae5e02d683e929d7cb8180518481523486820152a151908152f35b630d0e30db60e41b82528190819081347f00000000000000000000000000000000000000000000000000000000000000005af1156107a1578061072e565b3d81803e3d90fd5b508251633046a0f560e11b8152fd5b9094508581813d83116107e0575b6107d08183610927565b8101031261021f575193386106c8565b503d6107c6565b84513d85823e3d90fd5b865163af61069360e01b81528590fd5b6bffffffffffffffffffffffff199250358281169160148110610830575b505060601c30141590503880610648565b8391925060140360031b1b161680388061081f565b885163af61069360e01b81528790fd5b8751634ca8886760e01b81528690fd5b905061061d565b8451634f06975160e01b81528390fd5b634e487b7160e01b845260418352602484fd5b855163b2d25e4960e01b81528490fd5b5086156105f25784516374896a7b60e01b81528390fd5b63af61069360e01b81528490fd5b9181601f840112156108f1578235916001600160401b0383116108f157602083818601950101116108f157565b600080fd5b604081019081106001600160401b0382111761091157604052565b634e487b7160e01b600052604160045260246000fd5b90601f801991011681019081106001600160401b0382111761091157604052565b6001600160401b0381116109115760051b60200190565b80518210156109735760209160051b010190565b634e487b7160e01b600052603260045260246000fd5b6000818152602081905260409020546109ad939291906001600160a01b03166109c9565b156109bd57630b135d3f60e11b90565b6001600160e01b031990565b90916001600160a01b0380831692908315610b0357604093848714918215610af8575b82610a48575b5050610a3e57602092856000968794835193630b135d3f60e11b98898652600486015260248501528160448501526064840137606401915afa610a33575090565b60203d149151141690565b5050505050600190565b909150600085518880604114610ae057604014610ab4575080805b610a72575b50161438806109f2565b606081015182906fa2a8918ca85bafe22016d0b997e4df5f600160ff1b0311610a9c575b50610a68565b6080828a6020945282805260015afa50513881610a96565b8060208701358060ff1c601b0160208301526020888a8401376001600160ff1b03166060820152610a63565b5086860135821a602082015280878781830137610a63565b6041881492506109ec565b505050505050600090565b91909160208310610b505780359063ffffffff8260c01c169160e01c93601f19018411610b3f578101602001920390565b6309605a0160e41b60005260046000fd5b5060009150819056fea26469706673582212203758418a2e65852d0ea575808f79316512240dd104e4bcc888463a52048d8e8f64736f6c63430008130033",
  "linkReferences": {},
  "deployedLinkReferences": {}
}