{
  "_format": "hh-sol-artifact-1",
  "contractName": "ArbitraryPredicateMock",
  "sourceName": "src/e2e-tests/contracts/mocks/ArbitraryPredicateMock.sol",
  "abi": [
    {
      "inputs": [
        {
          "internalType": "uint256",
          "name": "arg",
          "type": "uint256"
        }
      ],
      "name": "copyArg",
      "outputs": [
        {
          "internalType": "uint256",
          "name": "",
          "type": "uint256"
        }
      ],
      "stateMutability": "pure",
      "type": "function"
    }
  ],
  "bytecode": "0x60808060405234601457607a908161001a8239f35b600080fdfe6080806040526004361015601257600080fd5b60003560e01c631ae4f1b614602657600080fd5b34603f576020366003190112603f576020906004358152f35b600080fdfea26469706673582212208ccd53cee8062df99393939d4e3facd4b924f2bdf7843a4ceef563c82b7fad4b64736f6c63430008130033",
  "linkReferences": {},
  "deployedLinkReferences": {}
}