{
  "_format": "hh-sol-artifact-1",
  "contractName": "TakerIncreaser",
  "sourceName": "src/e2e-tests/contracts/mocks/TakerIncreaser.sol",
  "abi": [
    {
      "inputs": [],
      "name": "FailedExternalCall",
      "type": "error"
    },
    {
      "inputs": [],
      "name": "IncorrectCalldataParams",
      "type": "error"
    },
    {
      "inputs": [
        {
          "internalType": "contract IOrderMixin",
          "name": "orderMixin",
          "type": "address"
        },
        {
          "components": [
            {
              "internalType": "uint256",
              "name": "salt",
              "type": "uint256"
            },
            {
              "internalType": "Address",
              "name": "maker",
              "type": "uint256"
            },
            {
              "internalType": "Address",
              "name": "receiver",
              "type": "uint256"
            },
            {
              "internalType": "Address",
              "name": "makerAsset",
              "type": "uint256"
            },
            {
              "internalType": "Address",
              "name": "takerAsset",
              "type": "uint256"
            },
            {
              "internalType": "uint256",
              "name": "makingAmount",
              "type": "uint256"
            },
            {
              "internalType": "uint256",
              "name": "takingAmount",
              "type": "uint256"
            },
            {
              "internalType": "MakerTraits",
              "name": "makerTraits",
              "type": "uint256"
            }
          ],
          "internalType": "struct IOrderMixin.Order",
          "name": "order",
          "type": "tuple"
        },
        {
          "internalType": "bytes32",
          "name": "r",
          "type": "bytes32"
        },
        {
          "internalType": "bytes32",
          "name": "vs",
          "type": "bytes32"
        },
        {
          "internalType": "uint256",
          "name": "amount",
          "type": "uint256"
        },
        {
          "internalType": "TakerTraits",
          "name": "takerTraits",
          "type": "uint256"
        },
        {
          "internalType": "address",
          "name": "target",
          "type": "address"
        },
        {
          "internalType": "bytes",
          "name": "interaction",
          "type": "bytes"
        }
      ],
      "name": "fillOrderTo",
      "outputs": [],
      "stateMutability": "nonpayable",
      "type": "function"
    },
    {
      "inputs": [
        {
          "components": [
            {
              "internalType": "uint256",
              "name": "salt",
              "type": "uint256"
            },
            {
              "internalType": "Address",
              "name": "maker",
              "type": "uint256"
            },
            {
              "internalType": "Address",
              "name": "receiver",
              "type": "uint256"
            },
            {
              "internalType": "Address",
              "name": "makerAsset",
              "type": "uint256"
            },
            {
              "internalType": "Address",
              "name": "takerAsset",
              "type": "uint256"
            },
            {
              "internalType": "uint256",
              "name": "makingAmount",
              "type": "uint256"
            },
            {
              "internalType": "uint256",
              "name": "takingAmount",
              "type": "uint256"
            },
            {
              "internalType": "MakerTraits",
              "name": "makerTraits",
              "type": "uint256"
            }
          ],
          "internalType": "struct IOrderMixin.Order",
          "name": "",
          "type": "tuple"
        },
        {
          "internalType": "bytes32",
          "name": "",
          "type": "bytes32"
        },
        {
          "internalType": "bytes",
          "name": "",
          "type": "bytes"
        },
        {
          "internalType": "address",
          "name": "",
          "type": "address"
        },
        {
          "internalType": "uint256",
          "name": "",
          "type": "uint256"
        },
        {
          "internalType": "uint256",
          "name": "takingAmount",
          "type": "uint256"
        },
        {
          "internalType": "uint256",
          "name": "",
          "type": "uint256"
        },
        {
          "internalType": "bytes",
          "name": "extraData",
          "type": "bytes"
        }
      ],
      "name": "takerInteraction",
      "outputs": [
        {
          "internalType": "uint256",
          "name": "",
          "type": "uint256"
        }
      ],
      "stateMutability": "nonpayable",
      "type": "function"
    }
  ],
  "bytecode": "0x608080604052346100165761056f908161001c8239f35b600080fdfe60806040908082526004908136101561001757600080fd5b600090813560e01c908163caf2e30914610310575063d22687be1461003b57600080fd5b346103095736600319016101e0811261030c57610100136103095767ffffffffffffffff9161012435838111610305576100789036908301610470565b506001600160a01b03905061014435818116036103055761018435936101c435818111610301576100ac9036908501610470565b809391936100ec575b50505050600f830292808404600f14901517156100d957602083600a865191048152f35b634e487b7160e01b825260119052602490fd5b8397949596970184848203126102fd5783358381116102f95784019080601f830112156102f95781359461011f866104db565b9261012c885194856104a3565b868452602096878086019160051b830101918483116102d1578801905b8282106102dd5750505085810135908582116102d957019080601f830112156102d557813590610178826104db565b95610185895197886104a3565b828752878088019360051b850101938285116102d157888101935b85851061026a57505050505050805183510361025a57865b8151811015610249578780846101ce848661050f565b51166101da848861050f565b5190828983519301915af13d15610244573d6101f5816104f3565b90610202895192836104a3565b815289873d92013e5b15610234576000198114610221576001016101b8565b634e487b7160e01b885260118752602488fd5b85516303ada61d60e31b81528790fd5b61020b565b5050505050929190388080806100b5565b84516312d3b30360e31b81528690fd5b84358381116102cd57820184603f820112156102cd57808b8d9201359086610291836104f3565b9361029e815195866104a3565b83855283830101116102c957918f8d8f938082979583970183860137830101528152019401936101a0565b8f80fd5b8d80fd5b8b80fd5b8880fd5b8980fd5b813587811681036102f5578152908801908801610149565b8c80fd5b8780fd5b8680fd5b8480fd5b8280fd5b80fd5b5080fd5b905083833461046c576101e036600319011261046c576001600160a01b039080358281169081900361046857610100366023190112610468576101a49182359384168094036102fd57866101c491823567ffffffffffffffff811161030557606096899687956101c0610387889536908801610470565b948594919763227afcff60e21b88526024359088015260443560248801526064356044880152608435606488015260a435608488015260c43560a488015260e43560c4880152610104803560e489015261012490813590890152610144908135908901526101649081359089015261018490813590890152870152850152830152806101e493848401378181018301849052601f01601f191681010301925af190811561045f5750610437575080f35b606090813d8111610458575b61044d81836104a3565b810103126103095780f35b503d610443565b513d84823e3d90fd5b8580fd5b8380fd5b9181601f8401121561049e5782359167ffffffffffffffff831161049e576020838186019501011161049e57565b600080fd5b90601f8019910116810190811067ffffffffffffffff8211176104c557604052565b634e487b7160e01b600052604160045260246000fd5b67ffffffffffffffff81116104c55760051b60200190565b67ffffffffffffffff81116104c557601f01601f191660200190565b80518210156105235760209160051b010190565b634e487b7160e01b600052603260045260246000fdfea2646970667358221220e81e783fc609b28d36591b062cc946a09970cfb973d10fe6ecb15994f34dbabf64736f6c63430008130033",
  "linkReferences": {},
  "deployedLinkReferences": {}
}