{
  "_format": "hh-sol-artifact-1",
  "contractName": "RangeAmountCalculator",
  "sourceName": "src/e2e-tests/contracts/helpers/RangeAmountCalculator.sol",
  "abi": [
    {
      "inputs": [],
      "name": "IncorrectRange",
      "type": "error"
    },
    {
      "inputs": [
        {
          "internalType": "uint256",
          "name": "priceStart",
          "type": "uint256"
        },
        {
          "internalType": "uint256",
          "name": "priceEnd",
          "type": "uint256"
        },
        {
          "internalType": "uint256",
          "name": "totalLiquidity",
          "type": "uint256"
        },
        {
          "internalType": "uint256",
          "name": "takingAmount",
          "type": "uint256"
        },
        {
          "internalType": "uint256",
          "name": "remainingMakingAmount",
          "type": "uint256"
        }
      ],
      "name": "getRangeMakerAmount",
      "outputs": [
        {
          "internalType": "uint256",
          "name": "",
          "type": "uint256"
        }
      ],
      "stateMutability": "pure",
      "type": "function"
    },
    {
      "inputs": [
        {
          "internalType": "uint256",
          "name": "priceStart",
          "type": "uint256"
        },
        {
          "internalType": "uint256",
          "name": "priceEnd",
          "type": "uint256"
        },
        {
          "internalType": "uint256",
          "name": "totalAmount",
          "type": "uint256"
        },
        {
          "internalType": "uint256",
          "name": "fillAmount",
          "type": "uint256"
        },
        {
          "internalType": "uint256",
          "name": "remainingMakingAmount",
          "type": "uint256"
        }
      ],
      "name": "getRangeTakerAmount",
      "outputs": [
        {
          "internalType": "uint256",
          "name": "",
          "type": "uint256"
        }
      ],
      "stateMutability": "pure",
      "type": "function"
    }
  ],
  "bytecode": "0x608080604052346100165761045d908161001c8239f35b600080fdfe6080806040526004908136101561001557600080fd5b600090813560e01c90816390c666d114610109575063acaf53161461003957600080fd5b34610106576100473661025a565b848495949693929611156100f557836100636100699284610281565b95610281565b6001600160ff1b039480861681036100e25761009b9291610090886100969360011b6102b7565b906102a4565b6102c4565b92821682036100cf576020671bc16d674ec800006100c6866100c1878760011b906102b7565b6102a4565b04604051908152f35b634e487b7160e01b815260118552602490fd5b634e487b7160e01b845260118852602484fd5b60405163218c997760e21b81528790fd5b80fd5b919050346101065761011a3661025a565b90949293958685111561024c57506101329082610281565b9461013d8185610281565b93670de0b6b3a76400009485810290808204871490151715610239579061017b8361017561016e87610181966102c4565b96826102a4565b92610281565b906102c4565b9461018c86836102a4565b6001600160ff1b0392808416810361022657906101c46101be6101ca93896101b48d8a6102a4565b049060011b6102b7565b8a6102a4565b906102b7565b908060011b928116036100e257848202918083048614901517156100e2576101f69291610096916102b7565b8281029281840414901517156100cf57602061021e8561021986610219876102e4565b610281565b604051908152f35b634e487b7160e01b865260118a52602486fd5b634e487b7160e01b855260118952602485fd5b63218c997760e21b81528790fd5b60a090600319011261027c576004359060243590604435906064359060843590565b600080fd5b9190820391821161028e57565b634e487b7160e01b600052601160045260246000fd5b8181029291811591840414171561028e57565b9190820180921161028e57565b81156102ce570490565b634e487b7160e01b600052601260045260246000fd5b8015610421576103af816000908360801c80610415575b508060401c80610408575b508060201c806103fb575b508060101c806103ee575b508060081c806103e1575b508060041c806103d4575b508060021c806103c7575b50600191828092811c6103c0575b1c1b61035781856102c4565b01811c61036481856102c4565b01811c61037181856102c4565b01811c61037e81856102c4565b01811c61038b81856102c4565b01811c61039881856102c4565b01811c6103a581856102c4565b01901c80926102c4565b808210156103bb575090565b905090565b018161034b565b600291509101903861033d565b6004915091019038610332565b6008915091019038610327565b601091509101903861031c565b6020915091019038610311565b6040915091019038610306565b915050608090386102fb565b5060009056fea2646970667358221220488a33159f4736db3bc67d33f7e4b50115bfc636efcaa0ee79b2ca1b1d8c296b64736f6c63430008130033",
  "linkReferences": {},
  "deployedLinkReferences": {}
}