{
  "_format": "hh-sol-artifact-1",
  "contractName": "MakerContract",
  "sourceName": "src/e2e-tests/contracts/mocks/MakerContract.sol",
  "abi": [
    {
      "inputs": [
        {
          "internalType": "address",
          "name": "_protocol",
          "type": "address"
        },
        {
          "internalType": "contract IERC20",
          "name": "_token0",
          "type": "address"
        },
        {
          "internalType": "contract IERC20",
          "name": "_token1",
          "type": "address"
        },
        {
          "internalType": "uint256",
          "name": "_fee",
          "type": "uint256"
        },
        {
          "internalType": "string",
          "name": "name",
          "type": "string"
        },
        {
          "internalType": "string",
          "name": "symbol",
          "type": "string"
        }
      ],
      "stateMutability": "nonpayable",
      "type": "constructor"
    },
    {
      "inputs": [],
      "name": "BadPrice",
      "type": "error"
    },
    {
      "inputs": [],
      "name": "MalformedSignature",
      "type": "error"
    },
    {
      "inputs": [],
      "name": "NotAllowedToken",
      "type": "error"
    },
    {
      "inputs": [],
      "name": "SafeTransferFailed",
      "type": "error"
    },
    {
      "inputs": [],
      "name": "SafeTransferFromFailed",
      "type": "error"
    },
    {
      "anonymous": false,
      "inputs": [
        {
          "indexed": true,
          "internalType": "address",
          "name": "owner",
          "type": "address"
        },
        {
          "indexed": true,
          "internalType": "address",
          "name": "spender",
          "type": "address"
        },
        {
          "indexed": false,
          "internalType": "uint256",
          "name": "value",
          "type": "uint256"
        }
      ],
      "name": "Approval",
      "type": "event"
    },
    {
      "anonymous": false,
      "inputs": [
        {
          "indexed": true,
          "internalType": "address",
          "name": "from",
          "type": "address"
        },
        {
          "indexed": true,
          "internalType": "address",
          "name": "to",
          "type": "address"
        },
        {
          "indexed": false,
          "internalType": "uint256",
          "name": "value",
          "type": "uint256"
        }
      ],
      "name": "Transfer",
      "type": "event"
    },
    {
      "inputs": [
        {
          "internalType": "address",
          "name": "owner",
          "type": "address"
        },
        {
          "internalType": "address",
          "name": "spender",
          "type": "address"
        }
      ],
      "name": "allowance",
      "outputs": [
        {
          "internalType": "uint256",
          "name": "",
          "type": "uint256"
        }
      ],
      "stateMutability": "view",
      "type": "function"
    },
    {
      "inputs": [
        {
          "internalType": "address",
          "name": "spender",
          "type": "address"
        },
        {
          "internalType": "uint256",
          "name": "amount",
          "type": "uint256"
        }
      ],
      "name": "approve",
      "outputs": [
        {
          "internalType": "bool",
          "name": "",
          "type": "bool"
        }
      ],
      "stateMutability": "nonpayable",
      "type": "function"
    },
    {
      "inputs": [
        {
          "internalType": "address",
          "name": "account",
          "type": "address"
        }
      ],
      "name": "balanceOf",
      "outputs": [
        {
          "internalType": "uint256",
          "name": "",
          "type": "uint256"
        }
      ],
      "stateMutability": "view",
      "type": "function"
    },
    {
      "inputs": [],
      "name": "decimals",
      "outputs": [
        {
          "internalType": "uint8",
          "name": "",
          "type": "uint8"
        }
      ],
      "stateMutability": "pure",
      "type": "function"
    },
    {
      "inputs": [
        {
          "internalType": "address",
          "name": "spender",
          "type": "address"
        },
        {
          "internalType": "uint256",
          "name": "subtractedValue",
          "type": "uint256"
        }
      ],
      "name": "decreaseAllowance",
      "outputs": [
        {
          "internalType": "bool",
          "name": "",
          "type": "bool"
        }
      ],
      "stateMutability": "nonpayable",
      "type": "function"
    },
    {
      "inputs": [
        {
          "internalType": "contract IERC20",
          "name": "token",
          "type": "address"
        },
        {
          "internalType": "uint256",
          "name": "amount",
          "type": "uint256"
        }
      ],
      "name": "deposit",
      "outputs": [],
      "stateMutability": "nonpayable",
      "type": "function"
    },
    {
      "inputs": [
        {
          "internalType": "contract IERC20",
          "name": "token",
          "type": "address"
        },
        {
          "internalType": "uint256",
          "name": "amount",
          "type": "uint256"
        },
        {
          "internalType": "address",
          "name": "to",
          "type": "address"
        }
      ],
      "name": "depositFor",
      "outputs": [],
      "stateMutability": "nonpayable",
      "type": "function"
    },
    {
      "inputs": [],
      "name": "fee",
      "outputs": [
        {
          "internalType": "uint256",
          "name": "",
          "type": "uint256"
        }
      ],
      "stateMutability": "view",
      "type": "function"
    },
    {
      "inputs": [],
      "name": "fee2",
      "outputs": [
        {
          "internalType": "uint256",
          "name": "",
          "type": "uint256"
        }
      ],
      "stateMutability": "view",
      "type": "function"
    },
    {
      "inputs": [
        {
          "internalType": "address",
          "name": "spender",
          "type": "address"
        },
        {
          "internalType": "uint256",
          "name": "addedValue",
          "type": "uint256"
        }
      ],
      "name": "increaseAllowance",
      "outputs": [
        {
          "internalType": "bool",
          "name": "",
          "type": "bool"
        }
      ],
      "stateMutability": "nonpayable",
      "type": "function"
    },
    {
      "inputs": [
        {
          "internalType": "bytes32",
          "name": "hash",
          "type": "bytes32"
        },
        {
          "internalType": "bytes",
          "name": "signature",
          "type": "bytes"
        }
      ],
      "name": "isValidSignature",
      "outputs": [
        {
          "internalType": "bytes4",
          "name": "",
          "type": "bytes4"
        }
      ],
      "stateMutability": "view",
      "type": "function"
    },
    {
      "inputs": [],
      "name": "name",
      "outputs": [
        {
          "internalType": "string",
          "name": "",
          "type": "string"
        }
      ],
      "stateMutability": "view",
      "type": "function"
    },
    {
      "inputs": [],
      "name": "protocol",
      "outputs": [
        {
          "internalType": "address",
          "name": "",
          "type": "address"
        }
      ],
      "stateMutability": "view",
      "type": "function"
    },
    {
      "inputs": [],
      "name": "symbol",
      "outputs": [
        {
          "internalType": "string",
          "name": "",
          "type": "string"
        }
      ],
      "stateMutability": "view",
      "type": "function"
    },
    {
      "inputs": [],
      "name": "token0",
      "outputs": [
        {
          "internalType": "contract IERC20",
          "name": "",
          "type": "address"
        }
      ],
      "stateMutability": "view",
      "type": "function"
    },
    {
      "inputs": [],
      "name": "token1",
      "outputs": [
        {
          "internalType": "contract IERC20",
          "name": "",
          "type": "address"
        }
      ],
      "stateMutability": "view",
      "type": "function"
    },
    {
      "inputs": [],
      "name": "totalSupply",
      "outputs": [
        {
          "internalType": "uint256",
          "name": "",
          "type": "uint256"
        }
      ],
      "stateMutability": "view",
      "type": "function"
    },
    {
      "inputs": [
        {
          "internalType": "address",
          "name": "to",
          "type": "address"
        },
        {
          "internalType": "uint256",
          "name": "amount",
          "type": "uint256"
        }
      ],
      "name": "transfer",
      "outputs": [
        {
          "internalType": "bool",
          "name": "",
          "type": "bool"
        }
      ],
      "stateMutability": "nonpayable",
      "type": "function"
    },
    {
      "inputs": [
        {
          "internalType": "address",
          "name": "from",
          "type": "address"
        },
        {
          "internalType": "address",
          "name": "to",
          "type": "address"
        },
        {
          "internalType": "uint256",
          "name": "amount",
          "type": "uint256"
        }
      ],
      "name": "transferFrom",
      "outputs": [
        {
          "internalType": "bool",
          "name": "",
          "type": "bool"
        }
      ],
      "stateMutability": "nonpayable",
      "type": "function"
    },
    {
      "inputs": [
        {
          "internalType": "contract IERC20",
          "name": "token",
          "type": "address"
        },
        {
          "internalType": "uint256",
          "name": "amount",
          "type": "uint256"
        }
      ],
      "name": "withdraw",
      "outputs": [],
      "stateMutability": "nonpayable",
      "type": "function"
    },
    {
      "inputs": [
        {
          "internalType": "contract IERC20",
          "name": "token",
          "type": "address"
        },
        {
          "internalType": "uint256",
          "name": "amount",
          "type": "uint256"
        },
        {
          "internalType": "address",
          "name": "to",
          "type": "address"
        }
      ],
      "name": "withdrawFor",
      "outputs": [],
      "stateMutability": "nonpayable",
      "type": "function"
    }
  ],
  "bytecode": "0x6101e06040818152346200061f5762001943803803809162000022828662000640565b843982019160c0818403126200061f578051916001600160a01b03808416918285036200061f576020906200005982860162000664565b916200006782870162000664565b6060870151608088015190979196916001600160401b03918281116200061f578b6200009591830162000679565b9160a0820151918183116200061f57600d60fa1b9c8693620000b8920162000679565b928651620000c68162000624565b601a81527f31696e6368204c696d6974204f726465722050726f746f636f6c00000000000084820152875190620000fd8262000624565b6001948286809452019e8f528781519101209d208c610120528d60c0528060e0524660a0528751907f8b73c3c69bb8fe3d512ecc4cf759cc79239f7b179b0ffacaa9a75d522b39400f9e8f898401528983015260608201524660808201528560a082015260a0815260c08101818110848211176200051f5788528681519101206080526101009c8d528051908282116200051f576003918254918583811c9316801562000614575b89841014620005fe578190601f93848111620005a8575b508990848311600114620005415760009262000535575b505060001982851b1c191690851b1782555b84519283116200051f5760049485548581811c9116801562000514575b89821014620004ff57828111620004b4575b508791841160011462000449579383949184926000956200043d575b50501b92600019911b1c19161781555b61014098895261016094808652610180968888526101a0988a8a52671bc16d674ec800009a808c029b8c0481036200042857670de0b6b3a76400009081018091116200042857801562000413576101c09b048b5286519263095ea7b360e01b9384815286868201528781604481600088811997886024850152165af18015620004085792600092604495928a989795620003e6575b508a51988997889687528601526024850152165af18015620003db57620003a6575b5050519461123896876200070b8839608051876110f1015260a051876110cb015260c05187611140015260e051876111660152518661111d01526101205186611199015251856103e80152518481816106800152818161087e01528181610d360152610ee40152518381816101d1015281816107dc0152818161082b01528181610eac015261109d015251828181610152015261075b0152518181816104a501528181610d740152610f760152f35b81620003ca92903d10620003d3575b620003c1818362000640565b810190620006f0565b503880620002f7565b503d620003b5565b83513d6000823e3d90fd5b6200040090893d8b11620003d357620003c1818362000640565b5038620002d5565b89513d6000823e3d90fd5b601285634e487b7160e01b6000525260246000fd5b601185634e487b7160e01b6000525260246000fd5b01519350388062000230565b9190601f198416928660005284896000209460005b8b898383106200049c575050501062000481575b50505050811b01815562000240565b01519060f884600019921b161c191690553880808062000472565b8686015189559097019694850194889350016200045e565b86600052886000208380870160051c8201928b8810620004f5575b0160051c019086905b828110620004e857505062000214565b60008155018690620004d8565b92508192620004cf565b602287634e487b7160e01b6000525260246000fd5b90607f169062000202565b634e487b7160e01b600052604160045260246000fd5b015190503880620001d3565b90879350601f19831691866000528b6000209260005b8d82821062000591575050841162000578575b505050811b018255620001e5565b015160001983871b60f8161c191690553880806200056a565b8385015186558b9790950194938401930162000557565b90915084600052896000208480850160051c8201928c8610620005f4575b918991869594930160051c01915b828110620005e4575050620001bc565b60008155859450899101620005d4565b92508192620005c6565b634e487b7160e01b600052602260045260246000fd5b92607f1692620001a5565b600080fd5b604081019081106001600160401b038211176200051f57604052565b601f909101601f19168101906001600160401b038211908210176200051f57604052565b51906001600160a01b03821682036200061f57565b919080601f840112156200061f578251906001600160401b0382116200051f5760405191602091620006b5601f8301601f191684018562000640565b8184528282870101116200061f5760005b818110620006dc57508260009394955001015290565b8581018301518482018401528201620006c6565b908160209103126200061f575180151581036200061f579056fe608060408181526004918236101561001657600080fd5b600092833560e01c91826306fdde03146108d757508163095ea7b3146108ad5781630dfe1681146108695781631626ba7e1461061d57816318160ddd146105fe57816323b872dd14610534578163313ce5671461051857816339509351146104c857816339f73a481461048d57816347e7ef24146104665781636766efbe1461044e57816370a08231146104175781638ce74426146103d357816395d89b41146102ed578163a457c2d71461024857508063a9059cbb14610218578063c8820f6c14610200578063d21220a7146101bd578063dd62ed3e14610175578063ddca3f431461013b5763f3fef3a31461010c57600080fd5b3461013757366003190112610134576101316101266109f7565b339060243590610ed4565b80f35b80fd5b5080fd5b5034610137578160031936011261013757602090517f00000000000000000000000000000000000000000000000000000000000000008152f35b5034610137578060031936011261013757806020926101926109f7565b61019a610a12565b6001600160a01b0391821683526001865283832091168252845220549051908152f35b5034610137578160031936011261013757517f00000000000000000000000000000000000000000000000000000000000000006001600160a01b03168152602090f35b82346101345761013161021236610a28565b91610d28565b50346101375780600319360112610137576020906102416102376109f7565b6024359033610ab7565b5160018152f35b905082346101345782600319360112610134576102636109f7565b918360243592338152600160205281812060018060a01b038616825260205220549082821061029c576020856102418585038733610c13565b608490602086519162461bcd60e51b8352820152602560248201527f45524332303a2064656372656173656420616c6c6f77616e63652062656c6f77604482015264207a65726f60d81b6064820152fd5b838334610137578160031936011261013757805191809380549160019083821c928285169485156103c9575b60209586861081146103b6578589529081156103925750600114610357575b6103538787610349828c0383610a5c565b51918291826109ae565b0390f35b9080949750528583205b82841061037f57505050826103539461034992820101948680610338565b8054868501880152928601928101610361565b60ff19168887015250505050151560051b8301019250610349826103538680610338565b634e487b7160e01b845260228352602484fd5b93607f1693610319565b505034610137578160031936011261013757517f00000000000000000000000000000000000000000000000000000000000000006001600160a01b03168152602090f35b5050346101375760203660031901126101375760209181906001600160a01b0361043f6109f7565b16815280845220549051908152f35b83346101345761013161046036610a28565b91610ed4565b50503461013757366003190112610134576101316104826109f7565b339060243590610d28565b505034610137578160031936011261013757602090517f00000000000000000000000000000000000000000000000000000000000000008152f35b5050346101375780600319360112610137576102416020926105116104eb6109f7565b338352600186528483206001600160a01b03821684528652918490205460243590610a94565b9033610c13565b5050346101375781600319360112610137576020905160068152f35b83915034610137576060366003190112610137576105506109f7565b610558610a12565b91846044359460018060a01b038416815260016020528181203382526020522054906000198203610592575b602086610241878787610ab7565b8482106105bb57509183916105b06020969561024195033383610c13565b919394819350610584565b606490602087519162461bcd60e51b8352820152601d60248201527f45524332303a20696e73756666696369656e7420616c6c6f77616e63650000006044820152fd5b5050346101375781600319360112610137576020906002549051908152f35b82843461013457816003193601126101345767ffffffffffffffff60243581811161086557366023820112156108655780850135918211610865573660248383010111610865576101008092036108555760848101356001600160a01b039081167f00000000000000000000000000000000000000000000000000000000000000008216818114801596939290610822575b866107d4575b50505083156107bf575b8315610753575b5082156106f1575b50506106e45751630b135d3f60e11b8152602090f35b5163fd1ee34960e01b8152fd5b6101209192506106ff6110c8565b9260248551927f3af21ec5a20011b88d3b7b4ed7c806cef05a5980cf34974bcd53566a131f7e4c84520160208301372082519161190160f01b835260028301526022820152604283359120141583806106ce565b9092506107847f000000000000000000000000000000000000000000000000000000000000000060c4850135610d15565b670de0b6b3a764000060e4850135818102939181159185041417156107ac57501191856106c6565b634e487b7160e01b815260118752602490fd5b610104820135600160f91b16151593506106bf565b9091809396507f0000000000000000000000000000000000000000000000000000000000000000161491821592610811575b5050928680806106b5565b60a484013516141590508680610806565b60a485013583167f00000000000000000000000000000000000000000000000000000000000000008416141596506106af565b50505051632ad0f0b760e11b8152fd5b8280fd5b505034610137578160031936011261013757517f00000000000000000000000000000000000000000000000000000000000000006001600160a01b03168152602090f35b5050346101375780600319360112610137576020906102416108cd6109f7565b6024359033610c13565b929150346109aa57836003193601126109aa57600354600181811c91869082811680156109a0575b602095868610821461098d575084885290811561096b5750600114610930575b6103538686610349828b0383610a5c565b929550600383528583205b82841061095857505050826103539461034992820101943861091f565b805486850188015292860192810161093b565b60ff191687860152505050151560051b8301019250610349826103533861091f565b634e487b7160e01b845260229052602483fd5b93607f16936108ff565b8380fd5b6020808252825181830181905290939260005b8281106109e357505060409293506000838284010152601f8019910116010190565b8181018601518482016040015285016109c1565b600435906001600160a01b0382168203610a0d57565b600080fd5b602435906001600160a01b0382168203610a0d57565b6060906003190112610a0d576001600160a01b036004358181168103610a0d5791602435916044359081168103610a0d5790565b90601f8019910116810190811067ffffffffffffffff821117610a7e57604052565b634e487b7160e01b600052604160045260246000fd5b91908201809211610aa157565b634e487b7160e01b600052601160045260246000fd5b6001600160a01b03908116918215610bc05716918215610b6f57600082815280602052604081205491808310610b1b57604082826000805160206111e3833981519152958760209652828652038282205586815220818154019055604051908152a3565b60405162461bcd60e51b815260206004820152602660248201527f45524332303a207472616e7366657220616d6f756e7420657863656564732062604482015265616c616e636560d01b6064820152608490fd5b60405162461bcd60e51b815260206004820152602360248201527f45524332303a207472616e7366657220746f20746865207a65726f206164647260448201526265737360e81b6064820152608490fd5b60405162461bcd60e51b815260206004820152602560248201527f45524332303a207472616e736665722066726f6d20746865207a65726f206164604482015264647265737360d81b6064820152608490fd5b6001600160a01b03908116918215610cc45716918215610c745760207f8c5be1e5ebec7d5bd14f71427d1e84f3dd0314c0f7b2291e5b200ac8c7c3b925918360005260018252604060002085600052825280604060002055604051908152a3565b60405162461bcd60e51b815260206004820152602260248201527f45524332303a20617070726f766520746f20746865207a65726f206164647265604482015261737360f01b6064820152608490fd5b60405162461bcd60e51b8152602060048201526024808201527f45524332303a20617070726f76652066726f6d20746865207a65726f206164646044820152637265737360e01b6064820152608490fd5b81810292918115918404141715610aa157565b906001600160a01b038083167f000000000000000000000000000000000000000000000000000000000000000082168114159081610ea7575b50610e9557670de0b6b3a7640000610d997f000000000000000000000000000000000000000000000000000000000000000084610d15565b0493168015610e50576064602092839286610dc56000805160206111e383398151915298600254610a94565b6002556000978895869284845283825260408420818154019055604051908152a3604051906323b872dd60e01b8252336004830152306024830152604482015282855af19182610e2b575b505015610e1957565b60405163f405907160e01b8152600490fd5b9091503d15610e4757600191505114601f3d11165b3880610e10565b503b1515610e40565b60405162461bcd60e51b815260206004820152601f60248201527f45524332303a206d696e7420746f20746865207a65726f2061646472657373006044820152606490fd5b604051630e1478bb60e41b8152600490fd5b9050817f000000000000000000000000000000000000000000000000000000000000000016141538610d61565b9091906001600160a01b038082167f00000000000000000000000000000000000000000000000000000000000000008216811415918261109b575b5050610e9557331561104c576000913383528260205260409384842054818110610ffd57602092670de0b6b3a7640000610f9b848895604495338852878952038a8720558060025403600255858a518281526000805160206111e3833981519152893392a37f000000000000000000000000000000000000000000000000000000000000000090610d15565b0487519163a9059cbb60e01b83526004830152602482015282855af19182610fd8575b505015610fc85750565b5163fb7f507960e01b8152600490fd5b9091503d15610ff457600191505114601f3d11165b3880610fbe565b503b1515610fed565b855162461bcd60e51b815260206004820152602260248201527f45524332303a206275726e20616d6f756e7420657863656564732062616c616e604482015261636560f01b6064820152608490fd5b60405162461bcd60e51b815260206004820152602160248201527f45524332303a206275726e2066726f6d20746865207a65726f206164647265736044820152607360f81b6064820152608490fd5b7f000000000000000000000000000000000000000000000000000000000000000016141590503880610f0f565b467f000000000000000000000000000000000000000000000000000000000000000003611113577f000000000000000000000000000000000000000000000000000000000000000090565b60405160208101907f000000000000000000000000000000000000000000000000000000000000000082527f000000000000000000000000000000000000000000000000000000000000000060408201527f0000000000000000000000000000000000000000000000000000000000000000606082015246608082015260018060a01b037f00000000000000000000000000000000000000000000000000000000000000001660a082015260a0815260c0810181811067ffffffffffffffff821117610a7e576040525190209056feddf252ad1be2c89b69c2b068fc378daa952ba7f163c4a11628f55a4df523b3efa2646970667358221220746f5aced4192c551a9bb39e0f40e6fab6149e4fec091dc26c2a42e4048e605364736f6c63430008130033",
  "linkReferences": {},
  "deployedLinkReferences": {}
}