{
  "_format": "hh-sol-artifact-1",
  "contractName": "RecursiveMatcher",
  "sourceName": "src/e2e-tests/contracts/mocks/RecursiveMatcher.sol",
  "abi": [
    {
      "inputs": [
        {
          "internalType": "bytes",
          "name": "reason",
          "type": "bytes"
        }
      ],
      "name": "FailedExternalCall",
      "type": "error"
    },
    {
      "inputs": [],
      "name": "IncorrectCalldataParams",
      "type": "error"
    },
    {
      "inputs": [
        {
          "internalType": "contract IOrderMixin",
          "name": "orderMixin",
          "type": "address"
        },
        {
          "components": [
            {
              "internalType": "uint256",
              "name": "salt",
              "type": "uint256"
            },
            {
              "internalType": "Address",
              "name": "maker",
              "type": "uint256"
            },
            {
              "internalType": "Address",
              "name": "receiver",
              "type": "uint256"
            },
            {
              "internalType": "Address",
              "name": "makerAsset",
              "type": "uint256"
            },
            {
              "internalType": "Address",
              "name": "takerAsset",
              "type": "uint256"
            },
            {
              "internalType": "uint256",
              "name": "makingAmount",
              "type": "uint256"
            },
            {
              "internalType": "uint256",
              "name": "takingAmount",
              "type": "uint256"
            },
            {
              "internalType": "MakerTraits",
              "name": "makerTraits",
              "type": "uint256"
            }
          ],
          "internalType": "struct IOrderMixin.Order",
          "name": "order",
          "type": "tuple"
        },
        {
          "internalType": "bytes32",
          "name": "r",
          "type": "bytes32"
        },
        {
          "internalType": "bytes32",
          "name": "vs",
          "type": "bytes32"
        },
        {
          "internalType": "uint256",
          "name": "amount",
          "type": "uint256"
        },
        {
          "internalType": "TakerTraits",
          "name": "takerTraits",
          "type": "uint256"
        },
        {
          "internalType": "bytes",
          "name": "interaction",
          "type": "bytes"
        }
      ],
      "name": "matchOrders",
      "outputs": [],
      "stateMutability": "nonpayable",
      "type": "function"
    },
    {
      "inputs": [
        {
          "components": [
            {
              "internalType": "uint256",
              "name": "salt",
              "type": "uint256"
            },
            {
              "internalType": "Address",
              "name": "maker",
              "type": "uint256"
            },
            {
              "internalType": "Address",
              "name": "receiver",
              "type": "uint256"
            },
            {
              "internalType": "Address",
              "name": "makerAsset",
              "type": "uint256"
            },
            {
              "internalType": "Address",
              "name": "takerAsset",
              "type": "uint256"
            },
            {
              "internalType": "uint256",
              "name": "makingAmount",
              "type": "uint256"
            },
            {
              "internalType": "uint256",
              "name": "takingAmount",
              "type": "uint256"
            },
            {
              "internalType": "MakerTraits",
              "name": "makerTraits",
              "type": "uint256"
            }
          ],
          "internalType": "struct IOrderMixin.Order",
          "name": "",
          "type": "tuple"
        },
        {
          "internalType": "bytes32",
          "name": "",
          "type": "bytes32"
        },
        {
          "internalType": "bytes",
          "name": "",
          "type": "bytes"
        },
        {
          "internalType": "address",
          "name": "",
          "type": "address"
        },
        {
          "internalType": "uint256",
          "name": "",
          "type": "uint256"
        },
        {
          "internalType": "uint256",
          "name": "",
          "type": "uint256"
        },
        {
          "internalType": "uint256",
          "name": "",
          "type": "uint256"
        },
        {
          "internalType": "bytes",
          "name": "extraData",
          "type": "bytes"
        }
      ],
      "name": "takerInteraction",
      "outputs": [
        {
          "internalType": "uint256",
          "name": "offeredTakingAmount",
          "type": "uint256"
        }
      ],
      "stateMutability": "nonpayable",
      "type": "function"
    }
  ],
  "bytecode": "0x6080806040523461001657610649908161001c8239f35b600080fdfe608080604052600436101561001357600080fd5b60003560e01c908163d22687be14610183575063eade14cc1461003557600080fd5b3461016b576101c08060031936011261016b576004356001600160a01b0381169081900361016b5761010036602319011261016b576101a4918235916001600160401b03831161016b5760009361009260609436906004016104f0565b959060405180978196829563227afcff60e21b8452602435600485015260443560248501526064356044850152608435606485015260a435608485015260c43560a485015260e43560c4850152610104803560e4860152610124908135908601526101449081359086015261016490813590860152610184908135908601523090850152830152806101c4830152806101e493848401378181018301849052601f01601f191681010301925af180156101775761014b57005b606090813d8111610170575b610161818361051d565b8101031261016b57005b600080fd5b503d610157565b6040513d6000823e3d90fd5b3461016b5736600319016101e0811261016b576101001361016b57610124356001600160401b03811161016b576101be9036906004016104f0565b5050610144356001600160a01b0381160361016b576101c4356001600160401b03811161016b576101f39036906004016104f0565b9182156104da578135600160f81b1615610479575060019180831161016b5760406000198383810103011261016b57828201356001600160401b03811161016b5782019181810160208401121561016b578383013590610252826105e8565b93610260604051958661051d565b82855260208501906021809460051b82010190858401821161016b578401915b8183106104595750505081810135906001600160401b03821161016b57838101602083830101121561016b57858282010135916102bc836105e8565b946102ca604051968761051d565b8386526020860191818401868660051b83870101011161016b578581850101925b868660051b838701010184106103cb575050505050505081518151036103b957600091835b610325575b505050505b602060405160008152f35b80518310156103b4576000806001600160a01b0361034386856105ff565b511661034f86866105ff565b519082602083519301915af161036361056f565b90156103935750600019831461037d578380930192610310565b634e487b7160e01b600052601160045260246000fd5b6040516320508f4560e01b81529081906103b0906004830161059f565b0390fd5b610315565b6040516312d3b30360e31b8152600490fd5b83356001600160401b03811161016b578386016040828589010101121561016b576103fc8882858901010135610554565b9061040a604051928361051d565b8684018101808a013580845286890191016041011161016b578892602092839260009084908790898d018101808301359060410186850137898d010101358301015281520194019390506102eb565b82356001600160a01b038116810361016b57815260209283019201610280565b91908160011161016b57826104c06023826000969560208897019563227afcff60e21b8752600188198301910160248401378101868382015203600381018452018261051d565b519082335af16104ce61056f565b9015610393575061031a565b634e487b7160e01b600052603260045260246000fd5b9181601f8401121561016b578235916001600160401b03831161016b576020838186019501011161016b57565b90601f801991011681019081106001600160401b0382111761053e57604052565b634e487b7160e01b600052604160045260246000fd5b6001600160401b03811161053e57601f01601f191660200190565b3d1561059a573d9061058082610554565b9161058e604051938461051d565b82523d6000602084013e565b606090565b6020808252825181830181905290939260005b8281106105d457505060409293506000838284010152601f8019910116010190565b8181018601518482016040015285016105b2565b6001600160401b03811161053e5760051b60200190565b80518210156104da5760209160051b01019056fea2646970667358221220860a0c06f98bfbd7a4778d95c1ef80a105d095f2830a3b79009f0f315af1571a64736f6c63430008130033",
  "linkReferences": {},
  "deployedLinkReferences": {}
}