{
  "_format": "hh-sol-artifact-1",
  "contractName": "WrappedTokenMock",
  "sourceName": "src/e2e-tests/contracts/mocks/WrappedTokenMock.sol",
  "abi": [
    {
      "inputs": [
        {
          "internalType": "string",
          "name": "name",
          "type": "string"
        },
        {
          "internalType": "string",
          "name": "symbol",
          "type": "string"
        }
      ],
      "stateMutability": "nonpayable",
      "type": "constructor"
    },
    {
      "inputs": [],
      "name": "InvalidShortString",
      "type": "error"
    },
    {
      "inputs": [],
      "name": "NotEnoughBalance",
      "type": "error"
    },
    {
      "inputs": [
        {
          "internalType": "string",
          "name": "str",
          "type": "string"
        }
      ],
      "name": "StringTooLong",
      "type": "error"
    },
    {
      "anonymous": false,
      "inputs": [
        {
          "indexed": true,
          "internalType": "address",
          "name": "owner",
          "type": "address"
        },
        {
          "indexed": true,
          "internalType": "address",
          "name": "spender",
          "type": "address"
        },
        {
          "indexed": false,
          "internalType": "uint256",
          "name": "value",
          "type": "uint256"
        }
      ],
      "name": "Approval",
      "type": "event"
    },
    {
      "anonymous": false,
      "inputs": [
        {
          "indexed": true,
          "internalType": "address",
          "name": "dst",
          "type": "address"
        },
        {
          "indexed": false,
          "internalType": "uint256",
          "name": "wad",
          "type": "uint256"
        }
      ],
      "name": "Deposit",
      "type": "event"
    },
    {
      "anonymous": false,
      "inputs": [],
      "name": "EIP712DomainChanged",
      "type": "event"
    },
    {
      "anonymous": false,
      "inputs": [
        {
          "indexed": true,
          "internalType": "address",
          "name": "previousOwner",
          "type": "address"
        },
        {
          "indexed": true,
          "internalType": "address",
          "name": "newOwner",
          "type": "address"
        }
      ],
      "name": "OwnershipTransferred",
      "type": "event"
    },
    {
      "anonymous": false,
      "inputs": [
        {
          "indexed": true,
          "internalType": "address",
          "name": "from",
          "type": "address"
        },
        {
          "indexed": true,
          "internalType": "address",
          "name": "to",
          "type": "address"
        },
        {
          "indexed": false,
          "internalType": "uint256",
          "name": "value",
          "type": "uint256"
        }
      ],
      "name": "Transfer",
      "type": "event"
    },
    {
      "anonymous": false,
      "inputs": [
        {
          "indexed": true,
          "internalType": "address",
          "name": "src",
          "type": "address"
        },
        {
          "indexed": false,
          "internalType": "uint256",
          "name": "wad",
          "type": "uint256"
        }
      ],
      "name": "Withdrawal",
      "type": "event"
    },
    {
      "inputs": [],
      "name": "DOMAIN_SEPARATOR",
      "outputs": [
        {
          "internalType": "bytes32",
          "name": "",
          "type": "bytes32"
        }
      ],
      "stateMutability": "view",
      "type": "function"
    },
    {
      "inputs": [
        {
          "internalType": "address",
          "name": "owner",
          "type": "address"
        },
        {
          "internalType": "address",
          "name": "spender",
          "type": "address"
        }
      ],
      "name": "allowance",
      "outputs": [
        {
          "internalType": "uint256",
          "name": "",
          "type": "uint256"
        }
      ],
      "stateMutability": "view",
      "type": "function"
    },
    {
      "inputs": [
        {
          "internalType": "address",
          "name": "spender",
          "type": "address"
        },
        {
          "internalType": "uint256",
          "name": "amount",
          "type": "uint256"
        }
      ],
      "name": "approve",
      "outputs": [
        {
          "internalType": "bool",
          "name": "",
          "type": "bool"
        }
      ],
      "stateMutability": "nonpayable",
      "type": "function"
    },
    {
      "inputs": [
        {
          "internalType": "address",
          "name": "account",
          "type": "address"
        }
      ],
      "name": "balanceOf",
      "outputs": [
        {
          "internalType": "uint256",
          "name": "",
          "type": "uint256"
        }
      ],
      "stateMutability": "view",
      "type": "function"
    },
    {
      "inputs": [],
      "name": "decimals",
      "outputs": [
        {
          "internalType": "uint8",
          "name": "",
          "type": "uint8"
        }
      ],
      "stateMutability": "view",
      "type": "function"
    },
    {
      "inputs": [
        {
          "internalType": "address",
          "name": "spender",
          "type": "address"
        },
        {
          "internalType": "uint256",
          "name": "subtractedValue",
          "type": "uint256"
        }
      ],
      "name": "decreaseAllowance",
      "outputs": [
        {
          "internalType": "bool",
          "name": "",
          "type": "bool"
        }
      ],
      "stateMutability": "nonpayable",
      "type": "function"
    },
    {
      "inputs": [],
      "name": "deposit",
      "outputs": [],
      "stateMutability": "payable",
      "type": "function"
    },
    {
      "inputs": [],
      "name": "eip712Domain",
      "outputs": [
        {
          "internalType": "bytes1",
          "name": "fields",
          "type": "bytes1"
        },
        {
          "internalType": "string",
          "name": "name",
          "type": "string"
        },
        {
          "internalType": "string",
          "name": "version",
          "type": "string"
        },
        {
          "internalType": "uint256",
          "name": "chainId",
          "type": "uint256"
        },
        {
          "internalType": "address",
          "name": "verifyingContract",
          "type": "address"
        },
        {
          "internalType": "bytes32",
          "name": "salt",
          "type": "bytes32"
        },
        {
          "internalType": "uint256[]",
          "name": "extensions",
          "type": "uint256[]"
        }
      ],
      "stateMutability": "view",
      "type": "function"
    },
    {
      "inputs": [],
      "name": "getChainId",
      "outputs": [
        {
          "internalType": "uint256",
          "name": "",
          "type": "uint256"
        }
      ],
      "stateMutability": "view",
      "type": "function"
    },
    {
      "inputs": [
        {
          "internalType": "address",
          "name": "spender",
          "type": "address"
        },
        {
          "internalType": "uint256",
          "name": "addedValue",
          "type": "uint256"
        }
      ],
      "name": "increaseAllowance",
      "outputs": [
        {
          "internalType": "bool",
          "name": "",
          "type": "bool"
        }
      ],
      "stateMutability": "nonpayable",
      "type": "function"
    },
    {
      "inputs": [],
      "name": "name",
      "outputs": [
        {
          "internalType": "string",
          "name": "",
          "type": "string"
        }
      ],
      "stateMutability": "view",
      "type": "function"
    },
    {
      "inputs": [
        {
          "internalType": "address",
          "name": "owner",
          "type": "address"
        }
      ],
      "name": "nonces",
      "outputs": [
        {
          "internalType": "uint256",
          "name": "",
          "type": "uint256"
        }
      ],
      "stateMutability": "view",
      "type": "function"
    },
    {
      "inputs": [],
      "name": "owner",
      "outputs": [
        {
          "internalType": "address",
          "name": "",
          "type": "address"
        }
      ],
      "stateMutability": "view",
      "type": "function"
    },
    {
      "inputs": [
        {
          "internalType": "address",
          "name": "owner",
          "type": "address"
        },
        {
          "internalType": "address",
          "name": "spender",
          "type": "address"
        },
        {
          "internalType": "uint256",
          "name": "value",
          "type": "uint256"
        },
        {
          "internalType": "uint256",
          "name": "deadline",
          "type": "uint256"
        },
        {
          "internalType": "uint8",
          "name": "v",
          "type": "uint8"
        },
        {
          "internalType": "bytes32",
          "name": "r",
          "type": "bytes32"
        },
        {
          "internalType": "bytes32",
          "name": "s",
          "type": "bytes32"
        }
      ],
      "name": "permit",
      "outputs": [],
      "stateMutability": "nonpayable",
      "type": "function"
    },
    {
      "inputs": [],
      "name": "renounceOwnership",
      "outputs": [],
      "stateMutability": "nonpayable",
      "type": "function"
    },
    {
      "inputs": [],
      "name": "symbol",
      "outputs": [
        {
          "internalType": "string",
          "name": "",
          "type": "string"
        }
      ],
      "stateMutability": "view",
      "type": "function"
    },
    {
      "inputs": [],
      "name": "totalSupply",
      "outputs": [
        {
          "internalType": "uint256",
          "name": "",
          "type": "uint256"
        }
      ],
      "stateMutability": "view",
      "type": "function"
    },
    {
      "inputs": [
        {
          "internalType": "address",
          "name": "to",
          "type": "address"
        },
        {
          "internalType": "uint256",
          "name": "amount",
          "type": "uint256"
        }
      ],
      "name": "transfer",
      "outputs": [
        {
          "internalType": "bool",
          "name": "",
          "type": "bool"
        }
      ],
      "stateMutability": "nonpayable",
      "type": "function"
    },
    {
      "inputs": [
        {
          "internalType": "address",
          "name": "from",
          "type": "address"
        },
        {
          "internalType": "address",
          "name": "to",
          "type": "address"
        },
        {
          "internalType": "uint256",
          "name": "amount",
          "type": "uint256"
        }
      ],
      "name": "transferFrom",
      "outputs": [
        {
          "internalType": "bool",
          "name": "",
          "type": "bool"
        }
      ],
      "stateMutability": "nonpayable",
      "type": "function"
    },
    {
      "inputs": [
        {
          "internalType": "address",
          "name": "newOwner",
          "type": "address"
        }
      ],
      "name": "transferOwnership",
      "outputs": [],
      "stateMutability": "nonpayable",
      "type": "function"
    },
    {
      "inputs": [
        {
          "internalType": "uint256",
          "name": "wad",
          "type": "uint256"
        }
      ],
      "name": "withdraw",
      "outputs": [],
      "stateMutability": "nonpayable",
      "type": "function"
    },
    {
      "stateMutability": "payable",
      "type": "receive"
    }
  ],
  "bytecode": "0x6101606040818152346200045f5762001d12803803809162000022828662000464565b843982019181818403126200045f5780516001600160401b0392908381116200045f578462000053918401620004ad565b91602094858201518581116200045f576200006f9201620004ad565b93815190828201828110868211176200036a57835260019283835281830193603160f81b855285518781116200036a5760038054918383811c9316801562000454575b868410146200043e57601f92838111620003f3575b5080868482116001146200038c5760009162000380575b5060001982841b1c191690841b1781555b8951918983116200036a5760049a8b548581811c911680156200035f575b888210146200034a57828111620002ff575b5086918411600114620002945793839491849260009562000288575b50501b92600019911b1c19161787555b620001568562000508565b936101209485526200016884620006ad565b95610140968752838151910120938460e05251902096610100978089524660a0528251938401947f8b73c3c69bb8fe3d512ecc4cf759cc79239f7b179b0ffacaa9a75d522b39400f86528385015260608401524660808401523060a084015260a0835260c0830196838810908811176200027357508590525190206080523060c05260098054336001600160a01b0319821681179092556001600160a01b03167f8be0079c531659141344cd1fd0a4f28419497f9722a3daafe3b4186f6b6457e0600080a361150d938462000805853960805184611158015260a05184611224015260c05184611122015260e051846111a7015251836111cd015251826105dd015251816106070152f35b604190634e487b7160e01b6000525260246000fd5b0151935038806200013b565b9190601f198416928c60005284886000209460005b8a89838310620002e75750505010620002cc575b50505050811b0187556200014b565b01519060f884600019921b161c1916905538808080620002bd565b868601518955909701969485019488935001620002a9565b8c600052876000208380870160051c8201928a881062000340575b0160051c019086905b828110620003335750506200011f565b6000815501869062000323565b925081926200031a565b60228d634e487b7160e01b6000525260246000fd5b90607f16906200010d565b634e487b7160e01b600052604160045260246000fd5b905089015138620000de565b60008481528881208794509190601f198416908a8e5b838310620003db575050508311620003c2575b5050811b018155620000ef565b8b015160001983861b60f8161c191690553880620003b5565b840151855589969094019392830192018a8e620003a2565b82600052866000208480840160051c82019289851062000434575b0160051c019085905b82811062000427575050620000c7565b6000815501859062000417565b925081926200040e565b634e487b7160e01b600052602260045260246000fd5b92607f1692620000b2565b600080fd5b601f909101601f19168101906001600160401b038211908210176200036a57604052565b60005b8381106200049c5750506000910152565b81810151838201526020016200048b565b81601f820112156200045f5780516001600160401b0381116200036a5760405192620004e4601f8301601f19166020018562000464565b818452602082840101116200045f5762000505916020808501910162000488565b90565b8051602091908281101562000588575090601f8251116200054657808251920151908083106200053757501790565b82600019910360031b1b161790565b6044906200057a9260405193849263305a27a960e01b84528060048501528251928391826024870152868601910162000488565b601f01601f19168101030190fd5b6001600160401b0381116200036a576005928354926001938481811c91168015620006a2575b838210146200043e57601f81116200066b575b5081601f8411600114620006015750928293918392600094620005f5575b50501b916000199060031b1c191617905560ff90565b015192503880620005df565b919083601f1981168760005284600020946000905b8883831062000650575050501062000636575b505050811b01905560ff90565b015160001960f88460031b161c1916905538808062000629565b85870151885590960195948501948793509081019062000616565b8560005284601f846000209201871c820191601f8601881c015b82811062000695575050620005c1565b6000815501859062000685565b90607f1690620005ae565b805160209081811015620006da5750601f8251116200054657808251920151908083106200053757501790565b906001600160401b0382116200036a57600654926001938481811c91168015620007f9575b838210146200043e57601f8111620007bf575b5081601f841160011462000753575092829391839260009462000747575b50501b916000199060031b1c19161760065560ff90565b01519250388062000730565b919083601f198116600660005284600020946000905b88838310620007a457505050106200078a575b505050811b0160065560ff90565b015160001960f88460031b161c191690553880806200077c565b85870151885590960195948501948793509081019062000769565b600660005284601f84600020920160051c820191601f860160051c015b828110620007ec57505062000712565b60008155018590620007dc565b90607f1690620006ff56fe60806040818152600480361015610029575b505050361561001f57600080fd5b6100276113ff565b005b600092833560e01c90816306fdde0314610ae057508063095ea7b314610ab657806318160ddd14610a9757806323b872dd146109cd5780632e1a7d4d1461085a578063313ce5671461083e5780633408e470146108235780633644e515146107ff57806339509351146107af57806370a0823114610778578063715018a61461071b5780637ecebe00146106e357806384b0196e146105c65780638da5cb5b1461059d57806395d89b41146104d3578063a457c2d71461042f578063a9059cbb146103fe578063d0e30db0146103e7578063d505accf1461022e578063dd62ed3e146101e15763f2fde38b0361001157346101dd5760203660031901126101dd57610132610bed565b9061013b610c1e565b6001600160a01b0391821692831561018b575050600980546001600160a01b031981168417909155167f8be0079c531659141344cd1fd0a4f28419497f9722a3daafe3b4186f6b6457e08380a380f35b906020608492519162461bcd60e51b8352820152602660248201527f4f776e61626c653a206e6577206f776e657220697320746865207a65726f206160448201526564647265737360d01b6064820152fd5b8280fd5b50503461022a578060031936011261022a57806020926101ff610bed565b610207610c08565b6001600160a01b0391821683526001865283832091168252845220549051908152f35b5080fd5b5082903461022a5760e036600319011261022a5761024a610bed565b610252610c08565b906044359260643560843560ff811681036103e3578142116103a05760018060a01b0390818516928389526007602052898920908154916001830190558a519060208201927f6e71edae12b1b97f4d1f60370fef10105fa2faae0126114a169c64845d6126c98452868d840152858a1660608401528a608084015260a083015260c082015260c0815260e0810181811067ffffffffffffffff82111761038d578b525190206103359161032d9161030761111f565b908c519161190160f01b83526002830152602282015260c43591604260a435922061109a565b919091610f85565b160361034a5750610347939450610e83565b80f35b606490602087519162461bcd60e51b8352820152601e60248201527f45524332305065726d69743a20696e76616c6964207369676e617475726500006044820152fd5b634e487b7160e01b8b526041875260248bfd5b875162461bcd60e51b8152602081850152601d60248201527f45524332305065726d69743a206578706972656420646561646c696e650000006044820152606490fd5b8680fd5b83806003193601126103fb576103476113ff565b80fd5b50503461022a578060031936011261022a5760209061042861041e610bed565b6024359033610d27565b5160018152f35b5082346103fb57826003193601126103fb57610449610bed565b918360243592338152600160205281812060018060a01b0386168252602052205490828210610482576020856104288585038733610e83565b608490602086519162461bcd60e51b8352820152602560248201527f45524332303a2064656372656173656420616c6c6f77616e63652062656c6f77604482015264207a65726f60d81b6064820152fd5b5091903461022a578160031936011261022a57805191809380546104f681610c76565b808652916001918083169081156105725750600114610537575b6105338686610521828b0383610ce2565b51918291602083526020830190610bad565b0390f35b835260208084209096505b82841061055f575050508261053394610521928201019438610510565b8054868501880152928601928101610542565b905061053397506105219450602092508693915060ff191682840152151560051b8201019438610510565b50503461022a578160031936011261022a5760095490516001600160a01b039091168152602090f35b5090346101dd57826003193601126101dd576106017f000000000000000000000000000000000000000000000000000000000000000061124a565b9261062b7f0000000000000000000000000000000000000000000000000000000000000000611345565b908251926020928385019585871067ffffffffffffffff8811176106d057509280610686838896610679998b9996528686528151998a99600f60f81b8b5260e0868c015260e08b0190610bad565b91898303908a0152610bad565b924660608801523060808801528460a088015286840360c088015251928381520193925b8281106106b957505050500390f35b8351855286955093810193928101926001016106aa565b634e487b7160e01b845260419052602483fd5b50503461022a57602036600319011261022a5760209181906001600160a01b0361070b610bed565b1681526007845220549051908152f35b83346103fb57806003193601126103fb57610734610c1e565b600980546001600160a01b0319811690915581906001600160a01b03167f8be0079c531659141344cd1fd0a4f28419497f9722a3daafe3b4186f6b6457e08280a380f35b50503461022a57602036600319011261022a5760209181906001600160a01b036107a0610bed565b16815280845220549051908152f35b50503461022a578060031936011261022a576104286020926107f86107d2610bed565b338352600186528483206001600160a01b03821684528652918490205460243590610d04565b9033610e83565b50503461022a578160031936011261022a5760209061081c61111f565b9051908152f35b50503461022a578160031936011261022a5760209051468152f35b50503461022a578160031936011261022a576020905160128152f35b50346101dd576020806003193601126109c9578135913385528482528284862054106109bb57331561097057338552848252838520549083821061092257508290338652858352038385205581600254036002558383518381526000805160206114b8833981519152833392a38380838015610918575b8280929181923390f11561090c577f7fcf532c15f0a6db0bd6d0e038bea71d30d808c7d98cb3bf7268a95bf5081b659192519283523392a280f35b505051903d90823e3d90fd5b6108fc91506108d1565b845162461bcd60e51b8152908101839052602260248201527f45524332303a206275726e20616d6f756e7420657863656564732062616c616e604482015261636560f01b6064820152608490fd5b60849184519162461bcd60e51b8352820152602160248201527f45524332303a206275726e2066726f6d20746865207a65726f206164647265736044820152607360f81b6064820152fd5b835163569d45cf60e11b8152fd5b8380fd5b5082903461022a57606036600319011261022a576109e9610bed565b6109f1610c08565b91846044359460018060a01b038416815260016020528181203382526020522054906000198203610a2b575b602086610428878787610d27565b848210610a545750918391610a496020969561042895033383610e83565b919394819350610a1d565b606490602087519162461bcd60e51b8352820152601d60248201527f45524332303a20696e73756666696369656e7420616c6c6f77616e63650000006044820152fd5b50503461022a578160031936011261022a576020906002549051908152f35b50503461022a578060031936011261022a57602090610428610ad6610bed565b6024359033610e83565b849084346101dd57826003193601126101dd5782600354610b0081610c76565b80855290600190818116908115610b855750600114610b2c575b50505061052182610533940383610ce2565b60038352602095507fc2575a0e9e593c00f959f8c92f12db2869c3395a3b0502d05e2516446f71f85b5b828410610b725750505082610533946105219282010194610b1a565b8054868501880152928601928101610b56565b61053397506105219450602092508693915060ff191682840152151560051b82010194610b1a565b919082519283825260005b848110610bd9575050826000602080949584010152601f8019910116010190565b602081830181015184830182015201610bb8565b600435906001600160a01b0382168203610c0357565b600080fd5b602435906001600160a01b0382168203610c0357565b6009546001600160a01b03163303610c3257565b606460405162461bcd60e51b815260206004820152602060248201527f4f776e61626c653a2063616c6c6572206973206e6f7420746865206f776e65726044820152fd5b90600182811c92168015610ca6575b6020831014610c9057565b634e487b7160e01b600052602260045260246000fd5b91607f1691610c85565b6040810190811067ffffffffffffffff821117610ccc57604052565b634e487b7160e01b600052604160045260246000fd5b90601f8019910116810190811067ffffffffffffffff821117610ccc57604052565b91908201809211610d1157565b634e487b7160e01b600052601160045260246000fd5b6001600160a01b03908116918215610e305716918215610ddf57600082815280602052604081205491808310610d8b57604082826000805160206114b8833981519152958760209652828652038282205586815220818154019055604051908152a3565b60405162461bcd60e51b815260206004820152602660248201527f45524332303a207472616e7366657220616d6f756e7420657863656564732062604482015265616c616e636560d01b6064820152608490fd5b60405162461bcd60e51b815260206004820152602360248201527f45524332303a207472616e7366657220746f20746865207a65726f206164647260448201526265737360e81b6064820152608490fd5b60405162461bcd60e51b815260206004820152602560248201527f45524332303a207472616e736665722066726f6d20746865207a65726f206164604482015264647265737360d81b6064820152608490fd5b6001600160a01b03908116918215610f345716918215610ee45760207f8c5be1e5ebec7d5bd14f71427d1e84f3dd0314c0f7b2291e5b200ac8c7c3b925918360005260018252604060002085600052825280604060002055604051908152a3565b60405162461bcd60e51b815260206004820152602260248201527f45524332303a20617070726f766520746f20746865207a65726f206164647265604482015261737360f01b6064820152608490fd5b60405162461bcd60e51b8152602060048201526024808201527f45524332303a20617070726f76652066726f6d20746865207a65726f206164646044820152637265737360e01b6064820152608490fd5b60058110156110845780610f965750565b60018103610fde5760405162461bcd60e51b815260206004820152601860248201527745434453413a20696e76616c6964207369676e617475726560401b6044820152606490fd5b6002810361102b5760405162461bcd60e51b815260206004820152601f60248201527f45434453413a20696e76616c6964207369676e6174757265206c656e677468006044820152606490fd5b60031461103457565b60405162461bcd60e51b815260206004820152602260248201527f45434453413a20696e76616c6964207369676e6174757265202773272076616c604482015261756560f01b6064820152608490fd5b634e487b7160e01b600052602160045260246000fd5b9291906fa2a8918ca85bafe22016d0b997e4df60600160ff1b0383116111135791608094939160ff602094604051948552168484015260408301526060820152600093849182805260015afa156111065781516001600160a01b03811615611100579190565b50600190565b50604051903d90823e3d90fd5b50505050600090600390565b307f00000000000000000000000000000000000000000000000000000000000000006001600160a01b03161480611221575b1561117a577f000000000000000000000000000000000000000000000000000000000000000090565b60405160208101907f8b73c3c69bb8fe3d512ecc4cf759cc79239f7b179b0ffacaa9a75d522b39400f82527f000000000000000000000000000000000000000000000000000000000000000060408201527f000000000000000000000000000000000000000000000000000000000000000060608201524660808201523060a082015260a0815260c0810181811067ffffffffffffffff821117610ccc5760405251902090565b507f00000000000000000000000000000000000000000000000000000000000000004614611151565b60ff81146112885760ff811690601f8211611276576040519161126c83610cb0565b8252602082015290565b604051632cd44ac360e21b8152600490fd5b5060405160055481600061129b83610c76565b80835260019380851690811561132457506001146112c4575b506112c192500382610ce2565b90565b600560009081527f036b6384b5eca791c62761152d0c79bb0604c104a5fb6f4eb0703f3154bb3db094602093509091905b81831061130c5750506112c19350820101386112b4565b855487840185015294850194869450918301916112f5565b90506112c194506020925060ff191682840152151560051b820101386112b4565b60ff81146113675760ff811690601f8211611276576040519161126c83610cb0565b5060405160065481600061137a83610c76565b808352600193808516908115611324575060011461139f57506112c192500382610ce2565b600660009081527ff652222313e28459528d920b65115c16c04f3efc82aaedc97be59f3f377c0d3f94602093509091905b8183106113e75750506112c19350820101386112b4565b855487840185015294850194869450918301916113d0565b33156114725761141134600254610d04565b600255336000526000602052604060002034815401905560405134815260006000805160206114b883398151915260203393a36040513481527fe1fffcc4923d04b559f4d29a8bfc6cda04eb5b0d3c460751c2402c5c5cc9109c60203392a2565b60405162461bcd60e51b815260206004820152601f60248201527f45524332303a206d696e7420746f20746865207a65726f2061646472657373006044820152606490fdfeddf252ad1be2c89b69c2b068fc378daa952ba7f163c4a11628f55a4df523b3efa2646970667358221220a16fe33e81f1357dad5544d8c06ca08a000f16461a5686ff0f5be8875e2d7e6664736f6c63430008130033",
  "linkReferences": {},
  "deployedLinkReferences": {}
}